{
	"FundMe.sol": {
		"FundMe": {
			"abi": [
				{
					"inputs": [
						{
							"internalType": "address",
							"name": "",
							"type": "address"
						}
					],
					"name": "addressToAmountFunded",
					"outputs": [
						{
							"internalType": "uint256",
							"name": "",
							"type": "uint256"
						}
					],
					"stateMutability": "view",
					"type": "function"
				},
				{
					"inputs": [],
					"name": "fund",
					"outputs": [],
					"stateMutability": "payable",
					"type": "function"
				},
				{
					"inputs": [
						{
							"internalType": "uint256",
							"name": "",
							"type": "uint256"
						}
					],
					"name": "funders",
					"outputs": [
						{
							"internalType": "address",
							"name": "",
							"type": "address"
						}
					],
					"stateMutability": "view",
					"type": "function"
				},
				{
					"inputs": [
						{
							"internalType": "uint256",
							"name": "ethAmount",
							"type": "uint256"
						}
					],
					"name": "getConversionRate",
					"outputs": [
						{
							"internalType": "uint256",
							"name": "",
							"type": "uint256"
						}
					],
					"stateMutability": "view",
					"type": "function"
				},
				{
					"inputs": [],
					"name": "getPrice",
					"outputs": [
						{
							"internalType": "uint256",
							"name": "",
							"type": "uint256"
						}
					],
					"stateMutability": "view",
					"type": "function"
				},
				{
					"inputs": [],
					"name": "minimumUSD",
					"outputs": [
						{
							"internalType": "uint256",
							"name": "",
							"type": "uint256"
						}
					],
					"stateMutability": "view",
					"type": "function"
				}
			],
			"devdoc": {
				"kind": "dev",
				"methods": {},
				"version": 1
			},
			"evm": {
				"assembly": "    /* \"FundMe.sol\":413:2851  contract FundMe {\r... */\n  mstore(0x40, 0x80)\n    /* \"FundMe.sol\":535:544  50 * 1e18 */\n  0x02b5e3af16b1880000\n    /* \"FundMe.sol\":507:544  uint256 public minimumUSD = 50 * 1e18 */\n  0x00\n  sstore\n    /* \"FundMe.sol\":413:2851  contract FundMe {\r... */\n  callvalue\n  dup1\n  iszero\n  tag_1\n  jumpi\n  0x00\n  dup1\n  revert\ntag_1:\n  pop\n  dataSize(sub_0)\n  dup1\n  dataOffset(sub_0)\n  0x00\n  codecopy\n  0x00\n  return\nstop\n\nsub_0: assembly {\n        /* \"FundMe.sol\":413:2851  contract FundMe {\r... */\n      mstore(0x40, 0x80)\n      jumpi(tag_1, lt(calldatasize, 0x04))\n      shr(0xe0, calldataload(0x00))\n      dup1\n      0x3430a88c\n      eq\n      tag_2\n      jumpi\n      dup1\n      0x3e47d6f3\n      eq\n      tag_3\n      jumpi\n      dup1\n      0x6e5b6b28\n      eq\n      tag_4\n      jumpi\n      dup1\n      0x98d5fdca\n      eq\n      tag_5\n      jumpi\n      dup1\n      0xb60d4288\n      eq\n      tag_6\n      jumpi\n      dup1\n      0xdc0d3dff\n      eq\n      tag_7\n      jumpi\n    tag_1:\n      0x00\n      dup1\n      revert\n        /* \"FundMe.sol\":507:544  uint256 public minimumUSD = 50 * 1e18 */\n    tag_2:\n      callvalue\n      dup1\n      iszero\n      tag_8\n      jumpi\n      0x00\n      dup1\n      revert\n    tag_8:\n      pop\n      tag_9\n      tag_10\n      jump\t// in\n    tag_9:\n      mload(0x40)\n      tag_11\n      swap2\n      swap1\n      tag_12\n      jump\t// in\n    tag_11:\n      mload(0x40)\n      dup1\n      swap2\n      sub\n      swap1\n      return\n        /* \"FundMe.sol\":584:640  mapping(address => uint256) public addressToAmountFunded */\n    tag_3:\n      callvalue\n      dup1\n      iszero\n      tag_13\n      jumpi\n      0x00\n      dup1\n      revert\n    tag_13:\n      pop\n      tag_14\n      0x04\n      dup1\n      calldatasize\n      sub\n      dup2\n      add\n      swap1\n      tag_15\n      swap2\n      swap1\n      tag_16\n      jump\t// in\n    tag_15:\n      tag_17\n      jump\t// in\n    tag_14:\n      mload(0x40)\n      tag_18\n      swap2\n      swap1\n      tag_12\n      jump\t// in\n    tag_18:\n      mload(0x40)\n      dup1\n      swap2\n      sub\n      swap1\n      return\n        /* \"FundMe.sol\":2110:2817  function getConversionRate(uint256 ethAmount) public view returns (uint256) {\r... */\n    tag_4:\n      callvalue\n      dup1\n      iszero\n      tag_19\n      jumpi\n      0x00\n      dup1\n      revert\n    tag_19:\n      pop\n      tag_20\n      0x04\n      dup1\n      calldatasize\n      sub\n      dup2\n      add\n      swap1\n      tag_21\n      swap2\n      swap1\n      tag_22\n      jump\t// in\n    tag_21:\n      tag_23\n      jump\t// in\n    tag_20:\n      mload(0x40)\n      tag_24\n      swap2\n      swap1\n      tag_12\n      jump\t// in\n    tag_24:\n      mload(0x40)\n      dup1\n      swap2\n      sub\n      swap1\n      return\n        /* \"FundMe.sol\":1061:1611  function getPrice() public view returns (uint256) {\r... */\n    tag_5:\n      callvalue\n      dup1\n      iszero\n      tag_25\n      jumpi\n      0x00\n      dup1\n      revert\n    tag_25:\n      pop\n      tag_26\n      tag_27\n      jump\t// in\n    tag_26:\n      mload(0x40)\n      tag_28\n      swap2\n      swap1\n      tag_12\n      jump\t// in\n    tag_28:\n      mload(0x40)\n      dup1\n      swap2\n      sub\n      swap1\n      return\n        /* \"FundMe.sol\":649:985  function fund() public payable {\r... */\n    tag_6:\n      tag_29\n      tag_30\n      jump\t// in\n    tag_29:\n      stop\n        /* \"FundMe.sol\":553:577  address[] public funders */\n    tag_7:\n      callvalue\n      dup1\n      iszero\n      tag_31\n      jumpi\n      0x00\n      dup1\n      revert\n    tag_31:\n      pop\n      tag_32\n      0x04\n      dup1\n      calldatasize\n      sub\n      dup2\n      add\n      swap1\n      tag_33\n      swap2\n      swap1\n      tag_22\n      jump\t// in\n    tag_33:\n      tag_34\n      jump\t// in\n    tag_32:\n      mload(0x40)\n      tag_35\n      swap2\n      swap1\n      tag_36\n      jump\t// in\n    tag_35:\n      mload(0x40)\n      dup1\n      swap2\n      sub\n      swap1\n      return\n        /* \"FundMe.sol\":507:544  uint256 public minimumUSD = 50 * 1e18 */\n    tag_10:\n      sload(0x00)\n      dup2\n      jump\t// out\n        /* \"FundMe.sol\":584:640  mapping(address => uint256) public addressToAmountFunded */\n    tag_17:\n      mstore(0x20, 0x02)\n      dup1\n      0x00\n      mstore\n      keccak256(0x00, 0x40)\n      0x00\n      swap2\n      pop\n      swap1\n      pop\n      sload\n      dup2\n      jump\t// out\n        /* \"FundMe.sol\":2110:2817  function getConversionRate(uint256 ethAmount) public view returns (uint256) {\r... */\n    tag_23:\n        /* \"FundMe.sol\":2177:2184  uint256 */\n      0x00\n        /* \"FundMe.sol\":2635:2651  uint256 ethPrice */\n      dup1\n        /* \"FundMe.sol\":2654:2664  getPrice() */\n      tag_38\n        /* \"FundMe.sol\":2654:2662  getPrice */\n      tag_27\n        /* \"FundMe.sol\":2654:2664  getPrice() */\n      jump\t// in\n    tag_38:\n        /* \"FundMe.sol\":2635:2664  uint256 ethPrice = getPrice() */\n      swap1\n      pop\n        /* \"FundMe.sol\":2722:2744  uint256 ethAmountInUSD */\n      0x00\n        /* \"FundMe.sol\":2772:2776  1e18 */\n      0x0de0b6b3a7640000\n        /* \"FundMe.sol\":2759:2768  ethAmount */\n      dup5\n        /* \"FundMe.sol\":2748:2756  ethPrice */\n      dup4\n        /* \"FundMe.sol\":2748:2768  ethPrice * ethAmount */\n      tag_39\n      swap2\n      swap1\n      tag_40\n      jump\t// in\n    tag_39:\n        /* \"FundMe.sol\":2747:2776  (ethPrice * ethAmount) / 1e18 */\n      tag_41\n      swap2\n      swap1\n      tag_42\n      jump\t// in\n    tag_41:\n        /* \"FundMe.sol\":2722:2776  uint256 ethAmountInUSD = (ethPrice * ethAmount) / 1e18 */\n      swap1\n      pop\n        /* \"FundMe.sol\":2795:2809  ethAmountInUSD */\n      dup1\n        /* \"FundMe.sol\":2788:2809  return ethAmountInUSD */\n      swap3\n      pop\n      pop\n      pop\n        /* \"FundMe.sol\":2110:2817  function getConversionRate(uint256 ethAmount) public view returns (uint256) {\r... */\n      swap2\n      swap1\n      pop\n      jump\t// out\n        /* \"FundMe.sol\":1061:1611  function getPrice() public view returns (uint256) {\r... */\n    tag_27:\n        /* \"FundMe.sol\":1102:1109  uint256 */\n      0x00\n        /* \"FundMe.sol\":1273:1304  AggregatorV3Interface priceFeed */\n      dup1\n        /* \"FundMe.sol\":1329:1371  0x8A753747A1Fa494EC906cE90E9f37563A8AF630e */\n      0x8a753747a1fa494ec906ce90e9f37563a8af630e\n        /* \"FundMe.sol\":1273:1372  AggregatorV3Interface priceFeed = AggregatorV3Interface(0x8A753747A1Fa494EC906cE90E9f37563A8AF630e) */\n      swap1\n      pop\n        /* \"FundMe.sol\":1418:1430  int256 price */\n      0x00\n        /* \"FundMe.sol\":1479:1488  priceFeed */\n      dup2\n        /* \"FundMe.sol\":1479:1504  priceFeed.latestRoundData */\n      0xffffffffffffffffffffffffffffffffffffffff\n      and\n      0xfeaf968c\n        /* \"FundMe.sol\":1479:1506  priceFeed.latestRoundData() */\n      mload(0x40)\n      dup2\n      0xffffffff\n      and\n      0xe0\n      shl\n      dup2\n      mstore\n      0x04\n      add\n      0xa0\n      mload(0x40)\n      dup1\n      dup4\n      sub\n      dup2\n      dup7\n      dup1\n      extcodesize\n      iszero\n      dup1\n      iszero\n      tag_44\n      jumpi\n      0x00\n      dup1\n      revert\n    tag_44:\n      pop\n      gas\n      staticcall\n      iszero\n      dup1\n      iszero\n      tag_46\n      jumpi\n      returndatasize\n      0x00\n      dup1\n      returndatacopy\n      revert(0x00, returndatasize)\n    tag_46:\n      pop\n      pop\n      pop\n      pop\n      mload(0x40)\n      returndatasize\n      not(0x1f)\n      0x1f\n      dup3\n      add\n      and\n      dup3\n      add\n      dup1\n      0x40\n      mstore\n      pop\n      dup2\n      add\n      swap1\n      tag_47\n      swap2\n      swap1\n      tag_48\n      jump\t// in\n    tag_47:\n        /* \"FundMe.sol\":1383:1506  (     \r... */\n      pop\n      pop\n      pop\n      swap2\n      pop\n      pop\n        /* \"FundMe.sol\":1598:1602  1e10 */\n      0x02540be400\n        /* \"FundMe.sol\":1590:1595  price */\n      dup2\n        /* \"FundMe.sol\":1590:1602  price * 1e10 */\n      tag_49\n      swap2\n      swap1\n      tag_50\n      jump\t// in\n    tag_49:\n        /* \"FundMe.sol\":1575:1603  return uint256(price * 1e10) */\n      swap3\n      pop\n      pop\n      pop\n        /* \"FundMe.sol\":1061:1611  function getPrice() public view returns (uint256) {\r... */\n      swap1\n      jump\t// out\n        /* \"FundMe.sol\":649:985  function fund() public payable {\r... */\n    tag_30:\n        /* \"FundMe.sol\":850:860  minimumUSD */\n      sload(0x00)\n        /* \"FundMe.sol\":818:846  getConversionRate(msg.value) */\n      tag_52\n        /* \"FundMe.sol\":836:845  msg.value */\n      callvalue\n        /* \"FundMe.sol\":818:835  getConversionRate */\n      tag_23\n        /* \"FundMe.sol\":818:846  getConversionRate(msg.value) */\n      jump\t// in\n    tag_52:\n        /* \"FundMe.sol\":818:860  getConversionRate(msg.value) >= minimumUSD */\n      lt\n      iszero\n        /* \"FundMe.sol\":810:884  require(getConversionRate(msg.value) >= minimumUSD, \"Didn't send enough!\") */\n      tag_53\n      jumpi\n      mload(0x40)\n      0x08c379a000000000000000000000000000000000000000000000000000000000\n      dup2\n      mstore\n      0x04\n      add\n      tag_54\n      swap1\n      tag_55\n      jump\t// in\n    tag_54:\n      mload(0x40)\n      dup1\n      swap2\n      sub\n      swap1\n      revert\n    tag_53:\n        /* \"FundMe.sol\":895:902  funders */\n      0x01\n        /* \"FundMe.sol\":908:918  msg.sender */\n      caller\n        /* \"FundMe.sol\":895:919  funders.push(msg.sender) */\n      swap1\n      dup1\n      0x01\n      dup2\n      sload\n      add\n      dup1\n      dup3\n      sstore\n      dup1\n      swap2\n      pop\n      pop\n      0x01\n      swap1\n      sub\n      swap1\n      0x00\n      mstore\n      keccak256(0x00, 0x20)\n      add\n      0x00\n      swap1\n      swap2\n      swap1\n      swap2\n      swap1\n      swap2\n      0x0100\n      exp\n      dup2\n      sload\n      dup2\n      0xffffffffffffffffffffffffffffffffffffffff\n      mul\n      not\n      and\n      swap1\n      dup4\n      0xffffffffffffffffffffffffffffffffffffffff\n      and\n      mul\n      or\n      swap1\n      sstore\n      pop\n        /* \"FundMe.sol\":966:975  msg.value */\n      callvalue\n        /* \"FundMe.sol\":930:951  addressToAmountFunded */\n      0x02\n        /* \"FundMe.sol\":930:963  addressToAmountFunded[msg.sender] */\n      0x00\n        /* \"FundMe.sol\":952:962  msg.sender */\n      caller\n        /* \"FundMe.sol\":930:963  addressToAmountFunded[msg.sender] */\n      0xffffffffffffffffffffffffffffffffffffffff\n      and\n      0xffffffffffffffffffffffffffffffffffffffff\n      and\n      dup2\n      mstore\n      0x20\n      add\n      swap1\n      dup2\n      mstore\n      0x20\n      add\n      0x00\n      keccak256\n        /* \"FundMe.sol\":930:975  addressToAmountFunded[msg.sender] = msg.value */\n      dup2\n      swap1\n      sstore\n      pop\n        /* \"FundMe.sol\":649:985  function fund() public payable {\r... */\n      jump\t// out\n        /* \"FundMe.sol\":553:577  address[] public funders */\n    tag_34:\n      0x01\n      dup2\n      dup2\n      sload\n      dup2\n      lt\n      tag_57\n      jumpi\n      0x00\n      dup1\n      revert\n    tag_57:\n      swap1\n      0x00\n      mstore\n      keccak256(0x00, 0x20)\n      add\n      0x00\n      swap2\n      pop\n      sload\n      swap1\n      0x0100\n      exp\n      swap1\n      div\n      0xffffffffffffffffffffffffffffffffffffffff\n      and\n      dup2\n      jump\t// out\n        /* \"#utility.yul\":7:146   */\n    tag_60:\n        /* \"#utility.yul\":53:58   */\n      0x00\n        /* \"#utility.yul\":91:97   */\n      dup2\n        /* \"#utility.yul\":78:98   */\n      calldataload\n        /* \"#utility.yul\":69:98   */\n      swap1\n      pop\n        /* \"#utility.yul\":107:140   */\n      tag_62\n        /* \"#utility.yul\":134:139   */\n      dup2\n        /* \"#utility.yul\":107:140   */\n      tag_63\n      jump\t// in\n    tag_62:\n        /* \"#utility.yul\":7:146   */\n      swap3\n      swap2\n      pop\n      pop\n      jump\t// out\n        /* \"#utility.yul\":152:293   */\n    tag_64:\n        /* \"#utility.yul\":208:213   */\n      0x00\n        /* \"#utility.yul\":239:245   */\n      dup2\n        /* \"#utility.yul\":233:246   */\n      mload\n        /* \"#utility.yul\":224:246   */\n      swap1\n      pop\n        /* \"#utility.yul\":255:287   */\n      tag_66\n        /* \"#utility.yul\":281:286   */\n      dup2\n        /* \"#utility.yul\":255:287   */\n      tag_67\n      jump\t// in\n    tag_66:\n        /* \"#utility.yul\":152:293   */\n      swap3\n      swap2\n      pop\n      pop\n      jump\t// out\n        /* \"#utility.yul\":299:438   */\n    tag_68:\n        /* \"#utility.yul\":345:350   */\n      0x00\n        /* \"#utility.yul\":383:389   */\n      dup2\n        /* \"#utility.yul\":370:390   */\n      calldataload\n        /* \"#utility.yul\":361:390   */\n      swap1\n      pop\n        /* \"#utility.yul\":399:432   */\n      tag_70\n        /* \"#utility.yul\":426:431   */\n      dup2\n        /* \"#utility.yul\":399:432   */\n      tag_71\n      jump\t// in\n    tag_70:\n        /* \"#utility.yul\":299:438   */\n      swap3\n      swap2\n      pop\n      pop\n      jump\t// out\n        /* \"#utility.yul\":444:587   */\n    tag_72:\n        /* \"#utility.yul\":501:506   */\n      0x00\n        /* \"#utility.yul\":532:538   */\n      dup2\n        /* \"#utility.yul\":526:539   */\n      mload\n        /* \"#utility.yul\":517:539   */\n      swap1\n      pop\n        /* \"#utility.yul\":548:581   */\n      tag_74\n        /* \"#utility.yul\":575:580   */\n      dup2\n        /* \"#utility.yul\":548:581   */\n      tag_71\n      jump\t// in\n    tag_74:\n        /* \"#utility.yul\":444:587   */\n      swap3\n      swap2\n      pop\n      pop\n      jump\t// out\n        /* \"#utility.yul\":593:734   */\n    tag_75:\n        /* \"#utility.yul\":649:654   */\n      0x00\n        /* \"#utility.yul\":680:686   */\n      dup2\n        /* \"#utility.yul\":674:687   */\n      mload\n        /* \"#utility.yul\":665:687   */\n      swap1\n      pop\n        /* \"#utility.yul\":696:728   */\n      tag_77\n        /* \"#utility.yul\":722:727   */\n      dup2\n        /* \"#utility.yul\":696:728   */\n      tag_78\n      jump\t// in\n    tag_77:\n        /* \"#utility.yul\":593:734   */\n      swap3\n      swap2\n      pop\n      pop\n      jump\t// out\n        /* \"#utility.yul\":740:1069   */\n    tag_16:\n        /* \"#utility.yul\":799:805   */\n      0x00\n        /* \"#utility.yul\":848:850   */\n      0x20\n        /* \"#utility.yul\":836:845   */\n      dup3\n        /* \"#utility.yul\":827:834   */\n      dup5\n        /* \"#utility.yul\":823:846   */\n      sub\n        /* \"#utility.yul\":819:851   */\n      slt\n        /* \"#utility.yul\":816:935   */\n      iszero\n      tag_80\n      jumpi\n        /* \"#utility.yul\":854:933   */\n      tag_81\n      tag_82\n      jump\t// in\n    tag_81:\n        /* \"#utility.yul\":816:935   */\n    tag_80:\n        /* \"#utility.yul\":974:975   */\n      0x00\n        /* \"#utility.yul\":999:1052   */\n      tag_83\n        /* \"#utility.yul\":1044:1051   */\n      dup5\n        /* \"#utility.yul\":1035:1041   */\n      dup3\n        /* \"#utility.yul\":1024:1033   */\n      dup6\n        /* \"#utility.yul\":1020:1042   */\n      add\n        /* \"#utility.yul\":999:1052   */\n      tag_60\n      jump\t// in\n    tag_83:\n        /* \"#utility.yul\":989:1052   */\n      swap2\n      pop\n        /* \"#utility.yul\":945:1062   */\n      pop\n        /* \"#utility.yul\":740:1069   */\n      swap3\n      swap2\n      pop\n      pop\n      jump\t// out\n        /* \"#utility.yul\":1075:1404   */\n    tag_22:\n        /* \"#utility.yul\":1134:1140   */\n      0x00\n        /* \"#utility.yul\":1183:1185   */\n      0x20\n        /* \"#utility.yul\":1171:1180   */\n      dup3\n        /* \"#utility.yul\":1162:1169   */\n      dup5\n        /* \"#utility.yul\":1158:1181   */\n      sub\n        /* \"#utility.yul\":1154:1186   */\n      slt\n        /* \"#utility.yul\":1151:1270   */\n      iszero\n      tag_85\n      jumpi\n        /* \"#utility.yul\":1189:1268   */\n      tag_86\n      tag_82\n      jump\t// in\n    tag_86:\n        /* \"#utility.yul\":1151:1270   */\n    tag_85:\n        /* \"#utility.yul\":1309:1310   */\n      0x00\n        /* \"#utility.yul\":1334:1387   */\n      tag_87\n        /* \"#utility.yul\":1379:1386   */\n      dup5\n        /* \"#utility.yul\":1370:1376   */\n      dup3\n        /* \"#utility.yul\":1359:1368   */\n      dup6\n        /* \"#utility.yul\":1355:1377   */\n      add\n        /* \"#utility.yul\":1334:1387   */\n      tag_68\n      jump\t// in\n    tag_87:\n        /* \"#utility.yul\":1324:1387   */\n      swap2\n      pop\n        /* \"#utility.yul\":1280:1397   */\n      pop\n        /* \"#utility.yul\":1075:1404   */\n      swap3\n      swap2\n      pop\n      pop\n      jump\t// out\n        /* \"#utility.yul\":1410:2381   */\n    tag_48:\n        /* \"#utility.yul\":1513:1519   */\n      0x00\n        /* \"#utility.yul\":1521:1527   */\n      dup1\n        /* \"#utility.yul\":1529:1535   */\n      0x00\n        /* \"#utility.yul\":1537:1543   */\n      dup1\n        /* \"#utility.yul\":1545:1551   */\n      0x00\n        /* \"#utility.yul\":1594:1597   */\n      0xa0\n        /* \"#utility.yul\":1582:1591   */\n      dup7\n        /* \"#utility.yul\":1573:1580   */\n      dup9\n        /* \"#utility.yul\":1569:1592   */\n      sub\n        /* \"#utility.yul\":1565:1598   */\n      slt\n        /* \"#utility.yul\":1562:1682   */\n      iszero\n      tag_89\n      jumpi\n        /* \"#utility.yul\":1601:1680   */\n      tag_90\n      tag_82\n      jump\t// in\n    tag_90:\n        /* \"#utility.yul\":1562:1682   */\n    tag_89:\n        /* \"#utility.yul\":1721:1722   */\n      0x00\n        /* \"#utility.yul\":1746:1809   */\n      tag_91\n        /* \"#utility.yul\":1801:1808   */\n      dup9\n        /* \"#utility.yul\":1792:1798   */\n      dup3\n        /* \"#utility.yul\":1781:1790   */\n      dup10\n        /* \"#utility.yul\":1777:1799   */\n      add\n        /* \"#utility.yul\":1746:1809   */\n      tag_75\n      jump\t// in\n    tag_91:\n        /* \"#utility.yul\":1736:1809   */\n      swap6\n      pop\n        /* \"#utility.yul\":1692:1819   */\n      pop\n        /* \"#utility.yul\":1858:1860   */\n      0x20\n        /* \"#utility.yul\":1884:1947   */\n      tag_92\n        /* \"#utility.yul\":1939:1946   */\n      dup9\n        /* \"#utility.yul\":1930:1936   */\n      dup3\n        /* \"#utility.yul\":1919:1928   */\n      dup10\n        /* \"#utility.yul\":1915:1937   */\n      add\n        /* \"#utility.yul\":1884:1947   */\n      tag_64\n      jump\t// in\n    tag_92:\n        /* \"#utility.yul\":1874:1947   */\n      swap5\n      pop\n        /* \"#utility.yul\":1829:1957   */\n      pop\n        /* \"#utility.yul\":1996:1998   */\n      0x40\n        /* \"#utility.yul\":2022:2086   */\n      tag_93\n        /* \"#utility.yul\":2078:2085   */\n      dup9\n        /* \"#utility.yul\":2069:2075   */\n      dup3\n        /* \"#utility.yul\":2058:2067   */\n      dup10\n        /* \"#utility.yul\":2054:2076   */\n      add\n        /* \"#utility.yul\":2022:2086   */\n      tag_72\n      jump\t// in\n    tag_93:\n        /* \"#utility.yul\":2012:2086   */\n      swap4\n      pop\n        /* \"#utility.yul\":1967:2096   */\n      pop\n        /* \"#utility.yul\":2135:2137   */\n      0x60\n        /* \"#utility.yul\":2161:2225   */\n      tag_94\n        /* \"#utility.yul\":2217:2224   */\n      dup9\n        /* \"#utility.yul\":2208:2214   */\n      dup3\n        /* \"#utility.yul\":2197:2206   */\n      dup10\n        /* \"#utility.yul\":2193:2215   */\n      add\n        /* \"#utility.yul\":2161:2225   */\n      tag_72\n      jump\t// in\n    tag_94:\n        /* \"#utility.yul\":2151:2225   */\n      swap3\n      pop\n        /* \"#utility.yul\":2106:2235   */\n      pop\n        /* \"#utility.yul\":2274:2277   */\n      0x80\n        /* \"#utility.yul\":2301:2364   */\n      tag_95\n        /* \"#utility.yul\":2356:2363   */\n      dup9\n        /* \"#utility.yul\":2347:2353   */\n      dup3\n        /* \"#utility.yul\":2336:2345   */\n      dup10\n        /* \"#utility.yul\":2332:2354   */\n      add\n        /* \"#utility.yul\":2301:2364   */\n      tag_75\n      jump\t// in\n    tag_95:\n        /* \"#utility.yul\":2291:2364   */\n      swap2\n      pop\n        /* \"#utility.yul\":2245:2374   */\n      pop\n        /* \"#utility.yul\":1410:2381   */\n      swap3\n      swap6\n      pop\n      swap3\n      swap6\n      swap1\n      swap4\n      pop\n      jump\t// out\n        /* \"#utility.yul\":2387:2505   */\n    tag_96:\n        /* \"#utility.yul\":2474:2498   */\n      tag_98\n        /* \"#utility.yul\":2492:2497   */\n      dup2\n        /* \"#utility.yul\":2474:2498   */\n      tag_99\n      jump\t// in\n    tag_98:\n        /* \"#utility.yul\":2469:2472   */\n      dup3\n        /* \"#utility.yul\":2462:2499   */\n      mstore\n        /* \"#utility.yul\":2387:2505   */\n      pop\n      pop\n      jump\t// out\n        /* \"#utility.yul\":2511:2877   */\n    tag_100:\n        /* \"#utility.yul\":2653:2656   */\n      0x00\n        /* \"#utility.yul\":2674:2741   */\n      tag_102\n        /* \"#utility.yul\":2738:2740   */\n      0x13\n        /* \"#utility.yul\":2733:2736   */\n      dup4\n        /* \"#utility.yul\":2674:2741   */\n      tag_103\n      jump\t// in\n    tag_102:\n        /* \"#utility.yul\":2667:2741   */\n      swap2\n      pop\n        /* \"#utility.yul\":2750:2843   */\n      tag_104\n        /* \"#utility.yul\":2839:2842   */\n      dup3\n        /* \"#utility.yul\":2750:2843   */\n      tag_105\n      jump\t// in\n    tag_104:\n        /* \"#utility.yul\":2868:2870   */\n      0x20\n        /* \"#utility.yul\":2863:2866   */\n      dup3\n        /* \"#utility.yul\":2859:2871   */\n      add\n        /* \"#utility.yul\":2852:2871   */\n      swap1\n      pop\n        /* \"#utility.yul\":2511:2877   */\n      swap2\n      swap1\n      pop\n      jump\t// out\n        /* \"#utility.yul\":2883:3001   */\n    tag_106:\n        /* \"#utility.yul\":2970:2994   */\n      tag_108\n        /* \"#utility.yul\":2988:2993   */\n      dup2\n        /* \"#utility.yul\":2970:2994   */\n      tag_109\n      jump\t// in\n    tag_108:\n        /* \"#utility.yul\":2965:2968   */\n      dup3\n        /* \"#utility.yul\":2958:2995   */\n      mstore\n        /* \"#utility.yul\":2883:3001   */\n      pop\n      pop\n      jump\t// out\n        /* \"#utility.yul\":3007:3229   */\n    tag_36:\n        /* \"#utility.yul\":3100:3104   */\n      0x00\n        /* \"#utility.yul\":3138:3140   */\n      0x20\n        /* \"#utility.yul\":3127:3136   */\n      dup3\n        /* \"#utility.yul\":3123:3141   */\n      add\n        /* \"#utility.yul\":3115:3141   */\n      swap1\n      pop\n        /* \"#utility.yul\":3151:3222   */\n      tag_111\n        /* \"#utility.yul\":3219:3220   */\n      0x00\n        /* \"#utility.yul\":3208:3217   */\n      dup4\n        /* \"#utility.yul\":3204:3221   */\n      add\n        /* \"#utility.yul\":3195:3201   */\n      dup5\n        /* \"#utility.yul\":3151:3222   */\n      tag_96\n      jump\t// in\n    tag_111:\n        /* \"#utility.yul\":3007:3229   */\n      swap3\n      swap2\n      pop\n      pop\n      jump\t// out\n        /* \"#utility.yul\":3235:3654   */\n    tag_55:\n        /* \"#utility.yul\":3401:3405   */\n      0x00\n        /* \"#utility.yul\":3439:3441   */\n      0x20\n        /* \"#utility.yul\":3428:3437   */\n      dup3\n        /* \"#utility.yul\":3424:3442   */\n      add\n        /* \"#utility.yul\":3416:3442   */\n      swap1\n      pop\n        /* \"#utility.yul\":3488:3497   */\n      dup2\n        /* \"#utility.yul\":3482:3486   */\n      dup2\n        /* \"#utility.yul\":3478:3498   */\n      sub\n        /* \"#utility.yul\":3474:3475   */\n      0x00\n        /* \"#utility.yul\":3463:3472   */\n      dup4\n        /* \"#utility.yul\":3459:3476   */\n      add\n        /* \"#utility.yul\":3452:3499   */\n      mstore\n        /* \"#utility.yul\":3516:3647   */\n      tag_113\n        /* \"#utility.yul\":3642:3646   */\n      dup2\n        /* \"#utility.yul\":3516:3647   */\n      tag_100\n      jump\t// in\n    tag_113:\n        /* \"#utility.yul\":3508:3647   */\n      swap1\n      pop\n        /* \"#utility.yul\":3235:3654   */\n      swap2\n      swap1\n      pop\n      jump\t// out\n        /* \"#utility.yul\":3660:3882   */\n    tag_12:\n        /* \"#utility.yul\":3753:3757   */\n      0x00\n        /* \"#utility.yul\":3791:3793   */\n      0x20\n        /* \"#utility.yul\":3780:3789   */\n      dup3\n        /* \"#utility.yul\":3776:3794   */\n      add\n        /* \"#utility.yul\":3768:3794   */\n      swap1\n      pop\n        /* \"#utility.yul\":3804:3875   */\n      tag_115\n        /* \"#utility.yul\":3872:3873   */\n      0x00\n        /* \"#utility.yul\":3861:3870   */\n      dup4\n        /* \"#utility.yul\":3857:3874   */\n      add\n        /* \"#utility.yul\":3848:3854   */\n      dup5\n        /* \"#utility.yul\":3804:3875   */\n      tag_106\n      jump\t// in\n    tag_115:\n        /* \"#utility.yul\":3660:3882   */\n      swap3\n      swap2\n      pop\n      pop\n      jump\t// out\n        /* \"#utility.yul\":3969:4138   */\n    tag_103:\n        /* \"#utility.yul\":4053:4064   */\n      0x00\n        /* \"#utility.yul\":4087:4093   */\n      dup3\n        /* \"#utility.yul\":4082:4085   */\n      dup3\n        /* \"#utility.yul\":4075:4094   */\n      mstore\n        /* \"#utility.yul\":4127:4131   */\n      0x20\n        /* \"#utility.yul\":4122:4125   */\n      dup3\n        /* \"#utility.yul\":4118:4132   */\n      add\n        /* \"#utility.yul\":4103:4132   */\n      swap1\n      pop\n        /* \"#utility.yul\":3969:4138   */\n      swap3\n      swap2\n      pop\n      pop\n      jump\t// out\n        /* \"#utility.yul\":4144:4329   */\n    tag_42:\n        /* \"#utility.yul\":4184:4185   */\n      0x00\n        /* \"#utility.yul\":4201:4221   */\n      tag_120\n        /* \"#utility.yul\":4219:4220   */\n      dup3\n        /* \"#utility.yul\":4201:4221   */\n      tag_109\n      jump\t// in\n    tag_120:\n        /* \"#utility.yul\":4196:4221   */\n      swap2\n      pop\n        /* \"#utility.yul\":4235:4255   */\n      tag_121\n        /* \"#utility.yul\":4253:4254   */\n      dup4\n        /* \"#utility.yul\":4235:4255   */\n      tag_109\n      jump\t// in\n    tag_121:\n        /* \"#utility.yul\":4230:4255   */\n      swap3\n      pop\n        /* \"#utility.yul\":4274:4275   */\n      dup3\n        /* \"#utility.yul\":4264:4299   */\n      tag_122\n      jumpi\n        /* \"#utility.yul\":4279:4297   */\n      tag_123\n      tag_124\n      jump\t// in\n    tag_123:\n        /* \"#utility.yul\":4264:4299   */\n    tag_122:\n        /* \"#utility.yul\":4321:4322   */\n      dup3\n        /* \"#utility.yul\":4318:4319   */\n      dup3\n        /* \"#utility.yul\":4314:4323   */\n      div\n        /* \"#utility.yul\":4309:4323   */\n      swap1\n      pop\n        /* \"#utility.yul\":4144:4329   */\n      swap3\n      swap2\n      pop\n      pop\n      jump\t// out\n        /* \"#utility.yul\":4335:5326   */\n    tag_50:\n        /* \"#utility.yul\":4374:4381   */\n      0x00\n        /* \"#utility.yul\":4397:4416   */\n      tag_126\n        /* \"#utility.yul\":4414:4415   */\n      dup3\n        /* \"#utility.yul\":4397:4416   */\n      tag_127\n      jump\t// in\n    tag_126:\n        /* \"#utility.yul\":4392:4416   */\n      swap2\n      pop\n        /* \"#utility.yul\":4430:4449   */\n      tag_128\n        /* \"#utility.yul\":4447:4448   */\n      dup4\n        /* \"#utility.yul\":4430:4449   */\n      tag_127\n      jump\t// in\n    tag_128:\n        /* \"#utility.yul\":4425:4449   */\n      swap3\n      pop\n        /* \"#utility.yul\":4631:4632   */\n      dup3\n        /* \"#utility.yul\":4563:4629   */\n      0x7fffffffffffffffffffffffffffffffffffffffffffffffffffffffffffffff\n        /* \"#utility.yul\":4559:4633   */\n      div\n        /* \"#utility.yul\":4556:4557   */\n      dup3\n        /* \"#utility.yul\":4553:4634   */\n      gt\n        /* \"#utility.yul\":4548:4549   */\n      0x00\n        /* \"#utility.yul\":4545:4546   */\n      dup5\n        /* \"#utility.yul\":4541:4550   */\n      sgt\n        /* \"#utility.yul\":4537:4538   */\n      0x00\n        /* \"#utility.yul\":4534:4535   */\n      dup5\n        /* \"#utility.yul\":4530:4539   */\n      sgt\n        /* \"#utility.yul\":4526:4551   */\n      and\n        /* \"#utility.yul\":4522:4635   */\n      and\n        /* \"#utility.yul\":4519:4658   */\n      iszero\n      tag_129\n      jumpi\n        /* \"#utility.yul\":4638:4656   */\n      tag_130\n      tag_131\n      jump\t// in\n    tag_130:\n        /* \"#utility.yul\":4519:4658   */\n    tag_129:\n        /* \"#utility.yul\":4842:4843   */\n      dup2\n        /* \"#utility.yul\":4774:4840   */\n      0x8000000000000000000000000000000000000000000000000000000000000000\n        /* \"#utility.yul\":4769:4844   */\n      sdiv\n        /* \"#utility.yul\":4766:4767   */\n      dup4\n        /* \"#utility.yul\":4762:4845   */\n      slt\n        /* \"#utility.yul\":4757:4758   */\n      0x00\n        /* \"#utility.yul\":4754:4755   */\n      dup5\n        /* \"#utility.yul\":4750:4759   */\n      slt\n        /* \"#utility.yul\":4746:4747   */\n      0x00\n        /* \"#utility.yul\":4743:4744   */\n      dup5\n        /* \"#utility.yul\":4739:4748   */\n      sgt\n        /* \"#utility.yul\":4735:4760   */\n      and\n        /* \"#utility.yul\":4731:4846   */\n      and\n        /* \"#utility.yul\":4728:4869   */\n      iszero\n      tag_132\n      jumpi\n        /* \"#utility.yul\":4849:4867   */\n      tag_133\n      tag_131\n      jump\t// in\n    tag_133:\n        /* \"#utility.yul\":4728:4869   */\n    tag_132:\n        /* \"#utility.yul\":5053:5054   */\n      dup3\n        /* \"#utility.yul\":4985:5051   */\n      0x8000000000000000000000000000000000000000000000000000000000000000\n        /* \"#utility.yul\":4980:5055   */\n      sdiv\n        /* \"#utility.yul\":4977:4978   */\n      dup3\n        /* \"#utility.yul\":4973:5056   */\n      slt\n        /* \"#utility.yul\":4968:4969   */\n      0x00\n        /* \"#utility.yul\":4965:4966   */\n      dup5\n        /* \"#utility.yul\":4961:4970   */\n      sgt\n        /* \"#utility.yul\":4957:4958   */\n      0x00\n        /* \"#utility.yul\":4954:4955   */\n      dup5\n        /* \"#utility.yul\":4950:4959   */\n      slt\n        /* \"#utility.yul\":4946:4971   */\n      and\n        /* \"#utility.yul\":4942:5057   */\n      and\n        /* \"#utility.yul\":4939:5080   */\n      iszero\n      tag_134\n      jumpi\n        /* \"#utility.yul\":5060:5078   */\n      tag_135\n      tag_131\n      jump\t// in\n    tag_135:\n        /* \"#utility.yul\":4939:5080   */\n    tag_134:\n        /* \"#utility.yul\":5263:5264   */\n      dup3\n        /* \"#utility.yul\":5195:5261   */\n      0x7fffffffffffffffffffffffffffffffffffffffffffffffffffffffffffffff\n        /* \"#utility.yul\":5190:5265   */\n      sdiv\n        /* \"#utility.yul\":5187:5188   */\n      dup3\n        /* \"#utility.yul\":5183:5266   */\n      slt\n        /* \"#utility.yul\":5178:5179   */\n      0x00\n        /* \"#utility.yul\":5175:5176   */\n      dup5\n        /* \"#utility.yul\":5171:5180   */\n      slt\n        /* \"#utility.yul\":5167:5168   */\n      0x00\n        /* \"#utility.yul\":5164:5165   */\n      dup5\n        /* \"#utility.yul\":5160:5169   */\n      slt\n        /* \"#utility.yul\":5156:5181   */\n      and\n        /* \"#utility.yul\":5152:5267   */\n      and\n        /* \"#utility.yul\":5149:5290   */\n      iszero\n      tag_136\n      jumpi\n        /* \"#utility.yul\":5270:5288   */\n      tag_137\n      tag_131\n      jump\t// in\n    tag_137:\n        /* \"#utility.yul\":5149:5290   */\n    tag_136:\n        /* \"#utility.yul\":5318:5319   */\n      dup3\n        /* \"#utility.yul\":5315:5316   */\n      dup3\n        /* \"#utility.yul\":5311:5320   */\n      mul\n        /* \"#utility.yul\":5300:5320   */\n      swap1\n      pop\n        /* \"#utility.yul\":4335:5326   */\n      swap3\n      swap2\n      pop\n      pop\n      jump\t// out\n        /* \"#utility.yul\":5332:5680   */\n    tag_40:\n        /* \"#utility.yul\":5372:5379   */\n      0x00\n        /* \"#utility.yul\":5395:5415   */\n      tag_139\n        /* \"#utility.yul\":5413:5414   */\n      dup3\n        /* \"#utility.yul\":5395:5415   */\n      tag_109\n      jump\t// in\n    tag_139:\n        /* \"#utility.yul\":5390:5415   */\n      swap2\n      pop\n        /* \"#utility.yul\":5429:5449   */\n      tag_140\n        /* \"#utility.yul\":5447:5448   */\n      dup4\n        /* \"#utility.yul\":5429:5449   */\n      tag_109\n      jump\t// in\n    tag_140:\n        /* \"#utility.yul\":5424:5449   */\n      swap3\n      pop\n        /* \"#utility.yul\":5617:5618   */\n      dup2\n        /* \"#utility.yul\":5549:5615   */\n      0xffffffffffffffffffffffffffffffffffffffffffffffffffffffffffffffff\n        /* \"#utility.yul\":5545:5619   */\n      div\n        /* \"#utility.yul\":5542:5543   */\n      dup4\n        /* \"#utility.yul\":5539:5620   */\n      gt\n        /* \"#utility.yul\":5534:5535   */\n      dup3\n        /* \"#utility.yul\":5527:5536   */\n      iszero\n        /* \"#utility.yul\":5520:5537   */\n      iszero\n        /* \"#utility.yul\":5516:5621   */\n      and\n        /* \"#utility.yul\":5513:5644   */\n      iszero\n      tag_141\n      jumpi\n        /* \"#utility.yul\":5624:5642   */\n      tag_142\n      tag_131\n      jump\t// in\n    tag_142:\n        /* \"#utility.yul\":5513:5644   */\n    tag_141:\n        /* \"#utility.yul\":5672:5673   */\n      dup3\n        /* \"#utility.yul\":5669:5670   */\n      dup3\n        /* \"#utility.yul\":5665:5674   */\n      mul\n        /* \"#utility.yul\":5654:5674   */\n      swap1\n      pop\n        /* \"#utility.yul\":5332:5680   */\n      swap3\n      swap2\n      pop\n      pop\n      jump\t// out\n        /* \"#utility.yul\":5686:5782   */\n    tag_99:\n        /* \"#utility.yul\":5723:5730   */\n      0x00\n        /* \"#utility.yul\":5752:5776   */\n      tag_144\n        /* \"#utility.yul\":5770:5775   */\n      dup3\n        /* \"#utility.yul\":5752:5776   */\n      tag_145\n      jump\t// in\n    tag_144:\n        /* \"#utility.yul\":5741:5776   */\n      swap1\n      pop\n        /* \"#utility.yul\":5686:5782   */\n      swap2\n      swap1\n      pop\n      jump\t// out\n        /* \"#utility.yul\":5788:5864   */\n    tag_127:\n        /* \"#utility.yul\":5824:5831   */\n      0x00\n        /* \"#utility.yul\":5853:5858   */\n      dup2\n        /* \"#utility.yul\":5842:5858   */\n      swap1\n      pop\n        /* \"#utility.yul\":5788:5864   */\n      swap2\n      swap1\n      pop\n      jump\t// out\n        /* \"#utility.yul\":5870:5996   */\n    tag_145:\n        /* \"#utility.yul\":5907:5914   */\n      0x00\n        /* \"#utility.yul\":5947:5989   */\n      0xffffffffffffffffffffffffffffffffffffffff\n        /* \"#utility.yul\":5940:5945   */\n      dup3\n        /* \"#utility.yul\":5936:5990   */\n      and\n        /* \"#utility.yul\":5925:5990   */\n      swap1\n      pop\n        /* \"#utility.yul\":5870:5996   */\n      swap2\n      swap1\n      pop\n      jump\t// out\n        /* \"#utility.yul\":6002:6079   */\n    tag_109:\n        /* \"#utility.yul\":6039:6046   */\n      0x00\n        /* \"#utility.yul\":6068:6073   */\n      dup2\n        /* \"#utility.yul\":6057:6073   */\n      swap1\n      pop\n        /* \"#utility.yul\":6002:6079   */\n      swap2\n      swap1\n      pop\n      jump\t// out\n        /* \"#utility.yul\":6085:6190   */\n    tag_149:\n        /* \"#utility.yul\":6121:6128   */\n      0x00\n        /* \"#utility.yul\":6161:6183   */\n      0xffffffffffffffffffff\n        /* \"#utility.yul\":6154:6159   */\n      dup3\n        /* \"#utility.yul\":6150:6184   */\n      and\n        /* \"#utility.yul\":6139:6184   */\n      swap1\n      pop\n        /* \"#utility.yul\":6085:6190   */\n      swap2\n      swap1\n      pop\n      jump\t// out\n        /* \"#utility.yul\":6196:6376   */\n    tag_131:\n        /* \"#utility.yul\":6244:6321   */\n      0x4e487b7100000000000000000000000000000000000000000000000000000000\n        /* \"#utility.yul\":6241:6242   */\n      0x00\n        /* \"#utility.yul\":6234:6322   */\n      mstore\n        /* \"#utility.yul\":6341:6345   */\n      0x11\n        /* \"#utility.yul\":6338:6339   */\n      0x04\n        /* \"#utility.yul\":6331:6346   */\n      mstore\n        /* \"#utility.yul\":6365:6369   */\n      0x24\n        /* \"#utility.yul\":6362:6363   */\n      0x00\n        /* \"#utility.yul\":6355:6370   */\n      revert\n        /* \"#utility.yul\":6382:6562   */\n    tag_124:\n        /* \"#utility.yul\":6430:6507   */\n      0x4e487b7100000000000000000000000000000000000000000000000000000000\n        /* \"#utility.yul\":6427:6428   */\n      0x00\n        /* \"#utility.yul\":6420:6508   */\n      mstore\n        /* \"#utility.yul\":6527:6531   */\n      0x12\n        /* \"#utility.yul\":6524:6525   */\n      0x04\n        /* \"#utility.yul\":6517:6532   */\n      mstore\n        /* \"#utility.yul\":6551:6555   */\n      0x24\n        /* \"#utility.yul\":6548:6549   */\n      0x00\n        /* \"#utility.yul\":6541:6556   */\n      revert\n        /* \"#utility.yul\":6691:6808   */\n    tag_82:\n        /* \"#utility.yul\":6800:6801   */\n      0x00\n        /* \"#utility.yul\":6797:6798   */\n      dup1\n        /* \"#utility.yul\":6790:6802   */\n      revert\n        /* \"#utility.yul\":6814:6983   */\n    tag_105:\n        /* \"#utility.yul\":6954:6975   */\n      0x4469646e27742073656e6420656e6f7567682100000000000000000000000000\n        /* \"#utility.yul\":6950:6951   */\n      0x00\n        /* \"#utility.yul\":6942:6948   */\n      dup3\n        /* \"#utility.yul\":6938:6952   */\n      add\n        /* \"#utility.yul\":6931:6976   */\n      mstore\n        /* \"#utility.yul\":6814:6983   */\n      pop\n      jump\t// out\n        /* \"#utility.yul\":6989:7111   */\n    tag_63:\n        /* \"#utility.yul\":7062:7086   */\n      tag_158\n        /* \"#utility.yul\":7080:7085   */\n      dup2\n        /* \"#utility.yul\":7062:7086   */\n      tag_99\n      jump\t// in\n    tag_158:\n        /* \"#utility.yul\":7055:7060   */\n      dup2\n        /* \"#utility.yul\":7052:7087   */\n      eq\n        /* \"#utility.yul\":7042:7105   */\n      tag_159\n      jumpi\n        /* \"#utility.yul\":7101:7102   */\n      0x00\n        /* \"#utility.yul\":7098:7099   */\n      dup1\n        /* \"#utility.yul\":7091:7103   */\n      revert\n        /* \"#utility.yul\":7042:7105   */\n    tag_159:\n        /* \"#utility.yul\":6989:7111   */\n      pop\n      jump\t// out\n        /* \"#utility.yul\":7117:7237   */\n    tag_67:\n        /* \"#utility.yul\":7189:7212   */\n      tag_161\n        /* \"#utility.yul\":7206:7211   */\n      dup2\n        /* \"#utility.yul\":7189:7212   */\n      tag_127\n      jump\t// in\n    tag_161:\n        /* \"#utility.yul\":7182:7187   */\n      dup2\n        /* \"#utility.yul\":7179:7213   */\n      eq\n        /* \"#utility.yul\":7169:7231   */\n      tag_162\n      jumpi\n        /* \"#utility.yul\":7227:7228   */\n      0x00\n        /* \"#utility.yul\":7224:7225   */\n      dup1\n        /* \"#utility.yul\":7217:7229   */\n      revert\n        /* \"#utility.yul\":7169:7231   */\n    tag_162:\n        /* \"#utility.yul\":7117:7237   */\n      pop\n      jump\t// out\n        /* \"#utility.yul\":7243:7365   */\n    tag_71:\n        /* \"#utility.yul\":7316:7340   */\n      tag_164\n        /* \"#utility.yul\":7334:7339   */\n      dup2\n        /* \"#utility.yul\":7316:7340   */\n      tag_109\n      jump\t// in\n    tag_164:\n        /* \"#utility.yul\":7309:7314   */\n      dup2\n        /* \"#utility.yul\":7306:7341   */\n      eq\n        /* \"#utility.yul\":7296:7359   */\n      tag_165\n      jumpi\n        /* \"#utility.yul\":7355:7356   */\n      0x00\n        /* \"#utility.yul\":7352:7353   */\n      dup1\n        /* \"#utility.yul\":7345:7357   */\n      revert\n        /* \"#utility.yul\":7296:7359   */\n    tag_165:\n        /* \"#utility.yul\":7243:7365   */\n      pop\n      jump\t// out\n        /* \"#utility.yul\":7371:7491   */\n    tag_78:\n        /* \"#utility.yul\":7443:7466   */\n      tag_167\n        /* \"#utility.yul\":7460:7465   */\n      dup2\n        /* \"#utility.yul\":7443:7466   */\n      tag_149\n      jump\t// in\n    tag_167:\n        /* \"#utility.yul\":7436:7441   */\n      dup2\n        /* \"#utility.yul\":7433:7467   */\n      eq\n        /* \"#utility.yul\":7423:7485   */\n      tag_168\n      jumpi\n        /* \"#utility.yul\":7481:7482   */\n      0x00\n        /* \"#utility.yul\":7478:7479   */\n      dup1\n        /* \"#utility.yul\":7471:7483   */\n      revert\n        /* \"#utility.yul\":7423:7485   */\n    tag_168:\n        /* \"#utility.yul\":7371:7491   */\n      pop\n      jump\t// out\n\n    auxdata: 0xa2646970667358221220aecbd39bf34b8ca9bba437094f2c8842d6154845d792f7e232fae74f816775a464736f6c63430008070033\n}\n",
				"bytecode": {
					"linkReferences": {},
					"object": "60806040526802b5e3af16b188000060005534801561001d57600080fd5b506108b88061002d6000396000f3fe6080604052600436106100555760003560e01c80633430a88c1461005a5780633e47d6f3146100855780636e5b6b28146100c257806398d5fdca146100ff578063b60d42881461012a578063dc0d3dff14610134575b600080fd5b34801561006657600080fd5b5061006f610171565b60405161007c9190610570565b60405180910390f35b34801561009157600080fd5b506100ac60048036038101906100a7919061041f565b610177565b6040516100b99190610570565b60405180910390f35b3480156100ce57600080fd5b506100e960048036038101906100e4919061044c565b61018f565b6040516100f69190610570565b60405180910390f35b34801561010b57600080fd5b506101146101c9565b6040516101219190610570565b60405180910390f35b610132610281565b005b34801561014057600080fd5b5061015b6004803603810190610156919061044c565b610377565b6040516101689190610535565b60405180910390f35b60005481565b60026020528060005260406000206000915090505481565b60008061019a6101c9565b90506000670de0b6b3a764000084836101b391906106e4565b6101bd919061059c565b90508092505050919050565b600080738a753747a1fa494ec906ce90e9f37563a8af630e905060008173ffffffffffffffffffffffffffffffffffffffff1663feaf968c6040518163ffffffff1660e01b815260040160a06040518083038186803b15801561022b57600080fd5b505afa15801561023f573d6000803e3d6000fd5b505050506040513d601f19601f820116820180604052508101906102639190610479565b5050509150506402540be4008161027a91906105cd565b9250505090565b60005461028d3461018f565b10156102ce576040517f08c379a00000000000000000000000000000000000000000000000000000000081526004016102c590610550565b60405180910390fd5b6001339080600181540180825580915050600190039060005260206000200160009091909190916101000a81548173ffffffffffffffffffffffffffffffffffffffff021916908373ffffffffffffffffffffffffffffffffffffffff16021790555034600260003373ffffffffffffffffffffffffffffffffffffffff1673ffffffffffffffffffffffffffffffffffffffff16815260200190815260200160002081905550565b6001818154811061038757600080fd5b906000526020600020016000915054906101000a900473ffffffffffffffffffffffffffffffffffffffff1681565b6000813590506103c581610826565b92915050565b6000815190506103da8161083d565b92915050565b6000813590506103ef81610854565b92915050565b60008151905061040481610854565b92915050565b6000815190506104198161086b565b92915050565b600060208284031215610435576104346107f8565b5b6000610443848285016103b6565b91505092915050565b600060208284031215610462576104616107f8565b5b6000610470848285016103e0565b91505092915050565b600080600080600060a08688031215610495576104946107f8565b5b60006104a38882890161040a565b95505060206104b4888289016103cb565b94505060406104c5888289016103f5565b93505060606104d6888289016103f5565b92505060806104e78882890161040a565b9150509295509295909350565b6104fd8161073e565b82525050565b600061051060138361058b565b915061051b826107fd565b602082019050919050565b61052f8161077a565b82525050565b600060208201905061054a60008301846104f4565b92915050565b6000602082019050818103600083015261056981610503565b9050919050565b60006020820190506105856000830184610526565b92915050565b600082825260208201905092915050565b60006105a78261077a565b91506105b28361077a565b9250826105c2576105c16107c9565b5b828204905092915050565b60006105d882610750565b91506105e383610750565b9250827f7fffffffffffffffffffffffffffffffffffffffffffffffffffffffffffffff04821160008413600084131616156106225761062161079a565b5b817f8000000000000000000000000000000000000000000000000000000000000000058312600084126000841316161561065f5761065e61079a565b5b827f8000000000000000000000000000000000000000000000000000000000000000058212600084136000841216161561069c5761069b61079a565b5b827f7fffffffffffffffffffffffffffffffffffffffffffffffffffffffffffffff05821260008412600084121616156106d9576106d861079a565b5b828202905092915050565b60006106ef8261077a565b91506106fa8361077a565b9250817fffffffffffffffffffffffffffffffffffffffffffffffffffffffffffffffff04831182151516156107335761073261079a565b5b828202905092915050565b60006107498261075a565b9050919050565b6000819050919050565b600073ffffffffffffffffffffffffffffffffffffffff82169050919050565b6000819050919050565b600069ffffffffffffffffffff82169050919050565b7f4e487b7100000000000000000000000000000000000000000000000000000000600052601160045260246000fd5b7f4e487b7100000000000000000000000000000000000000000000000000000000600052601260045260246000fd5b600080fd5b7f4469646e27742073656e6420656e6f7567682100000000000000000000000000600082015250565b61082f8161073e565b811461083a57600080fd5b50565b61084681610750565b811461085157600080fd5b50565b61085d8161077a565b811461086857600080fd5b50565b61087481610784565b811461087f57600080fd5b5056fea2646970667358221220aecbd39bf34b8ca9bba437094f2c8842d6154845d792f7e232fae74f816775a464736f6c63430008070033",
					"opcodes": "PUSH1 0x80 PUSH1 0x40 MSTORE PUSH9 0x2B5E3AF16B1880000 PUSH1 0x0 SSTORE CALLVALUE DUP1 ISZERO PUSH2 0x1D JUMPI PUSH1 0x0 DUP1 REVERT JUMPDEST POP PUSH2 0x8B8 DUP1 PUSH2 0x2D PUSH1 0x0 CODECOPY PUSH1 0x0 RETURN INVALID PUSH1 0x80 PUSH1 0x40 MSTORE PUSH1 0x4 CALLDATASIZE LT PUSH2 0x55 JUMPI PUSH1 0x0 CALLDATALOAD PUSH1 0xE0 SHR DUP1 PUSH4 0x3430A88C EQ PUSH2 0x5A JUMPI DUP1 PUSH4 0x3E47D6F3 EQ PUSH2 0x85 JUMPI DUP1 PUSH4 0x6E5B6B28 EQ PUSH2 0xC2 JUMPI DUP1 PUSH4 0x98D5FDCA EQ PUSH2 0xFF JUMPI DUP1 PUSH4 0xB60D4288 EQ PUSH2 0x12A JUMPI DUP1 PUSH4 0xDC0D3DFF EQ PUSH2 0x134 JUMPI JUMPDEST PUSH1 0x0 DUP1 REVERT JUMPDEST CALLVALUE DUP1 ISZERO PUSH2 0x66 JUMPI PUSH1 0x0 DUP1 REVERT JUMPDEST POP PUSH2 0x6F PUSH2 0x171 JUMP JUMPDEST PUSH1 0x40 MLOAD PUSH2 0x7C SWAP2 SWAP1 PUSH2 0x570 JUMP JUMPDEST PUSH1 0x40 MLOAD DUP1 SWAP2 SUB SWAP1 RETURN JUMPDEST CALLVALUE DUP1 ISZERO PUSH2 0x91 JUMPI PUSH1 0x0 DUP1 REVERT JUMPDEST POP PUSH2 0xAC PUSH1 0x4 DUP1 CALLDATASIZE SUB DUP2 ADD SWAP1 PUSH2 0xA7 SWAP2 SWAP1 PUSH2 0x41F JUMP JUMPDEST PUSH2 0x177 JUMP JUMPDEST PUSH1 0x40 MLOAD PUSH2 0xB9 SWAP2 SWAP1 PUSH2 0x570 JUMP JUMPDEST PUSH1 0x40 MLOAD DUP1 SWAP2 SUB SWAP1 RETURN JUMPDEST CALLVALUE DUP1 ISZERO PUSH2 0xCE JUMPI PUSH1 0x0 DUP1 REVERT JUMPDEST POP PUSH2 0xE9 PUSH1 0x4 DUP1 CALLDATASIZE SUB DUP2 ADD SWAP1 PUSH2 0xE4 SWAP2 SWAP1 PUSH2 0x44C JUMP JUMPDEST PUSH2 0x18F JUMP JUMPDEST PUSH1 0x40 MLOAD PUSH2 0xF6 SWAP2 SWAP1 PUSH2 0x570 JUMP JUMPDEST PUSH1 0x40 MLOAD DUP1 SWAP2 SUB SWAP1 RETURN JUMPDEST CALLVALUE DUP1 ISZERO PUSH2 0x10B JUMPI PUSH1 0x0 DUP1 REVERT JUMPDEST POP PUSH2 0x114 PUSH2 0x1C9 JUMP JUMPDEST PUSH1 0x40 MLOAD PUSH2 0x121 SWAP2 SWAP1 PUSH2 0x570 JUMP JUMPDEST PUSH1 0x40 MLOAD DUP1 SWAP2 SUB SWAP1 RETURN JUMPDEST PUSH2 0x132 PUSH2 0x281 JUMP JUMPDEST STOP JUMPDEST CALLVALUE DUP1 ISZERO PUSH2 0x140 JUMPI PUSH1 0x0 DUP1 REVERT JUMPDEST POP PUSH2 0x15B PUSH1 0x4 DUP1 CALLDATASIZE SUB DUP2 ADD SWAP1 PUSH2 0x156 SWAP2 SWAP1 PUSH2 0x44C JUMP JUMPDEST PUSH2 0x377 JUMP JUMPDEST PUSH1 0x40 MLOAD PUSH2 0x168 SWAP2 SWAP1 PUSH2 0x535 JUMP JUMPDEST PUSH1 0x40 MLOAD DUP1 SWAP2 SUB SWAP1 RETURN JUMPDEST PUSH1 0x0 SLOAD DUP2 JUMP JUMPDEST PUSH1 0x2 PUSH1 0x20 MSTORE DUP1 PUSH1 0x0 MSTORE PUSH1 0x40 PUSH1 0x0 KECCAK256 PUSH1 0x0 SWAP2 POP SWAP1 POP SLOAD DUP2 JUMP JUMPDEST PUSH1 0x0 DUP1 PUSH2 0x19A PUSH2 0x1C9 JUMP JUMPDEST SWAP1 POP PUSH1 0x0 PUSH8 0xDE0B6B3A7640000 DUP5 DUP4 PUSH2 0x1B3 SWAP2 SWAP1 PUSH2 0x6E4 JUMP JUMPDEST PUSH2 0x1BD SWAP2 SWAP1 PUSH2 0x59C JUMP JUMPDEST SWAP1 POP DUP1 SWAP3 POP POP POP SWAP2 SWAP1 POP JUMP JUMPDEST PUSH1 0x0 DUP1 PUSH20 0x8A753747A1FA494EC906CE90E9F37563A8AF630E SWAP1 POP PUSH1 0x0 DUP2 PUSH20 0xFFFFFFFFFFFFFFFFFFFFFFFFFFFFFFFFFFFFFFFF AND PUSH4 0xFEAF968C PUSH1 0x40 MLOAD DUP2 PUSH4 0xFFFFFFFF AND PUSH1 0xE0 SHL DUP2 MSTORE PUSH1 0x4 ADD PUSH1 0xA0 PUSH1 0x40 MLOAD DUP1 DUP4 SUB DUP2 DUP7 DUP1 EXTCODESIZE ISZERO DUP1 ISZERO PUSH2 0x22B JUMPI PUSH1 0x0 DUP1 REVERT JUMPDEST POP GAS STATICCALL ISZERO DUP1 ISZERO PUSH2 0x23F JUMPI RETURNDATASIZE PUSH1 0x0 DUP1 RETURNDATACOPY RETURNDATASIZE PUSH1 0x0 REVERT JUMPDEST POP POP POP POP PUSH1 0x40 MLOAD RETURNDATASIZE PUSH1 0x1F NOT PUSH1 0x1F DUP3 ADD AND DUP3 ADD DUP1 PUSH1 0x40 MSTORE POP DUP2 ADD SWAP1 PUSH2 0x263 SWAP2 SWAP1 PUSH2 0x479 JUMP JUMPDEST POP POP POP SWAP2 POP POP PUSH5 0x2540BE400 DUP2 PUSH2 0x27A SWAP2 SWAP1 PUSH2 0x5CD JUMP JUMPDEST SWAP3 POP POP POP SWAP1 JUMP JUMPDEST PUSH1 0x0 SLOAD PUSH2 0x28D CALLVALUE PUSH2 0x18F JUMP JUMPDEST LT ISZERO PUSH2 0x2CE JUMPI PUSH1 0x40 MLOAD PUSH32 0x8C379A000000000000000000000000000000000000000000000000000000000 DUP2 MSTORE PUSH1 0x4 ADD PUSH2 0x2C5 SWAP1 PUSH2 0x550 JUMP JUMPDEST PUSH1 0x40 MLOAD DUP1 SWAP2 SUB SWAP1 REVERT JUMPDEST PUSH1 0x1 CALLER SWAP1 DUP1 PUSH1 0x1 DUP2 SLOAD ADD DUP1 DUP3 SSTORE DUP1 SWAP2 POP POP PUSH1 0x1 SWAP1 SUB SWAP1 PUSH1 0x0 MSTORE PUSH1 0x20 PUSH1 0x0 KECCAK256 ADD PUSH1 0x0 SWAP1 SWAP2 SWAP1 SWAP2 SWAP1 SWAP2 PUSH2 0x100 EXP DUP2 SLOAD DUP2 PUSH20 0xFFFFFFFFFFFFFFFFFFFFFFFFFFFFFFFFFFFFFFFF MUL NOT AND SWAP1 DUP4 PUSH20 0xFFFFFFFFFFFFFFFFFFFFFFFFFFFFFFFFFFFFFFFF AND MUL OR SWAP1 SSTORE POP CALLVALUE PUSH1 0x2 PUSH1 0x0 CALLER PUSH20 0xFFFFFFFFFFFFFFFFFFFFFFFFFFFFFFFFFFFFFFFF AND PUSH20 0xFFFFFFFFFFFFFFFFFFFFFFFFFFFFFFFFFFFFFFFF AND DUP2 MSTORE PUSH1 0x20 ADD SWAP1 DUP2 MSTORE PUSH1 0x20 ADD PUSH1 0x0 KECCAK256 DUP2 SWAP1 SSTORE POP JUMP JUMPDEST PUSH1 0x1 DUP2 DUP2 SLOAD DUP2 LT PUSH2 0x387 JUMPI PUSH1 0x0 DUP1 REVERT JUMPDEST SWAP1 PUSH1 0x0 MSTORE PUSH1 0x20 PUSH1 0x0 KECCAK256 ADD PUSH1 0x0 SWAP2 POP SLOAD SWAP1 PUSH2 0x100 EXP SWAP1 DIV PUSH20 0xFFFFFFFFFFFFFFFFFFFFFFFFFFFFFFFFFFFFFFFF AND DUP2 JUMP JUMPDEST PUSH1 0x0 DUP2 CALLDATALOAD SWAP1 POP PUSH2 0x3C5 DUP2 PUSH2 0x826 JUMP JUMPDEST SWAP3 SWAP2 POP POP JUMP JUMPDEST PUSH1 0x0 DUP2 MLOAD SWAP1 POP PUSH2 0x3DA DUP2 PUSH2 0x83D JUMP JUMPDEST SWAP3 SWAP2 POP POP JUMP JUMPDEST PUSH1 0x0 DUP2 CALLDATALOAD SWAP1 POP PUSH2 0x3EF DUP2 PUSH2 0x854 JUMP JUMPDEST SWAP3 SWAP2 POP POP JUMP JUMPDEST PUSH1 0x0 DUP2 MLOAD SWAP1 POP PUSH2 0x404 DUP2 PUSH2 0x854 JUMP JUMPDEST SWAP3 SWAP2 POP POP JUMP JUMPDEST PUSH1 0x0 DUP2 MLOAD SWAP1 POP PUSH2 0x419 DUP2 PUSH2 0x86B JUMP JUMPDEST SWAP3 SWAP2 POP POP JUMP JUMPDEST PUSH1 0x0 PUSH1 0x20 DUP3 DUP5 SUB SLT ISZERO PUSH2 0x435 JUMPI PUSH2 0x434 PUSH2 0x7F8 JUMP JUMPDEST JUMPDEST PUSH1 0x0 PUSH2 0x443 DUP5 DUP3 DUP6 ADD PUSH2 0x3B6 JUMP JUMPDEST SWAP2 POP POP SWAP3 SWAP2 POP POP JUMP JUMPDEST PUSH1 0x0 PUSH1 0x20 DUP3 DUP5 SUB SLT ISZERO PUSH2 0x462 JUMPI PUSH2 0x461 PUSH2 0x7F8 JUMP JUMPDEST JUMPDEST PUSH1 0x0 PUSH2 0x470 DUP5 DUP3 DUP6 ADD PUSH2 0x3E0 JUMP JUMPDEST SWAP2 POP POP SWAP3 SWAP2 POP POP JUMP JUMPDEST PUSH1 0x0 DUP1 PUSH1 0x0 DUP1 PUSH1 0x0 PUSH1 0xA0 DUP7 DUP9 SUB SLT ISZERO PUSH2 0x495 JUMPI PUSH2 0x494 PUSH2 0x7F8 JUMP JUMPDEST JUMPDEST PUSH1 0x0 PUSH2 0x4A3 DUP9 DUP3 DUP10 ADD PUSH2 0x40A JUMP JUMPDEST SWAP6 POP POP PUSH1 0x20 PUSH2 0x4B4 DUP9 DUP3 DUP10 ADD PUSH2 0x3CB JUMP JUMPDEST SWAP5 POP POP PUSH1 0x40 PUSH2 0x4C5 DUP9 DUP3 DUP10 ADD PUSH2 0x3F5 JUMP JUMPDEST SWAP4 POP POP PUSH1 0x60 PUSH2 0x4D6 DUP9 DUP3 DUP10 ADD PUSH2 0x3F5 JUMP JUMPDEST SWAP3 POP POP PUSH1 0x80 PUSH2 0x4E7 DUP9 DUP3 DUP10 ADD PUSH2 0x40A JUMP JUMPDEST SWAP2 POP POP SWAP3 SWAP6 POP SWAP3 SWAP6 SWAP1 SWAP4 POP JUMP JUMPDEST PUSH2 0x4FD DUP2 PUSH2 0x73E JUMP JUMPDEST DUP3 MSTORE POP POP JUMP JUMPDEST PUSH1 0x0 PUSH2 0x510 PUSH1 0x13 DUP4 PUSH2 0x58B JUMP JUMPDEST SWAP2 POP PUSH2 0x51B DUP3 PUSH2 0x7FD JUMP JUMPDEST PUSH1 0x20 DUP3 ADD SWAP1 POP SWAP2 SWAP1 POP JUMP JUMPDEST PUSH2 0x52F DUP2 PUSH2 0x77A JUMP JUMPDEST DUP3 MSTORE POP POP JUMP JUMPDEST PUSH1 0x0 PUSH1 0x20 DUP3 ADD SWAP1 POP PUSH2 0x54A PUSH1 0x0 DUP4 ADD DUP5 PUSH2 0x4F4 JUMP JUMPDEST SWAP3 SWAP2 POP POP JUMP JUMPDEST PUSH1 0x0 PUSH1 0x20 DUP3 ADD SWAP1 POP DUP2 DUP2 SUB PUSH1 0x0 DUP4 ADD MSTORE PUSH2 0x569 DUP2 PUSH2 0x503 JUMP JUMPDEST SWAP1 POP SWAP2 SWAP1 POP JUMP JUMPDEST PUSH1 0x0 PUSH1 0x20 DUP3 ADD SWAP1 POP PUSH2 0x585 PUSH1 0x0 DUP4 ADD DUP5 PUSH2 0x526 JUMP JUMPDEST SWAP3 SWAP2 POP POP JUMP JUMPDEST PUSH1 0x0 DUP3 DUP3 MSTORE PUSH1 0x20 DUP3 ADD SWAP1 POP SWAP3 SWAP2 POP POP JUMP JUMPDEST PUSH1 0x0 PUSH2 0x5A7 DUP3 PUSH2 0x77A JUMP JUMPDEST SWAP2 POP PUSH2 0x5B2 DUP4 PUSH2 0x77A JUMP JUMPDEST SWAP3 POP DUP3 PUSH2 0x5C2 JUMPI PUSH2 0x5C1 PUSH2 0x7C9 JUMP JUMPDEST JUMPDEST DUP3 DUP3 DIV SWAP1 POP SWAP3 SWAP2 POP POP JUMP JUMPDEST PUSH1 0x0 PUSH2 0x5D8 DUP3 PUSH2 0x750 JUMP JUMPDEST SWAP2 POP PUSH2 0x5E3 DUP4 PUSH2 0x750 JUMP JUMPDEST SWAP3 POP DUP3 PUSH32 0x7FFFFFFFFFFFFFFFFFFFFFFFFFFFFFFFFFFFFFFFFFFFFFFFFFFFFFFFFFFFFFFF DIV DUP3 GT PUSH1 0x0 DUP5 SGT PUSH1 0x0 DUP5 SGT AND AND ISZERO PUSH2 0x622 JUMPI PUSH2 0x621 PUSH2 0x79A JUMP JUMPDEST JUMPDEST DUP2 PUSH32 0x8000000000000000000000000000000000000000000000000000000000000000 SDIV DUP4 SLT PUSH1 0x0 DUP5 SLT PUSH1 0x0 DUP5 SGT AND AND ISZERO PUSH2 0x65F JUMPI PUSH2 0x65E PUSH2 0x79A JUMP JUMPDEST JUMPDEST DUP3 PUSH32 0x8000000000000000000000000000000000000000000000000000000000000000 SDIV DUP3 SLT PUSH1 0x0 DUP5 SGT PUSH1 0x0 DUP5 SLT AND AND ISZERO PUSH2 0x69C JUMPI PUSH2 0x69B PUSH2 0x79A JUMP JUMPDEST JUMPDEST DUP3 PUSH32 0x7FFFFFFFFFFFFFFFFFFFFFFFFFFFFFFFFFFFFFFFFFFFFFFFFFFFFFFFFFFFFFFF SDIV DUP3 SLT PUSH1 0x0 DUP5 SLT PUSH1 0x0 DUP5 SLT AND AND ISZERO PUSH2 0x6D9 JUMPI PUSH2 0x6D8 PUSH2 0x79A JUMP JUMPDEST JUMPDEST DUP3 DUP3 MUL SWAP1 POP SWAP3 SWAP2 POP POP JUMP JUMPDEST PUSH1 0x0 PUSH2 0x6EF DUP3 PUSH2 0x77A JUMP JUMPDEST SWAP2 POP PUSH2 0x6FA DUP4 PUSH2 0x77A JUMP JUMPDEST SWAP3 POP DUP2 PUSH32 0xFFFFFFFFFFFFFFFFFFFFFFFFFFFFFFFFFFFFFFFFFFFFFFFFFFFFFFFFFFFFFFFF DIV DUP4 GT DUP3 ISZERO ISZERO AND ISZERO PUSH2 0x733 JUMPI PUSH2 0x732 PUSH2 0x79A JUMP JUMPDEST JUMPDEST DUP3 DUP3 MUL SWAP1 POP SWAP3 SWAP2 POP POP JUMP JUMPDEST PUSH1 0x0 PUSH2 0x749 DUP3 PUSH2 0x75A JUMP JUMPDEST SWAP1 POP SWAP2 SWAP1 POP JUMP JUMPDEST PUSH1 0x0 DUP2 SWAP1 POP SWAP2 SWAP1 POP JUMP JUMPDEST PUSH1 0x0 PUSH20 0xFFFFFFFFFFFFFFFFFFFFFFFFFFFFFFFFFFFFFFFF DUP3 AND SWAP1 POP SWAP2 SWAP1 POP JUMP JUMPDEST PUSH1 0x0 DUP2 SWAP1 POP SWAP2 SWAP1 POP JUMP JUMPDEST PUSH1 0x0 PUSH10 0xFFFFFFFFFFFFFFFFFFFF DUP3 AND SWAP1 POP SWAP2 SWAP1 POP JUMP JUMPDEST PUSH32 0x4E487B7100000000000000000000000000000000000000000000000000000000 PUSH1 0x0 MSTORE PUSH1 0x11 PUSH1 0x4 MSTORE PUSH1 0x24 PUSH1 0x0 REVERT JUMPDEST PUSH32 0x4E487B7100000000000000000000000000000000000000000000000000000000 PUSH1 0x0 MSTORE PUSH1 0x12 PUSH1 0x4 MSTORE PUSH1 0x24 PUSH1 0x0 REVERT JUMPDEST PUSH1 0x0 DUP1 REVERT JUMPDEST PUSH32 0x4469646E27742073656E6420656E6F7567682100000000000000000000000000 PUSH1 0x0 DUP3 ADD MSTORE POP JUMP JUMPDEST PUSH2 0x82F DUP2 PUSH2 0x73E JUMP JUMPDEST DUP2 EQ PUSH2 0x83A JUMPI PUSH1 0x0 DUP1 REVERT JUMPDEST POP JUMP JUMPDEST PUSH2 0x846 DUP2 PUSH2 0x750 JUMP JUMPDEST DUP2 EQ PUSH2 0x851 JUMPI PUSH1 0x0 DUP1 REVERT JUMPDEST POP JUMP JUMPDEST PUSH2 0x85D DUP2 PUSH2 0x77A JUMP JUMPDEST DUP2 EQ PUSH2 0x868 JUMPI PUSH1 0x0 DUP1 REVERT JUMPDEST POP JUMP JUMPDEST PUSH2 0x874 DUP2 PUSH2 0x784 JUMP JUMPDEST DUP2 EQ PUSH2 0x87F JUMPI PUSH1 0x0 DUP1 REVERT JUMPDEST POP JUMP INVALID LOG2 PUSH5 0x6970667358 0x22 SLT KECCAK256 0xAE 0xCB 0xD3 SWAP12 RETURN 0x4B DUP13 0xA9 0xBB LOG4 CALLDATACOPY MULMOD 0x4F 0x2C DUP9 TIMESTAMP 0xD6 ISZERO BASEFEE GASLIMIT 0xD7 SWAP3 0xF7 0xE2 ORIGIN STATICCALL 0xE7 0x4F DUP2 PUSH8 0x75A464736F6C6343 STOP ADDMOD SMOD STOP CALLER "
				},
				"gasEstimates": {
					"creation": {
						"codeDepositCost": "446400",
						"executionCost": "22586",
						"totalCost": "468986"
					},
					"external": {
						"addressToAmountFunded(address)": "2814",
						"fund()": "infinite",
						"funders(uint256)": "5044",
						"getConversionRate(uint256)": "infinite",
						"getPrice()": "infinite",
						"minimumUSD()": "2407"
					}
				},
				"methodIdentifiers": {
					"addressToAmountFunded(address)": "3e47d6f3",
					"fund()": "b60d4288",
					"funders(uint256)": "dc0d3dff",
					"getConversionRate(uint256)": "6e5b6b28",
					"getPrice()": "98d5fdca",
					"minimumUSD()": "3430a88c"
				}
			},
			"storageLayout": {
				"storage": [
					{
						"astId": 53,
						"contract": "FundMe.sol:FundMe",
						"label": "minimumUSD",
						"offset": 0,
						"slot": "0",
						"type": "t_uint256"
					},
					{
						"astId": 56,
						"contract": "FundMe.sol:FundMe",
						"label": "funders",
						"offset": 0,
						"slot": "1",
						"type": "t_array(t_address)dyn_storage"
					},
					{
						"astId": 60,
						"contract": "FundMe.sol:FundMe",
						"label": "addressToAmountFunded",
						"offset": 0,
						"slot": "2",
						"type": "t_mapping(t_address,t_uint256)"
					}
				],
				"types": {
					"t_address": {
						"encoding": "inplace",
						"label": "address",
						"numberOfBytes": "20"
					},
					"t_array(t_address)dyn_storage": {
						"base": "t_address",
						"encoding": "dynamic_array",
						"label": "address[]",
						"numberOfBytes": "32"
					},
					"t_mapping(t_address,t_uint256)": {
						"encoding": "mapping",
						"key": "t_address",
						"label": "mapping(address => uint256)",
						"numberOfBytes": "32",
						"value": "t_uint256"
					},
					"t_uint256": {
						"encoding": "inplace",
						"label": "uint256",
						"numberOfBytes": "32"
					}
				}
			},
			"userdoc": {
				"kind": "user",
				"methods": {},
				"version": 1
			}
		}
	}
}