{
	"FundMe.sol": {
		"FundMe": {
			"abi": [
				{
					"inputs": [
						{
							"internalType": "address",
							"name": "",
							"type": "address"
						}
					],
					"name": "addressToAmountFunded",
					"outputs": [
						{
							"internalType": "uint256",
							"name": "",
							"type": "uint256"
						}
					],
					"stateMutability": "view",
					"type": "function"
				},
				{
					"inputs": [],
					"name": "fund",
					"outputs": [],
					"stateMutability": "payable",
					"type": "function"
				},
				{
					"inputs": [
						{
							"internalType": "uint256",
							"name": "",
							"type": "uint256"
						}
					],
					"name": "funders",
					"outputs": [
						{
							"internalType": "address",
							"name": "",
							"type": "address"
						}
					],
					"stateMutability": "view",
					"type": "function"
				},
				{
					"inputs": [],
					"name": "minimumUSD",
					"outputs": [
						{
							"internalType": "uint256",
							"name": "",
							"type": "uint256"
						}
					],
					"stateMutability": "view",
					"type": "function"
				},
				{
					"inputs": [],
					"name": "withdraw",
					"outputs": [],
					"stateMutability": "nonpayable",
					"type": "function"
				}
			],
			"devdoc": {
				"kind": "dev",
				"methods": {},
				"version": 1
			},
			"evm": {
				"assembly": "    /* \"FundMe.sol\":344:1498  contract FundMe {\r... */\n  mstore(0x40, 0x80)\n    /* \"FundMe.sol\":547:556  50 * 1e18 */\n  0x02b5e3af16b1880000\n    /* \"FundMe.sol\":519:556  uint256 public minimumUSD = 50 * 1e18 */\n  0x00\n  sstore\n    /* \"FundMe.sol\":344:1498  contract FundMe {\r... */\n  callvalue\n  dup1\n  iszero\n  tag_1\n  jumpi\n  0x00\n  dup1\n  revert\ntag_1:\n  pop\n  dataSize(sub_0)\n  dup1\n  dataOffset(sub_0)\n  0x00\n  codecopy\n  0x00\n  return\nstop\n\nsub_0: assembly {\n        /* \"FundMe.sol\":344:1498  contract FundMe {\r... */\n      mstore(0x40, 0x80)\n      jumpi(tag_1, lt(calldatasize, 0x04))\n      shr(0xe0, calldataload(0x00))\n      dup1\n      0x3430a88c\n      eq\n      tag_2\n      jumpi\n      dup1\n      0x3ccfd60b\n      eq\n      tag_3\n      jumpi\n      dup1\n      0x3e47d6f3\n      eq\n      tag_4\n      jumpi\n      dup1\n      0xb60d4288\n      eq\n      tag_5\n      jumpi\n      dup1\n      0xdc0d3dff\n      eq\n      tag_6\n      jumpi\n    tag_1:\n      0x00\n      dup1\n      revert\n        /* \"FundMe.sol\":519:556  uint256 public minimumUSD = 50 * 1e18 */\n    tag_2:\n      callvalue\n      dup1\n      iszero\n      tag_7\n      jumpi\n      0x00\n      dup1\n      revert\n    tag_7:\n      pop\n      tag_8\n      tag_9\n      jump\t// in\n    tag_8:\n      mload(0x40)\n      tag_10\n      swap2\n      swap1\n      tag_11\n      jump\t// in\n    tag_10:\n      mload(0x40)\n      dup1\n      swap2\n      sub\n      swap1\n      return\n        /* \"FundMe.sol\":1007:1495  function withdraw() public {\r... */\n    tag_3:\n      callvalue\n      dup1\n      iszero\n      tag_12\n      jumpi\n      0x00\n      dup1\n      revert\n    tag_12:\n      pop\n      tag_13\n      tag_14\n      jump\t// in\n    tag_13:\n      stop\n        /* \"FundMe.sol\":596:652  mapping(address => uint256) public addressToAmountFunded */\n    tag_4:\n      callvalue\n      dup1\n      iszero\n      tag_15\n      jumpi\n      0x00\n      dup1\n      revert\n    tag_15:\n      pop\n      tag_16\n      0x04\n      dup1\n      calldatasize\n      sub\n      dup2\n      add\n      swap1\n      tag_17\n      swap2\n      swap1\n      tag_18\n      jump\t// in\n    tag_17:\n      tag_19\n      jump\t// in\n    tag_16:\n      mload(0x40)\n      tag_20\n      swap2\n      swap1\n      tag_11\n      jump\t// in\n    tag_20:\n      mload(0x40)\n      dup1\n      swap2\n      sub\n      swap1\n      return\n        /* \"FundMe.sol\":661:999  function fund() public payable {\r... */\n    tag_5:\n      tag_21\n      tag_22\n      jump\t// in\n    tag_21:\n      stop\n        /* \"FundMe.sol\":565:589  address[] public funders */\n    tag_6:\n      callvalue\n      dup1\n      iszero\n      tag_23\n      jumpi\n      0x00\n      dup1\n      revert\n    tag_23:\n      pop\n      tag_24\n      0x04\n      dup1\n      calldatasize\n      sub\n      dup2\n      add\n      swap1\n      tag_25\n      swap2\n      swap1\n      tag_26\n      jump\t// in\n    tag_25:\n      tag_27\n      jump\t// in\n    tag_24:\n      mload(0x40)\n      tag_28\n      swap2\n      swap1\n      tag_29\n      jump\t// in\n    tag_28:\n      mload(0x40)\n      dup1\n      swap2\n      sub\n      swap1\n      return\n        /* \"FundMe.sol\":519:556  uint256 public minimumUSD = 50 * 1e18 */\n    tag_9:\n      sload(0x00)\n      dup2\n      jump\t// out\n        /* \"FundMe.sol\":1007:1495  function withdraw() public {\r... */\n    tag_14:\n        /* \"FundMe.sol\":1051:1068  uint256 fundIndex */\n      0x00\n        /* \"FundMe.sol\":1047:1225  for(uint256 fundIndex = 0; fundIndex < funders.length; fundIndex++) {\r... */\n    tag_31:\n        /* \"FundMe.sol\":1086:1093  funders */\n      0x01\n        /* \"FundMe.sol\":1086:1100  funders.length */\n      dup1\n      sload\n      swap1\n      pop\n        /* \"FundMe.sol\":1074:1083  fundIndex */\n      dup2\n        /* \"FundMe.sol\":1074:1100  fundIndex < funders.length */\n      lt\n        /* \"FundMe.sol\":1047:1225  for(uint256 fundIndex = 0; fundIndex < funders.length; fundIndex++) {\r... */\n      iszero\n      tag_32\n      jumpi\n        /* \"FundMe.sol\":1130:1144  address funder */\n      0x00\n        /* \"FundMe.sol\":1147:1154  funders */\n      0x01\n        /* \"FundMe.sol\":1155:1164  fundIndex */\n      dup3\n        /* \"FundMe.sol\":1147:1165  funders[fundIndex] */\n      dup2\n      sload\n      dup2\n      lt\n      tag_34\n      jumpi\n      tag_35\n      tag_36\n      jump\t// in\n    tag_35:\n    tag_34:\n      swap1\n      0x00\n      mstore\n      keccak256(0x00, 0x20)\n      add\n      0x00\n      swap1\n      sload\n      swap1\n      0x0100\n      exp\n      swap1\n      div\n      0xffffffffffffffffffffffffffffffffffffffff\n      and\n        /* \"FundMe.sol\":1130:1165  address funder = funders[fundIndex] */\n      swap1\n      pop\n        /* \"FundMe.sol\":1212:1213  0 */\n      0x00\n        /* \"FundMe.sol\":1180:1201  addressToAmountFunded */\n      0x02\n        /* \"FundMe.sol\":1180:1209  addressToAmountFunded[funder] */\n      0x00\n        /* \"FundMe.sol\":1202:1208  funder */\n      dup4\n        /* \"FundMe.sol\":1180:1209  addressToAmountFunded[funder] */\n      0xffffffffffffffffffffffffffffffffffffffff\n      and\n      0xffffffffffffffffffffffffffffffffffffffff\n      and\n      dup2\n      mstore\n      0x20\n      add\n      swap1\n      dup2\n      mstore\n      0x20\n      add\n      0x00\n      keccak256\n        /* \"FundMe.sol\":1180:1213  addressToAmountFunded[funder] = 0 */\n      dup2\n      swap1\n      sstore\n      pop\n        /* \"FundMe.sol\":1115:1225  {\r... */\n      pop\n        /* \"FundMe.sol\":1102:1113  fundIndex++ */\n      dup1\n      dup1\n      tag_38\n      swap1\n      tag_39\n      jump\t// in\n    tag_38:\n      swap2\n      pop\n      pop\n        /* \"FundMe.sol\":1047:1225  for(uint256 fundIndex = 0; fundIndex < funders.length; fundIndex++) {\r... */\n      jump(tag_31)\n    tag_32:\n      pop\n        /* \"FundMe.sol\":1306:1307  0 */\n      0x00\n        /* \"FundMe.sol\":1292:1308  new address[](0) */\n      0xffffffffffffffff\n      dup2\n      gt\n      iszero\n      tag_40\n      jumpi\n      tag_41\n      tag_42\n      jump\t// in\n    tag_41:\n    tag_40:\n      mload(0x40)\n      swap1\n      dup1\n      dup3\n      mstore\n      dup1\n      0x20\n      mul\n      0x20\n      add\n      dup3\n      add\n      0x40\n      mstore\n      dup1\n      iszero\n      tag_43\n      jumpi\n      dup2\n      0x20\n      add\n      0x20\n      dup3\n      mul\n      dup1\n      calldatasize\n      dup4\n      calldatacopy\n      dup1\n      dup3\n      add\n      swap2\n      pop\n      pop\n      swap1\n      pop\n    tag_43:\n      pop\n        /* \"FundMe.sol\":1282:1289  funders */\n      0x01\n        /* \"FundMe.sol\":1282:1308  funders = new address[](0) */\n      swap1\n      dup1\n      mload\n      swap1\n      0x20\n      add\n      swap1\n      tag_44\n      swap3\n      swap2\n      swap1\n      tag_45\n      jump\t// in\n    tag_44:\n      pop\n        /* \"FundMe.sol\":1353:1369  bool callSuccess */\n      0x00\n        /* \"FundMe.sol\":1383:1393  msg.sender */\n      caller\n        /* \"FundMe.sol\":1375:1399  payable(msg.sender).call */\n      0xffffffffffffffffffffffffffffffffffffffff\n      and\n        /* \"FundMe.sol\":1407:1428  address(this).balance */\n      selfbalance\n        /* \"FundMe.sol\":1375:1433  payable(msg.sender).call{value: address(this).balance}(\"\") */\n      mload(0x40)\n      tag_46\n      swap1\n      tag_47\n      jump\t// in\n    tag_46:\n      0x00\n      mload(0x40)\n      dup1\n      dup4\n      sub\n      dup2\n      dup6\n      dup8\n      gas\n      call\n      swap3\n      pop\n      pop\n      pop\n      returndatasize\n      dup1\n      0x00\n      dup2\n      eq\n      tag_50\n      jumpi\n      mload(0x40)\n      swap2\n      pop\n      and(add(returndatasize, 0x3f), not(0x1f))\n      dup3\n      add\n      0x40\n      mstore\n      returndatasize\n      dup3\n      mstore\n      returndatasize\n      0x00\n      0x20\n      dup5\n      add\n      returndatacopy\n      jump(tag_49)\n    tag_50:\n      0x60\n      swap2\n      pop\n    tag_49:\n      pop\n        /* \"FundMe.sol\":1352:1433  (bool callSuccess, ) = payable(msg.sender).call{value: address(this).balance}(\"\") */\n      pop\n      swap1\n      pop\n        /* \"FundMe.sol\":1452:1463  callSuccess */\n      dup1\n        /* \"FundMe.sol\":1444:1479  require(callSuccess, \"Call failed\") */\n      tag_51\n      jumpi\n      mload(0x40)\n      0x08c379a000000000000000000000000000000000000000000000000000000000\n      dup2\n      mstore\n      0x04\n      add\n      tag_52\n      swap1\n      tag_53\n      jump\t// in\n    tag_52:\n      mload(0x40)\n      dup1\n      swap2\n      sub\n      swap1\n      revert\n    tag_51:\n        /* \"FundMe.sol\":1034:1495  {\r... */\n      pop\n        /* \"FundMe.sol\":1007:1495  function withdraw() public {\r... */\n      jump\t// out\n        /* \"FundMe.sol\":596:652  mapping(address => uint256) public addressToAmountFunded */\n    tag_19:\n      mstore(0x20, 0x02)\n      dup1\n      0x00\n      mstore\n      keccak256(0x00, 0x40)\n      0x00\n      swap2\n      pop\n      swap1\n      pop\n      sload\n      dup2\n      jump\t// out\n        /* \"FundMe.sol\":661:999  function fund() public payable {\r... */\n    tag_22:\n        /* \"FundMe.sol\":863:873  minimumUSD */\n      sload(0x00)\n        /* \"FundMe.sol\":830:859  msg.value.getConversionRate() */\n      tag_55\n        /* \"FundMe.sol\":830:839  msg.value */\n      callvalue\n        /* \"FundMe.sol\":830:857  msg.value.getConversionRate */\n      tag_56\n        /* \"FundMe.sol\":830:859  msg.value.getConversionRate() */\n      jump\t// in\n    tag_55:\n        /* \"FundMe.sol\":830:873  msg.value.getConversionRate() >= minimumUSD */\n      lt\n      iszero\n        /* \"FundMe.sol\":822:897  require(msg.value.getConversionRate() >= minimumUSD, \"Didn't send enough!\") */\n      tag_57\n      jumpi\n      mload(0x40)\n      0x08c379a000000000000000000000000000000000000000000000000000000000\n      dup2\n      mstore\n      0x04\n      add\n      tag_58\n      swap1\n      tag_59\n      jump\t// in\n    tag_58:\n      mload(0x40)\n      dup1\n      swap2\n      sub\n      swap1\n      revert\n    tag_57:\n        /* \"FundMe.sol\":908:915  funders */\n      0x01\n        /* \"FundMe.sol\":921:931  msg.sender */\n      caller\n        /* \"FundMe.sol\":908:932  funders.push(msg.sender) */\n      swap1\n      dup1\n      0x01\n      dup2\n      sload\n      add\n      dup1\n      dup3\n      sstore\n      dup1\n      swap2\n      pop\n      pop\n      0x01\n      swap1\n      sub\n      swap1\n      0x00\n      mstore\n      keccak256(0x00, 0x20)\n      add\n      0x00\n      swap1\n      swap2\n      swap1\n      swap2\n      swap1\n      swap2\n      0x0100\n      exp\n      dup2\n      sload\n      dup2\n      0xffffffffffffffffffffffffffffffffffffffff\n      mul\n      not\n      and\n      swap1\n      dup4\n      0xffffffffffffffffffffffffffffffffffffffff\n      and\n      mul\n      or\n      swap1\n      sstore\n      pop\n        /* \"FundMe.sol\":980:989  msg.value */\n      callvalue\n        /* \"FundMe.sol\":943:964  addressToAmountFunded */\n      0x02\n        /* \"FundMe.sol\":943:976  addressToAmountFunded[msg.sender] */\n      0x00\n        /* \"FundMe.sol\":965:975  msg.sender */\n      caller\n        /* \"FundMe.sol\":943:976  addressToAmountFunded[msg.sender] */\n      0xffffffffffffffffffffffffffffffffffffffff\n      and\n      0xffffffffffffffffffffffffffffffffffffffff\n      and\n      dup2\n      mstore\n      0x20\n      add\n      swap1\n      dup2\n      mstore\n      0x20\n      add\n      0x00\n      keccak256\n      0x00\n        /* \"FundMe.sol\":943:989  addressToAmountFunded[msg.sender] += msg.value */\n      dup3\n      dup3\n      sload\n      tag_61\n      swap2\n      swap1\n      tag_62\n      jump\t// in\n    tag_61:\n      swap3\n      pop\n      pop\n      dup2\n      swap1\n      sstore\n      pop\n        /* \"FundMe.sol\":661:999  function fund() public payable {\r... */\n      jump\t// out\n        /* \"FundMe.sol\":565:589  address[] public funders */\n    tag_27:\n      0x01\n      dup2\n      dup2\n      sload\n      dup2\n      lt\n      tag_63\n      jumpi\n      0x00\n      dup1\n      revert\n    tag_63:\n      swap1\n      0x00\n      mstore\n      keccak256(0x00, 0x20)\n      add\n      0x00\n      swap2\n      pop\n      sload\n      swap1\n      0x0100\n      exp\n      swap1\n      div\n      0xffffffffffffffffffffffffffffffffffffffff\n      and\n      dup2\n      jump\t// out\n        /* \"PriceConverter.sol\":1471:2180  function getConversionRate(uint256 ethAmount) internal view returns (uint256) {\r... */\n    tag_56:\n        /* \"PriceConverter.sol\":1540:1547  uint256 */\n      0x00\n        /* \"PriceConverter.sol\":1998:2014  uint256 ethPrice */\n      dup1\n        /* \"PriceConverter.sol\":2017:2027  getPrice() */\n      tag_66\n        /* \"PriceConverter.sol\":2017:2025  getPrice */\n      tag_67\n        /* \"PriceConverter.sol\":2017:2027  getPrice() */\n      jump\t// in\n    tag_66:\n        /* \"PriceConverter.sol\":1998:2027  uint256 ethPrice = getPrice() */\n      swap1\n      pop\n        /* \"PriceConverter.sol\":2085:2107  uint256 ethAmountInUSD */\n      0x00\n        /* \"PriceConverter.sol\":2135:2139  1e18 */\n      0x0de0b6b3a7640000\n        /* \"PriceConverter.sol\":2122:2131  ethAmount */\n      dup5\n        /* \"PriceConverter.sol\":2111:2119  ethPrice */\n      dup4\n        /* \"PriceConverter.sol\":2111:2131  ethPrice * ethAmount */\n      tag_68\n      swap2\n      swap1\n      tag_69\n      jump\t// in\n    tag_68:\n        /* \"PriceConverter.sol\":2110:2139  (ethPrice * ethAmount) / 1e18 */\n      tag_70\n      swap2\n      swap1\n      tag_71\n      jump\t// in\n    tag_70:\n        /* \"PriceConverter.sol\":2085:2139  uint256 ethAmountInUSD = (ethPrice * ethAmount) / 1e18 */\n      swap1\n      pop\n        /* \"PriceConverter.sol\":2158:2172  ethAmountInUSD */\n      dup1\n        /* \"PriceConverter.sol\":2151:2172  return ethAmountInUSD */\n      swap3\n      pop\n      pop\n      pop\n        /* \"PriceConverter.sol\":1471:2180  function getConversionRate(uint256 ethAmount) internal view returns (uint256) {\r... */\n      swap2\n      swap1\n      pop\n      jump\t// out\n        /* \"PriceConverter.sol\":437:989  function getPrice() internal view returns (uint256) {\r... */\n    tag_67:\n        /* \"PriceConverter.sol\":480:487  uint256 */\n      0x00\n        /* \"PriceConverter.sol\":651:682  AggregatorV3Interface priceFeed */\n      dup1\n        /* \"PriceConverter.sol\":707:749  0x8A753747A1Fa494EC906cE90E9f37563A8AF630e */\n      0x8a753747a1fa494ec906ce90e9f37563a8af630e\n        /* \"PriceConverter.sol\":651:750  AggregatorV3Interface priceFeed = AggregatorV3Interface(0x8A753747A1Fa494EC906cE90E9f37563A8AF630e) */\n      swap1\n      pop\n        /* \"PriceConverter.sol\":796:808  int256 price */\n      0x00\n        /* \"PriceConverter.sol\":857:866  priceFeed */\n      dup2\n        /* \"PriceConverter.sol\":857:882  priceFeed.latestRoundData */\n      0xffffffffffffffffffffffffffffffffffffffff\n      and\n      0xfeaf968c\n        /* \"PriceConverter.sol\":857:884  priceFeed.latestRoundData() */\n      mload(0x40)\n      dup2\n      0xffffffff\n      and\n      0xe0\n      shl\n      dup2\n      mstore\n      0x04\n      add\n      0xa0\n      mload(0x40)\n      dup1\n      dup4\n      sub\n      dup2\n      dup7\n      dup1\n      extcodesize\n      iszero\n      dup1\n      iszero\n      tag_73\n      jumpi\n      0x00\n      dup1\n      revert\n    tag_73:\n      pop\n      gas\n      staticcall\n      iszero\n      dup1\n      iszero\n      tag_75\n      jumpi\n      returndatasize\n      0x00\n      dup1\n      returndatacopy\n      revert(0x00, returndatasize)\n    tag_75:\n      pop\n      pop\n      pop\n      pop\n      mload(0x40)\n      returndatasize\n      not(0x1f)\n      0x1f\n      dup3\n      add\n      and\n      dup3\n      add\n      dup1\n      0x40\n      mstore\n      pop\n      dup2\n      add\n      swap1\n      tag_76\n      swap2\n      swap1\n      tag_77\n      jump\t// in\n    tag_76:\n        /* \"PriceConverter.sol\":761:884  (     \r... */\n      pop\n      pop\n      pop\n      swap2\n      pop\n      pop\n        /* \"PriceConverter.sol\":976:980  1e10 */\n      0x02540be400\n        /* \"PriceConverter.sol\":968:973  price */\n      dup2\n        /* \"PriceConverter.sol\":968:980  price * 1e10 */\n      tag_78\n      swap2\n      swap1\n      tag_79\n      jump\t// in\n    tag_78:\n        /* \"PriceConverter.sol\":953:981  return uint256(price * 1e10) */\n      swap3\n      pop\n      pop\n      pop\n        /* \"PriceConverter.sol\":437:989  function getPrice() internal view returns (uint256) {\r... */\n      swap1\n      jump\t// out\n    tag_45:\n      dup3\n      dup1\n      sload\n      dup3\n      dup3\n      sstore\n      swap1\n      0x00\n      mstore\n      keccak256(0x00, 0x20)\n      swap1\n      dup2\n      add\n      swap3\n      dup3\n      iszero\n      tag_80\n      jumpi\n      swap2\n      0x20\n      mul\n      dup3\n      add\n    tag_81:\n      dup3\n      dup2\n      gt\n      iszero\n      tag_82\n      jumpi\n      dup3\n      mload\n      dup3\n      exp(0x0100, 0x00)\n      dup2\n      sload\n      dup2\n      0xffffffffffffffffffffffffffffffffffffffff\n      mul\n      not\n      and\n      swap1\n      dup4\n      0xffffffffffffffffffffffffffffffffffffffff\n      and\n      mul\n      or\n      swap1\n      sstore\n      pop\n      swap2\n      0x20\n      add\n      swap2\n      swap1\n      0x01\n      add\n      swap1\n      jump(tag_81)\n    tag_82:\n    tag_80:\n      pop\n      swap1\n      pop\n      tag_83\n      swap2\n      swap1\n      tag_84\n      jump\t// in\n    tag_83:\n      pop\n      swap1\n      jump\t// out\n    tag_84:\n    tag_85:\n      dup1\n      dup3\n      gt\n      iszero\n      tag_86\n      jumpi\n      0x00\n      dup2\n      0x00\n      swap1\n      sstore\n      pop\n      0x01\n      add\n      jump(tag_85)\n    tag_86:\n      pop\n      swap1\n      jump\t// out\n        /* \"#utility.yul\":7:146   */\n    tag_88:\n        /* \"#utility.yul\":53:58   */\n      0x00\n        /* \"#utility.yul\":91:97   */\n      dup2\n        /* \"#utility.yul\":78:98   */\n      calldataload\n        /* \"#utility.yul\":69:98   */\n      swap1\n      pop\n        /* \"#utility.yul\":107:140   */\n      tag_90\n        /* \"#utility.yul\":134:139   */\n      dup2\n        /* \"#utility.yul\":107:140   */\n      tag_91\n      jump\t// in\n    tag_90:\n        /* \"#utility.yul\":7:146   */\n      swap3\n      swap2\n      pop\n      pop\n      jump\t// out\n        /* \"#utility.yul\":152:293   */\n    tag_92:\n        /* \"#utility.yul\":208:213   */\n      0x00\n        /* \"#utility.yul\":239:245   */\n      dup2\n        /* \"#utility.yul\":233:246   */\n      mload\n        /* \"#utility.yul\":224:246   */\n      swap1\n      pop\n        /* \"#utility.yul\":255:287   */\n      tag_94\n        /* \"#utility.yul\":281:286   */\n      dup2\n        /* \"#utility.yul\":255:287   */\n      tag_95\n      jump\t// in\n    tag_94:\n        /* \"#utility.yul\":152:293   */\n      swap3\n      swap2\n      pop\n      pop\n      jump\t// out\n        /* \"#utility.yul\":299:438   */\n    tag_96:\n        /* \"#utility.yul\":345:350   */\n      0x00\n        /* \"#utility.yul\":383:389   */\n      dup2\n        /* \"#utility.yul\":370:390   */\n      calldataload\n        /* \"#utility.yul\":361:390   */\n      swap1\n      pop\n        /* \"#utility.yul\":399:432   */\n      tag_98\n        /* \"#utility.yul\":426:431   */\n      dup2\n        /* \"#utility.yul\":399:432   */\n      tag_99\n      jump\t// in\n    tag_98:\n        /* \"#utility.yul\":299:438   */\n      swap3\n      swap2\n      pop\n      pop\n      jump\t// out\n        /* \"#utility.yul\":444:587   */\n    tag_100:\n        /* \"#utility.yul\":501:506   */\n      0x00\n        /* \"#utility.yul\":532:538   */\n      dup2\n        /* \"#utility.yul\":526:539   */\n      mload\n        /* \"#utility.yul\":517:539   */\n      swap1\n      pop\n        /* \"#utility.yul\":548:581   */\n      tag_102\n        /* \"#utility.yul\":575:580   */\n      dup2\n        /* \"#utility.yul\":548:581   */\n      tag_99\n      jump\t// in\n    tag_102:\n        /* \"#utility.yul\":444:587   */\n      swap3\n      swap2\n      pop\n      pop\n      jump\t// out\n        /* \"#utility.yul\":593:734   */\n    tag_103:\n        /* \"#utility.yul\":649:654   */\n      0x00\n        /* \"#utility.yul\":680:686   */\n      dup2\n        /* \"#utility.yul\":674:687   */\n      mload\n        /* \"#utility.yul\":665:687   */\n      swap1\n      pop\n        /* \"#utility.yul\":696:728   */\n      tag_105\n        /* \"#utility.yul\":722:727   */\n      dup2\n        /* \"#utility.yul\":696:728   */\n      tag_106\n      jump\t// in\n    tag_105:\n        /* \"#utility.yul\":593:734   */\n      swap3\n      swap2\n      pop\n      pop\n      jump\t// out\n        /* \"#utility.yul\":740:1069   */\n    tag_18:\n        /* \"#utility.yul\":799:805   */\n      0x00\n        /* \"#utility.yul\":848:850   */\n      0x20\n        /* \"#utility.yul\":836:845   */\n      dup3\n        /* \"#utility.yul\":827:834   */\n      dup5\n        /* \"#utility.yul\":823:846   */\n      sub\n        /* \"#utility.yul\":819:851   */\n      slt\n        /* \"#utility.yul\":816:935   */\n      iszero\n      tag_108\n      jumpi\n        /* \"#utility.yul\":854:933   */\n      tag_109\n      tag_110\n      jump\t// in\n    tag_109:\n        /* \"#utility.yul\":816:935   */\n    tag_108:\n        /* \"#utility.yul\":974:975   */\n      0x00\n        /* \"#utility.yul\":999:1052   */\n      tag_111\n        /* \"#utility.yul\":1044:1051   */\n      dup5\n        /* \"#utility.yul\":1035:1041   */\n      dup3\n        /* \"#utility.yul\":1024:1033   */\n      dup6\n        /* \"#utility.yul\":1020:1042   */\n      add\n        /* \"#utility.yul\":999:1052   */\n      tag_88\n      jump\t// in\n    tag_111:\n        /* \"#utility.yul\":989:1052   */\n      swap2\n      pop\n        /* \"#utility.yul\":945:1062   */\n      pop\n        /* \"#utility.yul\":740:1069   */\n      swap3\n      swap2\n      pop\n      pop\n      jump\t// out\n        /* \"#utility.yul\":1075:1404   */\n    tag_26:\n        /* \"#utility.yul\":1134:1140   */\n      0x00\n        /* \"#utility.yul\":1183:1185   */\n      0x20\n        /* \"#utility.yul\":1171:1180   */\n      dup3\n        /* \"#utility.yul\":1162:1169   */\n      dup5\n        /* \"#utility.yul\":1158:1181   */\n      sub\n        /* \"#utility.yul\":1154:1186   */\n      slt\n        /* \"#utility.yul\":1151:1270   */\n      iszero\n      tag_113\n      jumpi\n        /* \"#utility.yul\":1189:1268   */\n      tag_114\n      tag_110\n      jump\t// in\n    tag_114:\n        /* \"#utility.yul\":1151:1270   */\n    tag_113:\n        /* \"#utility.yul\":1309:1310   */\n      0x00\n        /* \"#utility.yul\":1334:1387   */\n      tag_115\n        /* \"#utility.yul\":1379:1386   */\n      dup5\n        /* \"#utility.yul\":1370:1376   */\n      dup3\n        /* \"#utility.yul\":1359:1368   */\n      dup6\n        /* \"#utility.yul\":1355:1377   */\n      add\n        /* \"#utility.yul\":1334:1387   */\n      tag_96\n      jump\t// in\n    tag_115:\n        /* \"#utility.yul\":1324:1387   */\n      swap2\n      pop\n        /* \"#utility.yul\":1280:1397   */\n      pop\n        /* \"#utility.yul\":1075:1404   */\n      swap3\n      swap2\n      pop\n      pop\n      jump\t// out\n        /* \"#utility.yul\":1410:2381   */\n    tag_77:\n        /* \"#utility.yul\":1513:1519   */\n      0x00\n        /* \"#utility.yul\":1521:1527   */\n      dup1\n        /* \"#utility.yul\":1529:1535   */\n      0x00\n        /* \"#utility.yul\":1537:1543   */\n      dup1\n        /* \"#utility.yul\":1545:1551   */\n      0x00\n        /* \"#utility.yul\":1594:1597   */\n      0xa0\n        /* \"#utility.yul\":1582:1591   */\n      dup7\n        /* \"#utility.yul\":1573:1580   */\n      dup9\n        /* \"#utility.yul\":1569:1592   */\n      sub\n        /* \"#utility.yul\":1565:1598   */\n      slt\n        /* \"#utility.yul\":1562:1682   */\n      iszero\n      tag_117\n      jumpi\n        /* \"#utility.yul\":1601:1680   */\n      tag_118\n      tag_110\n      jump\t// in\n    tag_118:\n        /* \"#utility.yul\":1562:1682   */\n    tag_117:\n        /* \"#utility.yul\":1721:1722   */\n      0x00\n        /* \"#utility.yul\":1746:1809   */\n      tag_119\n        /* \"#utility.yul\":1801:1808   */\n      dup9\n        /* \"#utility.yul\":1792:1798   */\n      dup3\n        /* \"#utility.yul\":1781:1790   */\n      dup10\n        /* \"#utility.yul\":1777:1799   */\n      add\n        /* \"#utility.yul\":1746:1809   */\n      tag_103\n      jump\t// in\n    tag_119:\n        /* \"#utility.yul\":1736:1809   */\n      swap6\n      pop\n        /* \"#utility.yul\":1692:1819   */\n      pop\n        /* \"#utility.yul\":1858:1860   */\n      0x20\n        /* \"#utility.yul\":1884:1947   */\n      tag_120\n        /* \"#utility.yul\":1939:1946   */\n      dup9\n        /* \"#utility.yul\":1930:1936   */\n      dup3\n        /* \"#utility.yul\":1919:1928   */\n      dup10\n        /* \"#utility.yul\":1915:1937   */\n      add\n        /* \"#utility.yul\":1884:1947   */\n      tag_92\n      jump\t// in\n    tag_120:\n        /* \"#utility.yul\":1874:1947   */\n      swap5\n      pop\n        /* \"#utility.yul\":1829:1957   */\n      pop\n        /* \"#utility.yul\":1996:1998   */\n      0x40\n        /* \"#utility.yul\":2022:2086   */\n      tag_121\n        /* \"#utility.yul\":2078:2085   */\n      dup9\n        /* \"#utility.yul\":2069:2075   */\n      dup3\n        /* \"#utility.yul\":2058:2067   */\n      dup10\n        /* \"#utility.yul\":2054:2076   */\n      add\n        /* \"#utility.yul\":2022:2086   */\n      tag_100\n      jump\t// in\n    tag_121:\n        /* \"#utility.yul\":2012:2086   */\n      swap4\n      pop\n        /* \"#utility.yul\":1967:2096   */\n      pop\n        /* \"#utility.yul\":2135:2137   */\n      0x60\n        /* \"#utility.yul\":2161:2225   */\n      tag_122\n        /* \"#utility.yul\":2217:2224   */\n      dup9\n        /* \"#utility.yul\":2208:2214   */\n      dup3\n        /* \"#utility.yul\":2197:2206   */\n      dup10\n        /* \"#utility.yul\":2193:2215   */\n      add\n        /* \"#utility.yul\":2161:2225   */\n      tag_100\n      jump\t// in\n    tag_122:\n        /* \"#utility.yul\":2151:2225   */\n      swap3\n      pop\n        /* \"#utility.yul\":2106:2235   */\n      pop\n        /* \"#utility.yul\":2274:2277   */\n      0x80\n        /* \"#utility.yul\":2301:2364   */\n      tag_123\n        /* \"#utility.yul\":2356:2363   */\n      dup9\n        /* \"#utility.yul\":2347:2353   */\n      dup3\n        /* \"#utility.yul\":2336:2345   */\n      dup10\n        /* \"#utility.yul\":2332:2354   */\n      add\n        /* \"#utility.yul\":2301:2364   */\n      tag_103\n      jump\t// in\n    tag_123:\n        /* \"#utility.yul\":2291:2364   */\n      swap2\n      pop\n        /* \"#utility.yul\":2245:2374   */\n      pop\n        /* \"#utility.yul\":1410:2381   */\n      swap3\n      swap6\n      pop\n      swap3\n      swap6\n      swap1\n      swap4\n      pop\n      jump\t// out\n        /* \"#utility.yul\":2387:2505   */\n    tag_124:\n        /* \"#utility.yul\":2474:2498   */\n      tag_126\n        /* \"#utility.yul\":2492:2497   */\n      dup2\n        /* \"#utility.yul\":2474:2498   */\n      tag_127\n      jump\t// in\n    tag_126:\n        /* \"#utility.yul\":2469:2472   */\n      dup3\n        /* \"#utility.yul\":2462:2499   */\n      mstore\n        /* \"#utility.yul\":2387:2505   */\n      pop\n      pop\n      jump\t// out\n        /* \"#utility.yul\":2511:2877   */\n    tag_128:\n        /* \"#utility.yul\":2653:2656   */\n      0x00\n        /* \"#utility.yul\":2674:2741   */\n      tag_130\n        /* \"#utility.yul\":2738:2740   */\n      0x0b\n        /* \"#utility.yul\":2733:2736   */\n      dup4\n        /* \"#utility.yul\":2674:2741   */\n      tag_131\n      jump\t// in\n    tag_130:\n        /* \"#utility.yul\":2667:2741   */\n      swap2\n      pop\n        /* \"#utility.yul\":2750:2843   */\n      tag_132\n        /* \"#utility.yul\":2839:2842   */\n      dup3\n        /* \"#utility.yul\":2750:2843   */\n      tag_133\n      jump\t// in\n    tag_132:\n        /* \"#utility.yul\":2868:2870   */\n      0x20\n        /* \"#utility.yul\":2863:2866   */\n      dup3\n        /* \"#utility.yul\":2859:2871   */\n      add\n        /* \"#utility.yul\":2852:2871   */\n      swap1\n      pop\n        /* \"#utility.yul\":2511:2877   */\n      swap2\n      swap1\n      pop\n      jump\t// out\n        /* \"#utility.yul\":2883:3281   */\n    tag_134:\n        /* \"#utility.yul\":3042:3045   */\n      0x00\n        /* \"#utility.yul\":3063:3146   */\n      tag_136\n        /* \"#utility.yul\":3144:3145   */\n      0x00\n        /* \"#utility.yul\":3139:3142   */\n      dup4\n        /* \"#utility.yul\":3063:3146   */\n      tag_137\n      jump\t// in\n    tag_136:\n        /* \"#utility.yul\":3056:3146   */\n      swap2\n      pop\n        /* \"#utility.yul\":3155:3248   */\n      tag_138\n        /* \"#utility.yul\":3244:3247   */\n      dup3\n        /* \"#utility.yul\":3155:3248   */\n      tag_139\n      jump\t// in\n    tag_138:\n        /* \"#utility.yul\":3273:3274   */\n      0x00\n        /* \"#utility.yul\":3268:3271   */\n      dup3\n        /* \"#utility.yul\":3264:3275   */\n      add\n        /* \"#utility.yul\":3257:3275   */\n      swap1\n      pop\n        /* \"#utility.yul\":2883:3281   */\n      swap2\n      swap1\n      pop\n      jump\t// out\n        /* \"#utility.yul\":3287:3653   */\n    tag_140:\n        /* \"#utility.yul\":3429:3432   */\n      0x00\n        /* \"#utility.yul\":3450:3517   */\n      tag_142\n        /* \"#utility.yul\":3514:3516   */\n      0x13\n        /* \"#utility.yul\":3509:3512   */\n      dup4\n        /* \"#utility.yul\":3450:3517   */\n      tag_131\n      jump\t// in\n    tag_142:\n        /* \"#utility.yul\":3443:3517   */\n      swap2\n      pop\n        /* \"#utility.yul\":3526:3619   */\n      tag_143\n        /* \"#utility.yul\":3615:3618   */\n      dup3\n        /* \"#utility.yul\":3526:3619   */\n      tag_144\n      jump\t// in\n    tag_143:\n        /* \"#utility.yul\":3644:3646   */\n      0x20\n        /* \"#utility.yul\":3639:3642   */\n      dup3\n        /* \"#utility.yul\":3635:3647   */\n      add\n        /* \"#utility.yul\":3628:3647   */\n      swap1\n      pop\n        /* \"#utility.yul\":3287:3653   */\n      swap2\n      swap1\n      pop\n      jump\t// out\n        /* \"#utility.yul\":3659:3777   */\n    tag_145:\n        /* \"#utility.yul\":3746:3770   */\n      tag_147\n        /* \"#utility.yul\":3764:3769   */\n      dup2\n        /* \"#utility.yul\":3746:3770   */\n      tag_148\n      jump\t// in\n    tag_147:\n        /* \"#utility.yul\":3741:3744   */\n      dup3\n        /* \"#utility.yul\":3734:3771   */\n      mstore\n        /* \"#utility.yul\":3659:3777   */\n      pop\n      pop\n      jump\t// out\n        /* \"#utility.yul\":3783:4162   */\n    tag_47:\n        /* \"#utility.yul\":3967:3970   */\n      0x00\n        /* \"#utility.yul\":3989:4136   */\n      tag_150\n        /* \"#utility.yul\":4132:4135   */\n      dup3\n        /* \"#utility.yul\":3989:4136   */\n      tag_134\n      jump\t// in\n    tag_150:\n        /* \"#utility.yul\":3982:4136   */\n      swap2\n      pop\n        /* \"#utility.yul\":4153:4156   */\n      dup2\n        /* \"#utility.yul\":4146:4156   */\n      swap1\n      pop\n        /* \"#utility.yul\":3783:4162   */\n      swap2\n      swap1\n      pop\n      jump\t// out\n        /* \"#utility.yul\":4168:4390   */\n    tag_29:\n        /* \"#utility.yul\":4261:4265   */\n      0x00\n        /* \"#utility.yul\":4299:4301   */\n      0x20\n        /* \"#utility.yul\":4288:4297   */\n      dup3\n        /* \"#utility.yul\":4284:4302   */\n      add\n        /* \"#utility.yul\":4276:4302   */\n      swap1\n      pop\n        /* \"#utility.yul\":4312:4383   */\n      tag_152\n        /* \"#utility.yul\":4380:4381   */\n      0x00\n        /* \"#utility.yul\":4369:4378   */\n      dup4\n        /* \"#utility.yul\":4365:4382   */\n      add\n        /* \"#utility.yul\":4356:4362   */\n      dup5\n        /* \"#utility.yul\":4312:4383   */\n      tag_124\n      jump\t// in\n    tag_152:\n        /* \"#utility.yul\":4168:4390   */\n      swap3\n      swap2\n      pop\n      pop\n      jump\t// out\n        /* \"#utility.yul\":4396:4815   */\n    tag_53:\n        /* \"#utility.yul\":4562:4566   */\n      0x00\n        /* \"#utility.yul\":4600:4602   */\n      0x20\n        /* \"#utility.yul\":4589:4598   */\n      dup3\n        /* \"#utility.yul\":4585:4603   */\n      add\n        /* \"#utility.yul\":4577:4603   */\n      swap1\n      pop\n        /* \"#utility.yul\":4649:4658   */\n      dup2\n        /* \"#utility.yul\":4643:4647   */\n      dup2\n        /* \"#utility.yul\":4639:4659   */\n      sub\n        /* \"#utility.yul\":4635:4636   */\n      0x00\n        /* \"#utility.yul\":4624:4633   */\n      dup4\n        /* \"#utility.yul\":4620:4637   */\n      add\n        /* \"#utility.yul\":4613:4660   */\n      mstore\n        /* \"#utility.yul\":4677:4808   */\n      tag_154\n        /* \"#utility.yul\":4803:4807   */\n      dup2\n        /* \"#utility.yul\":4677:4808   */\n      tag_128\n      jump\t// in\n    tag_154:\n        /* \"#utility.yul\":4669:4808   */\n      swap1\n      pop\n        /* \"#utility.yul\":4396:4815   */\n      swap2\n      swap1\n      pop\n      jump\t// out\n        /* \"#utility.yul\":4821:5240   */\n    tag_59:\n        /* \"#utility.yul\":4987:4991   */\n      0x00\n        /* \"#utility.yul\":5025:5027   */\n      0x20\n        /* \"#utility.yul\":5014:5023   */\n      dup3\n        /* \"#utility.yul\":5010:5028   */\n      add\n        /* \"#utility.yul\":5002:5028   */\n      swap1\n      pop\n        /* \"#utility.yul\":5074:5083   */\n      dup2\n        /* \"#utility.yul\":5068:5072   */\n      dup2\n        /* \"#utility.yul\":5064:5084   */\n      sub\n        /* \"#utility.yul\":5060:5061   */\n      0x00\n        /* \"#utility.yul\":5049:5058   */\n      dup4\n        /* \"#utility.yul\":5045:5062   */\n      add\n        /* \"#utility.yul\":5038:5085   */\n      mstore\n        /* \"#utility.yul\":5102:5233   */\n      tag_156\n        /* \"#utility.yul\":5228:5232   */\n      dup2\n        /* \"#utility.yul\":5102:5233   */\n      tag_140\n      jump\t// in\n    tag_156:\n        /* \"#utility.yul\":5094:5233   */\n      swap1\n      pop\n        /* \"#utility.yul\":4821:5240   */\n      swap2\n      swap1\n      pop\n      jump\t// out\n        /* \"#utility.yul\":5246:5468   */\n    tag_11:\n        /* \"#utility.yul\":5339:5343   */\n      0x00\n        /* \"#utility.yul\":5377:5379   */\n      0x20\n        /* \"#utility.yul\":5366:5375   */\n      dup3\n        /* \"#utility.yul\":5362:5380   */\n      add\n        /* \"#utility.yul\":5354:5380   */\n      swap1\n      pop\n        /* \"#utility.yul\":5390:5461   */\n      tag_158\n        /* \"#utility.yul\":5458:5459   */\n      0x00\n        /* \"#utility.yul\":5447:5456   */\n      dup4\n        /* \"#utility.yul\":5443:5460   */\n      add\n        /* \"#utility.yul\":5434:5440   */\n      dup5\n        /* \"#utility.yul\":5390:5461   */\n      tag_145\n      jump\t// in\n    tag_158:\n        /* \"#utility.yul\":5246:5468   */\n      swap3\n      swap2\n      pop\n      pop\n      jump\t// out\n        /* \"#utility.yul\":5555:5702   */\n    tag_137:\n        /* \"#utility.yul\":5656:5667   */\n      0x00\n        /* \"#utility.yul\":5693:5696   */\n      dup2\n        /* \"#utility.yul\":5678:5696   */\n      swap1\n      pop\n        /* \"#utility.yul\":5555:5702   */\n      swap3\n      swap2\n      pop\n      pop\n      jump\t// out\n        /* \"#utility.yul\":5708:5877   */\n    tag_131:\n        /* \"#utility.yul\":5792:5803   */\n      0x00\n        /* \"#utility.yul\":5826:5832   */\n      dup3\n        /* \"#utility.yul\":5821:5824   */\n      dup3\n        /* \"#utility.yul\":5814:5833   */\n      mstore\n        /* \"#utility.yul\":5866:5870   */\n      0x20\n        /* \"#utility.yul\":5861:5864   */\n      dup3\n        /* \"#utility.yul\":5857:5871   */\n      add\n        /* \"#utility.yul\":5842:5871   */\n      swap1\n      pop\n        /* \"#utility.yul\":5708:5877   */\n      swap3\n      swap2\n      pop\n      pop\n      jump\t// out\n        /* \"#utility.yul\":5883:6188   */\n    tag_62:\n        /* \"#utility.yul\":5923:5926   */\n      0x00\n        /* \"#utility.yul\":5942:5962   */\n      tag_164\n        /* \"#utility.yul\":5960:5961   */\n      dup3\n        /* \"#utility.yul\":5942:5962   */\n      tag_148\n      jump\t// in\n    tag_164:\n        /* \"#utility.yul\":5937:5962   */\n      swap2\n      pop\n        /* \"#utility.yul\":5976:5996   */\n      tag_165\n        /* \"#utility.yul\":5994:5995   */\n      dup4\n        /* \"#utility.yul\":5976:5996   */\n      tag_148\n      jump\t// in\n    tag_165:\n        /* \"#utility.yul\":5971:5996   */\n      swap3\n      pop\n        /* \"#utility.yul\":6130:6131   */\n      dup3\n        /* \"#utility.yul\":6062:6128   */\n      0xffffffffffffffffffffffffffffffffffffffffffffffffffffffffffffffff\n        /* \"#utility.yul\":6058:6132   */\n      sub\n        /* \"#utility.yul\":6055:6056   */\n      dup3\n        /* \"#utility.yul\":6052:6133   */\n      gt\n        /* \"#utility.yul\":6049:6156   */\n      iszero\n      tag_166\n      jumpi\n        /* \"#utility.yul\":6136:6154   */\n      tag_167\n      tag_168\n      jump\t// in\n    tag_167:\n        /* \"#utility.yul\":6049:6156   */\n    tag_166:\n        /* \"#utility.yul\":6180:6181   */\n      dup3\n        /* \"#utility.yul\":6177:6178   */\n      dup3\n        /* \"#utility.yul\":6173:6182   */\n      add\n        /* \"#utility.yul\":6166:6182   */\n      swap1\n      pop\n        /* \"#utility.yul\":5883:6188   */\n      swap3\n      swap2\n      pop\n      pop\n      jump\t// out\n        /* \"#utility.yul\":6194:6379   */\n    tag_71:\n        /* \"#utility.yul\":6234:6235   */\n      0x00\n        /* \"#utility.yul\":6251:6271   */\n      tag_170\n        /* \"#utility.yul\":6269:6270   */\n      dup3\n        /* \"#utility.yul\":6251:6271   */\n      tag_148\n      jump\t// in\n    tag_170:\n        /* \"#utility.yul\":6246:6271   */\n      swap2\n      pop\n        /* \"#utility.yul\":6285:6305   */\n      tag_171\n        /* \"#utility.yul\":6303:6304   */\n      dup4\n        /* \"#utility.yul\":6285:6305   */\n      tag_148\n      jump\t// in\n    tag_171:\n        /* \"#utility.yul\":6280:6305   */\n      swap3\n      pop\n        /* \"#utility.yul\":6324:6325   */\n      dup3\n        /* \"#utility.yul\":6314:6349   */\n      tag_172\n      jumpi\n        /* \"#utility.yul\":6329:6347   */\n      tag_173\n      tag_174\n      jump\t// in\n    tag_173:\n        /* \"#utility.yul\":6314:6349   */\n    tag_172:\n        /* \"#utility.yul\":6371:6372   */\n      dup3\n        /* \"#utility.yul\":6368:6369   */\n      dup3\n        /* \"#utility.yul\":6364:6373   */\n      div\n        /* \"#utility.yul\":6359:6373   */\n      swap1\n      pop\n        /* \"#utility.yul\":6194:6379   */\n      swap3\n      swap2\n      pop\n      pop\n      jump\t// out\n        /* \"#utility.yul\":6385:7376   */\n    tag_79:\n        /* \"#utility.yul\":6424:6431   */\n      0x00\n        /* \"#utility.yul\":6447:6466   */\n      tag_176\n        /* \"#utility.yul\":6464:6465   */\n      dup3\n        /* \"#utility.yul\":6447:6466   */\n      tag_177\n      jump\t// in\n    tag_176:\n        /* \"#utility.yul\":6442:6466   */\n      swap2\n      pop\n        /* \"#utility.yul\":6480:6499   */\n      tag_178\n        /* \"#utility.yul\":6497:6498   */\n      dup4\n        /* \"#utility.yul\":6480:6499   */\n      tag_177\n      jump\t// in\n    tag_178:\n        /* \"#utility.yul\":6475:6499   */\n      swap3\n      pop\n        /* \"#utility.yul\":6681:6682   */\n      dup3\n        /* \"#utility.yul\":6613:6679   */\n      0x7fffffffffffffffffffffffffffffffffffffffffffffffffffffffffffffff\n        /* \"#utility.yul\":6609:6683   */\n      div\n        /* \"#utility.yul\":6606:6607   */\n      dup3\n        /* \"#utility.yul\":6603:6684   */\n      gt\n        /* \"#utility.yul\":6598:6599   */\n      0x00\n        /* \"#utility.yul\":6595:6596   */\n      dup5\n        /* \"#utility.yul\":6591:6600   */\n      sgt\n        /* \"#utility.yul\":6587:6588   */\n      0x00\n        /* \"#utility.yul\":6584:6585   */\n      dup5\n        /* \"#utility.yul\":6580:6589   */\n      sgt\n        /* \"#utility.yul\":6576:6601   */\n      and\n        /* \"#utility.yul\":6572:6685   */\n      and\n        /* \"#utility.yul\":6569:6708   */\n      iszero\n      tag_179\n      jumpi\n        /* \"#utility.yul\":6688:6706   */\n      tag_180\n      tag_168\n      jump\t// in\n    tag_180:\n        /* \"#utility.yul\":6569:6708   */\n    tag_179:\n        /* \"#utility.yul\":6892:6893   */\n      dup2\n        /* \"#utility.yul\":6824:6890   */\n      0x8000000000000000000000000000000000000000000000000000000000000000\n        /* \"#utility.yul\":6819:6894   */\n      sdiv\n        /* \"#utility.yul\":6816:6817   */\n      dup4\n        /* \"#utility.yul\":6812:6895   */\n      slt\n        /* \"#utility.yul\":6807:6808   */\n      0x00\n        /* \"#utility.yul\":6804:6805   */\n      dup5\n        /* \"#utility.yul\":6800:6809   */\n      slt\n        /* \"#utility.yul\":6796:6797   */\n      0x00\n        /* \"#utility.yul\":6793:6794   */\n      dup5\n        /* \"#utility.yul\":6789:6798   */\n      sgt\n        /* \"#utility.yul\":6785:6810   */\n      and\n        /* \"#utility.yul\":6781:6896   */\n      and\n        /* \"#utility.yul\":6778:6919   */\n      iszero\n      tag_181\n      jumpi\n        /* \"#utility.yul\":6899:6917   */\n      tag_182\n      tag_168\n      jump\t// in\n    tag_182:\n        /* \"#utility.yul\":6778:6919   */\n    tag_181:\n        /* \"#utility.yul\":7103:7104   */\n      dup3\n        /* \"#utility.yul\":7035:7101   */\n      0x8000000000000000000000000000000000000000000000000000000000000000\n        /* \"#utility.yul\":7030:7105   */\n      sdiv\n        /* \"#utility.yul\":7027:7028   */\n      dup3\n        /* \"#utility.yul\":7023:7106   */\n      slt\n        /* \"#utility.yul\":7018:7019   */\n      0x00\n        /* \"#utility.yul\":7015:7016   */\n      dup5\n        /* \"#utility.yul\":7011:7020   */\n      sgt\n        /* \"#utility.yul\":7007:7008   */\n      0x00\n        /* \"#utility.yul\":7004:7005   */\n      dup5\n        /* \"#utility.yul\":7000:7009   */\n      slt\n        /* \"#utility.yul\":6996:7021   */\n      and\n        /* \"#utility.yul\":6992:7107   */\n      and\n        /* \"#utility.yul\":6989:7130   */\n      iszero\n      tag_183\n      jumpi\n        /* \"#utility.yul\":7110:7128   */\n      tag_184\n      tag_168\n      jump\t// in\n    tag_184:\n        /* \"#utility.yul\":6989:7130   */\n    tag_183:\n        /* \"#utility.yul\":7313:7314   */\n      dup3\n        /* \"#utility.yul\":7245:7311   */\n      0x7fffffffffffffffffffffffffffffffffffffffffffffffffffffffffffffff\n        /* \"#utility.yul\":7240:7315   */\n      sdiv\n        /* \"#utility.yul\":7237:7238   */\n      dup3\n        /* \"#utility.yul\":7233:7316   */\n      slt\n        /* \"#utility.yul\":7228:7229   */\n      0x00\n        /* \"#utility.yul\":7225:7226   */\n      dup5\n        /* \"#utility.yul\":7221:7230   */\n      slt\n        /* \"#utility.yul\":7217:7218   */\n      0x00\n        /* \"#utility.yul\":7214:7215   */\n      dup5\n        /* \"#utility.yul\":7210:7219   */\n      slt\n        /* \"#utility.yul\":7206:7231   */\n      and\n        /* \"#utility.yul\":7202:7317   */\n      and\n        /* \"#utility.yul\":7199:7340   */\n      iszero\n      tag_185\n      jumpi\n        /* \"#utility.yul\":7320:7338   */\n      tag_186\n      tag_168\n      jump\t// in\n    tag_186:\n        /* \"#utility.yul\":7199:7340   */\n    tag_185:\n        /* \"#utility.yul\":7368:7369   */\n      dup3\n        /* \"#utility.yul\":7365:7366   */\n      dup3\n        /* \"#utility.yul\":7361:7370   */\n      mul\n        /* \"#utility.yul\":7350:7370   */\n      swap1\n      pop\n        /* \"#utility.yul\":6385:7376   */\n      swap3\n      swap2\n      pop\n      pop\n      jump\t// out\n        /* \"#utility.yul\":7382:7730   */\n    tag_69:\n        /* \"#utility.yul\":7422:7429   */\n      0x00\n        /* \"#utility.yul\":7445:7465   */\n      tag_188\n        /* \"#utility.yul\":7463:7464   */\n      dup3\n        /* \"#utility.yul\":7445:7465   */\n      tag_148\n      jump\t// in\n    tag_188:\n        /* \"#utility.yul\":7440:7465   */\n      swap2\n      pop\n        /* \"#utility.yul\":7479:7499   */\n      tag_189\n        /* \"#utility.yul\":7497:7498   */\n      dup4\n        /* \"#utility.yul\":7479:7499   */\n      tag_148\n      jump\t// in\n    tag_189:\n        /* \"#utility.yul\":7474:7499   */\n      swap3\n      pop\n        /* \"#utility.yul\":7667:7668   */\n      dup2\n        /* \"#utility.yul\":7599:7665   */\n      0xffffffffffffffffffffffffffffffffffffffffffffffffffffffffffffffff\n        /* \"#utility.yul\":7595:7669   */\n      div\n        /* \"#utility.yul\":7592:7593   */\n      dup4\n        /* \"#utility.yul\":7589:7670   */\n      gt\n        /* \"#utility.yul\":7584:7585   */\n      dup3\n        /* \"#utility.yul\":7577:7586   */\n      iszero\n        /* \"#utility.yul\":7570:7587   */\n      iszero\n        /* \"#utility.yul\":7566:7671   */\n      and\n        /* \"#utility.yul\":7563:7694   */\n      iszero\n      tag_190\n      jumpi\n        /* \"#utility.yul\":7674:7692   */\n      tag_191\n      tag_168\n      jump\t// in\n    tag_191:\n        /* \"#utility.yul\":7563:7694   */\n    tag_190:\n        /* \"#utility.yul\":7722:7723   */\n      dup3\n        /* \"#utility.yul\":7719:7720   */\n      dup3\n        /* \"#utility.yul\":7715:7724   */\n      mul\n        /* \"#utility.yul\":7704:7724   */\n      swap1\n      pop\n        /* \"#utility.yul\":7382:7730   */\n      swap3\n      swap2\n      pop\n      pop\n      jump\t// out\n        /* \"#utility.yul\":7736:7832   */\n    tag_127:\n        /* \"#utility.yul\":7773:7780   */\n      0x00\n        /* \"#utility.yul\":7802:7826   */\n      tag_193\n        /* \"#utility.yul\":7820:7825   */\n      dup3\n        /* \"#utility.yul\":7802:7826   */\n      tag_194\n      jump\t// in\n    tag_193:\n        /* \"#utility.yul\":7791:7826   */\n      swap1\n      pop\n        /* \"#utility.yul\":7736:7832   */\n      swap2\n      swap1\n      pop\n      jump\t// out\n        /* \"#utility.yul\":7838:7914   */\n    tag_177:\n        /* \"#utility.yul\":7874:7881   */\n      0x00\n        /* \"#utility.yul\":7903:7908   */\n      dup2\n        /* \"#utility.yul\":7892:7908   */\n      swap1\n      pop\n        /* \"#utility.yul\":7838:7914   */\n      swap2\n      swap1\n      pop\n      jump\t// out\n        /* \"#utility.yul\":7920:8046   */\n    tag_194:\n        /* \"#utility.yul\":7957:7964   */\n      0x00\n        /* \"#utility.yul\":7997:8039   */\n      0xffffffffffffffffffffffffffffffffffffffff\n        /* \"#utility.yul\":7990:7995   */\n      dup3\n        /* \"#utility.yul\":7986:8040   */\n      and\n        /* \"#utility.yul\":7975:8040   */\n      swap1\n      pop\n        /* \"#utility.yul\":7920:8046   */\n      swap2\n      swap1\n      pop\n      jump\t// out\n        /* \"#utility.yul\":8052:8129   */\n    tag_148:\n        /* \"#utility.yul\":8089:8096   */\n      0x00\n        /* \"#utility.yul\":8118:8123   */\n      dup2\n        /* \"#utility.yul\":8107:8123   */\n      swap1\n      pop\n        /* \"#utility.yul\":8052:8129   */\n      swap2\n      swap1\n      pop\n      jump\t// out\n        /* \"#utility.yul\":8135:8240   */\n    tag_198:\n        /* \"#utility.yul\":8171:8178   */\n      0x00\n        /* \"#utility.yul\":8211:8233   */\n      0xffffffffffffffffffff\n        /* \"#utility.yul\":8204:8209   */\n      dup3\n        /* \"#utility.yul\":8200:8234   */\n      and\n        /* \"#utility.yul\":8189:8234   */\n      swap1\n      pop\n        /* \"#utility.yul\":8135:8240   */\n      swap2\n      swap1\n      pop\n      jump\t// out\n        /* \"#utility.yul\":8246:8479   */\n    tag_39:\n        /* \"#utility.yul\":8285:8288   */\n      0x00\n        /* \"#utility.yul\":8308:8332   */\n      tag_201\n        /* \"#utility.yul\":8326:8331   */\n      dup3\n        /* \"#utility.yul\":8308:8332   */\n      tag_148\n      jump\t// in\n    tag_201:\n        /* \"#utility.yul\":8299:8332   */\n      swap2\n      pop\n        /* \"#utility.yul\":8354:8420   */\n      0xffffffffffffffffffffffffffffffffffffffffffffffffffffffffffffffff\n        /* \"#utility.yul\":8347:8352   */\n      dup3\n        /* \"#utility.yul\":8344:8421   */\n      eq\n        /* \"#utility.yul\":8341:8444   */\n      iszero\n      tag_202\n      jumpi\n        /* \"#utility.yul\":8424:8442   */\n      tag_203\n      tag_168\n      jump\t// in\n    tag_203:\n        /* \"#utility.yul\":8341:8444   */\n    tag_202:\n        /* \"#utility.yul\":8471:8472   */\n      0x01\n        /* \"#utility.yul\":8464:8469   */\n      dup3\n        /* \"#utility.yul\":8460:8473   */\n      add\n        /* \"#utility.yul\":8453:8473   */\n      swap1\n      pop\n        /* \"#utility.yul\":8246:8479   */\n      swap2\n      swap1\n      pop\n      jump\t// out\n        /* \"#utility.yul\":8485:8665   */\n    tag_168:\n        /* \"#utility.yul\":8533:8610   */\n      0x4e487b7100000000000000000000000000000000000000000000000000000000\n        /* \"#utility.yul\":8530:8531   */\n      0x00\n        /* \"#utility.yul\":8523:8611   */\n      mstore\n        /* \"#utility.yul\":8630:8634   */\n      0x11\n        /* \"#utility.yul\":8627:8628   */\n      0x04\n        /* \"#utility.yul\":8620:8635   */\n      mstore\n        /* \"#utility.yul\":8654:8658   */\n      0x24\n        /* \"#utility.yul\":8651:8652   */\n      0x00\n        /* \"#utility.yul\":8644:8659   */\n      revert\n        /* \"#utility.yul\":8671:8851   */\n    tag_174:\n        /* \"#utility.yul\":8719:8796   */\n      0x4e487b7100000000000000000000000000000000000000000000000000000000\n        /* \"#utility.yul\":8716:8717   */\n      0x00\n        /* \"#utility.yul\":8709:8797   */\n      mstore\n        /* \"#utility.yul\":8816:8820   */\n      0x12\n        /* \"#utility.yul\":8813:8814   */\n      0x04\n        /* \"#utility.yul\":8806:8821   */\n      mstore\n        /* \"#utility.yul\":8840:8844   */\n      0x24\n        /* \"#utility.yul\":8837:8838   */\n      0x00\n        /* \"#utility.yul\":8830:8845   */\n      revert\n        /* \"#utility.yul\":8857:9037   */\n    tag_36:\n        /* \"#utility.yul\":8905:8982   */\n      0x4e487b7100000000000000000000000000000000000000000000000000000000\n        /* \"#utility.yul\":8902:8903   */\n      0x00\n        /* \"#utility.yul\":8895:8983   */\n      mstore\n        /* \"#utility.yul\":9002:9006   */\n      0x32\n        /* \"#utility.yul\":8999:9000   */\n      0x04\n        /* \"#utility.yul\":8992:9007   */\n      mstore\n        /* \"#utility.yul\":9026:9030   */\n      0x24\n        /* \"#utility.yul\":9023:9024   */\n      0x00\n        /* \"#utility.yul\":9016:9031   */\n      revert\n        /* \"#utility.yul\":9043:9223   */\n    tag_42:\n        /* \"#utility.yul\":9091:9168   */\n      0x4e487b7100000000000000000000000000000000000000000000000000000000\n        /* \"#utility.yul\":9088:9089   */\n      0x00\n        /* \"#utility.yul\":9081:9169   */\n      mstore\n        /* \"#utility.yul\":9188:9192   */\n      0x41\n        /* \"#utility.yul\":9185:9186   */\n      0x04\n        /* \"#utility.yul\":9178:9193   */\n      mstore\n        /* \"#utility.yul\":9212:9216   */\n      0x24\n        /* \"#utility.yul\":9209:9210   */\n      0x00\n        /* \"#utility.yul\":9202:9217   */\n      revert\n        /* \"#utility.yul\":9352:9469   */\n    tag_110:\n        /* \"#utility.yul\":9461:9462   */\n      0x00\n        /* \"#utility.yul\":9458:9459   */\n      dup1\n        /* \"#utility.yul\":9451:9463   */\n      revert\n        /* \"#utility.yul\":9475:9636   */\n    tag_133:\n        /* \"#utility.yul\":9615:9628   */\n      0x43616c6c206661696c6564000000000000000000000000000000000000000000\n        /* \"#utility.yul\":9611:9612   */\n      0x00\n        /* \"#utility.yul\":9603:9609   */\n      dup3\n        /* \"#utility.yul\":9599:9613   */\n      add\n        /* \"#utility.yul\":9592:9629   */\n      mstore\n        /* \"#utility.yul\":9475:9636   */\n      pop\n      jump\t// out\n        /* \"#utility.yul\":9642:9756   */\n    tag_139:\n      pop\n      jump\t// out\n        /* \"#utility.yul\":9762:9931   */\n    tag_144:\n        /* \"#utility.yul\":9902:9923   */\n      0x4469646e27742073656e6420656e6f7567682100000000000000000000000000\n        /* \"#utility.yul\":9898:9899   */\n      0x00\n        /* \"#utility.yul\":9890:9896   */\n      dup3\n        /* \"#utility.yul\":9886:9900   */\n      add\n        /* \"#utility.yul\":9879:9924   */\n      mstore\n        /* \"#utility.yul\":9762:9931   */\n      pop\n      jump\t// out\n        /* \"#utility.yul\":9937:10059   */\n    tag_91:\n        /* \"#utility.yul\":10010:10034   */\n      tag_215\n        /* \"#utility.yul\":10028:10033   */\n      dup2\n        /* \"#utility.yul\":10010:10034   */\n      tag_127\n      jump\t// in\n    tag_215:\n        /* \"#utility.yul\":10003:10008   */\n      dup2\n        /* \"#utility.yul\":10000:10035   */\n      eq\n        /* \"#utility.yul\":9990:10053   */\n      tag_216\n      jumpi\n        /* \"#utility.yul\":10049:10050   */\n      0x00\n        /* \"#utility.yul\":10046:10047   */\n      dup1\n        /* \"#utility.yul\":10039:10051   */\n      revert\n        /* \"#utility.yul\":9990:10053   */\n    tag_216:\n        /* \"#utility.yul\":9937:10059   */\n      pop\n      jump\t// out\n        /* \"#utility.yul\":10065:10185   */\n    tag_95:\n        /* \"#utility.yul\":10137:10160   */\n      tag_218\n        /* \"#utility.yul\":10154:10159   */\n      dup2\n        /* \"#utility.yul\":10137:10160   */\n      tag_177\n      jump\t// in\n    tag_218:\n        /* \"#utility.yul\":10130:10135   */\n      dup2\n        /* \"#utility.yul\":10127:10161   */\n      eq\n        /* \"#utility.yul\":10117:10179   */\n      tag_219\n      jumpi\n        /* \"#utility.yul\":10175:10176   */\n      0x00\n        /* \"#utility.yul\":10172:10173   */\n      dup1\n        /* \"#utility.yul\":10165:10177   */\n      revert\n        /* \"#utility.yul\":10117:10179   */\n    tag_219:\n        /* \"#utility.yul\":10065:10185   */\n      pop\n      jump\t// out\n        /* \"#utility.yul\":10191:10313   */\n    tag_99:\n        /* \"#utility.yul\":10264:10288   */\n      tag_221\n        /* \"#utility.yul\":10282:10287   */\n      dup2\n        /* \"#utility.yul\":10264:10288   */\n      tag_148\n      jump\t// in\n    tag_221:\n        /* \"#utility.yul\":10257:10262   */\n      dup2\n        /* \"#utility.yul\":10254:10289   */\n      eq\n        /* \"#utility.yul\":10244:10307   */\n      tag_222\n      jumpi\n        /* \"#utility.yul\":10303:10304   */\n      0x00\n        /* \"#utility.yul\":10300:10301   */\n      dup1\n        /* \"#utility.yul\":10293:10305   */\n      revert\n        /* \"#utility.yul\":10244:10307   */\n    tag_222:\n        /* \"#utility.yul\":10191:10313   */\n      pop\n      jump\t// out\n        /* \"#utility.yul\":10319:10439   */\n    tag_106:\n        /* \"#utility.yul\":10391:10414   */\n      tag_224\n        /* \"#utility.yul\":10408:10413   */\n      dup2\n        /* \"#utility.yul\":10391:10414   */\n      tag_198\n      jump\t// in\n    tag_224:\n        /* \"#utility.yul\":10384:10389   */\n      dup2\n        /* \"#utility.yul\":10381:10415   */\n      eq\n        /* \"#utility.yul\":10371:10433   */\n      tag_225\n      jumpi\n        /* \"#utility.yul\":10429:10430   */\n      0x00\n        /* \"#utility.yul\":10426:10427   */\n      dup1\n        /* \"#utility.yul\":10419:10431   */\n      revert\n        /* \"#utility.yul\":10371:10433   */\n    tag_225:\n        /* \"#utility.yul\":10319:10439   */\n      pop\n      jump\t// out\n\n    auxdata: 0xa2646970667358221220040f178531fff642d1ffd115ce1dc1e612fb7c82869113747cfc1583862fbc8d64736f6c63430008070033\n}\n",
				"bytecode": {
					"linkReferences": {},
					"object": "60806040526802b5e3af16b188000060005534801561001d57600080fd5b50610c808061002d6000396000f3fe60806040526004361061004a5760003560e01c80633430a88c1461004f5780633ccfd60b1461007a5780633e47d6f314610091578063b60d4288146100ce578063dc0d3dff146100d8575b600080fd5b34801561005b57600080fd5b50610064610115565b6040516100719190610804565b60405180910390f35b34801561008657600080fd5b5061008f61011b565b005b34801561009d57600080fd5b506100b860048036038101906100b39190610638565b6102d7565b6040516100c59190610804565b60405180910390f35b6100d66102ef565b005b3480156100e457600080fd5b506100ff60048036038101906100fa9190610665565b6103f7565b60405161010c91906107a9565b60405180910390f35b60005481565b60005b6001805490508110156101c75760006001828154811061014157610140610b36565b5b9060005260206000200160009054906101000a900473ffffffffffffffffffffffffffffffffffffffff1690506000600260008373ffffffffffffffffffffffffffffffffffffffff1673ffffffffffffffffffffffffffffffffffffffff168152602001908152602001600020819055505080806101bf90610a8f565b91505061011e565b50600067ffffffffffffffff8111156101e3576101e2610b65565b5b6040519080825280602002602001820160405280156102115781602001602082028036833780820191505090505b5060019080519060200190610227929190610528565b5060003373ffffffffffffffffffffffffffffffffffffffff164760405161024e90610794565b60006040518083038185875af1925050503d806000811461028b576040519150601f19603f3d011682016040523d82523d6000602084013e610290565b606091505b50509050806102d4576040517f08c379a00000000000000000000000000000000000000000000000000000000081526004016102cb906107c4565b60405180910390fd5b50565b60026020528060005260406000206000915090505481565b6000546102fb34610436565b101561033c576040517f08c379a0000000000000000000000000000000000000000000000000000000008152600401610333906107e4565b60405180910390fd5b6001339080600181540180825580915050600190039060005260206000200160009091909190916101000a81548173ffffffffffffffffffffffffffffffffffffffff021916908373ffffffffffffffffffffffffffffffffffffffff16021790555034600260003373ffffffffffffffffffffffffffffffffffffffff1673ffffffffffffffffffffffffffffffffffffffff16815260200190815260200160002060008282546103ee919061083b565b92505081905550565b6001818154811061040757600080fd5b906000526020600020016000915054906101000a900473ffffffffffffffffffffffffffffffffffffffff1681565b600080610441610470565b90506000670de0b6b3a7640000848361045a91906109d9565b6104649190610891565b90508092505050919050565b600080738a753747a1fa494ec906ce90e9f37563a8af630e905060008173ffffffffffffffffffffffffffffffffffffffff1663feaf968c6040518163ffffffff1660e01b815260040160a06040518083038186803b1580156104d257600080fd5b505afa1580156104e6573d6000803e3d6000fd5b505050506040513d601f19601f8201168201806040525081019061050a9190610692565b5050509150506402540be4008161052191906108c2565b9250505090565b8280548282559060005260206000209081019282156105a1579160200282015b828111156105a05782518260006101000a81548173ffffffffffffffffffffffffffffffffffffffff021916908373ffffffffffffffffffffffffffffffffffffffff16021790555091602001919060010190610548565b5b5090506105ae91906105b2565b5090565b5b808211156105cb5760008160009055506001016105b3565b5090565b6000813590506105de81610bee565b92915050565b6000815190506105f381610c05565b92915050565b60008135905061060881610c1c565b92915050565b60008151905061061d81610c1c565b92915050565b60008151905061063281610c33565b92915050565b60006020828403121561064e5761064d610b94565b5b600061065c848285016105cf565b91505092915050565b60006020828403121561067b5761067a610b94565b5b6000610689848285016105f9565b91505092915050565b600080600080600060a086880312156106ae576106ad610b94565b5b60006106bc88828901610623565b95505060206106cd888289016105e4565b94505060406106de8882890161060e565b93505060606106ef8882890161060e565b925050608061070088828901610623565b9150509295509295909350565b61071681610a33565b82525050565b6000610729600b8361082a565b915061073482610b99565b602082019050919050565b600061074c60008361081f565b915061075782610bc2565b600082019050919050565b600061076f60138361082a565b915061077a82610bc5565b602082019050919050565b61078e81610a6f565b82525050565b600061079f8261073f565b9150819050919050565b60006020820190506107be600083018461070d565b92915050565b600060208201905081810360008301526107dd8161071c565b9050919050565b600060208201905081810360008301526107fd81610762565b9050919050565b60006020820190506108196000830184610785565b92915050565b600081905092915050565b600082825260208201905092915050565b600061084682610a6f565b915061085183610a6f565b9250827fffffffffffffffffffffffffffffffffffffffffffffffffffffffffffffffff0382111561088657610885610ad8565b5b828201905092915050565b600061089c82610a6f565b91506108a783610a6f565b9250826108b7576108b6610b07565b5b828204905092915050565b60006108cd82610a45565b91506108d883610a45565b9250827f7fffffffffffffffffffffffffffffffffffffffffffffffffffffffffffffff048211600084136000841316161561091757610916610ad8565b5b817f8000000000000000000000000000000000000000000000000000000000000000058312600084126000841316161561095457610953610ad8565b5b827f8000000000000000000000000000000000000000000000000000000000000000058212600084136000841216161561099157610990610ad8565b5b827f7fffffffffffffffffffffffffffffffffffffffffffffffffffffffffffffff05821260008412600084121616156109ce576109cd610ad8565b5b828202905092915050565b60006109e482610a6f565b91506109ef83610a6f565b9250817fffffffffffffffffffffffffffffffffffffffffffffffffffffffffffffffff0483118215151615610a2857610a27610ad8565b5b828202905092915050565b6000610a3e82610a4f565b9050919050565b6000819050919050565b600073ffffffffffffffffffffffffffffffffffffffff82169050919050565b6000819050919050565b600069ffffffffffffffffffff82169050919050565b6000610a9a82610a6f565b91507fffffffffffffffffffffffffffffffffffffffffffffffffffffffffffffffff821415610acd57610acc610ad8565b5b600182019050919050565b7f4e487b7100000000000000000000000000000000000000000000000000000000600052601160045260246000fd5b7f4e487b7100000000000000000000000000000000000000000000000000000000600052601260045260246000fd5b7f4e487b7100000000000000000000000000000000000000000000000000000000600052603260045260246000fd5b7f4e487b7100000000000000000000000000000000000000000000000000000000600052604160045260246000fd5b600080fd5b7f43616c6c206661696c6564000000000000000000000000000000000000000000600082015250565b50565b7f4469646e27742073656e6420656e6f7567682100000000000000000000000000600082015250565b610bf781610a33565b8114610c0257600080fd5b50565b610c0e81610a45565b8114610c1957600080fd5b50565b610c2581610a6f565b8114610c3057600080fd5b50565b610c3c81610a79565b8114610c4757600080fd5b5056fea2646970667358221220040f178531fff642d1ffd115ce1dc1e612fb7c82869113747cfc1583862fbc8d64736f6c63430008070033",
					"opcodes": "PUSH1 0x80 PUSH1 0x40 MSTORE PUSH9 0x2B5E3AF16B1880000 PUSH1 0x0 SSTORE CALLVALUE DUP1 ISZERO PUSH2 0x1D JUMPI PUSH1 0x0 DUP1 REVERT JUMPDEST POP PUSH2 0xC80 DUP1 PUSH2 0x2D PUSH1 0x0 CODECOPY PUSH1 0x0 RETURN INVALID PUSH1 0x80 PUSH1 0x40 MSTORE PUSH1 0x4 CALLDATASIZE LT PUSH2 0x4A JUMPI PUSH1 0x0 CALLDATALOAD PUSH1 0xE0 SHR DUP1 PUSH4 0x3430A88C EQ PUSH2 0x4F JUMPI DUP1 PUSH4 0x3CCFD60B EQ PUSH2 0x7A JUMPI DUP1 PUSH4 0x3E47D6F3 EQ PUSH2 0x91 JUMPI DUP1 PUSH4 0xB60D4288 EQ PUSH2 0xCE JUMPI DUP1 PUSH4 0xDC0D3DFF EQ PUSH2 0xD8 JUMPI JUMPDEST PUSH1 0x0 DUP1 REVERT JUMPDEST CALLVALUE DUP1 ISZERO PUSH2 0x5B JUMPI PUSH1 0x0 DUP1 REVERT JUMPDEST POP PUSH2 0x64 PUSH2 0x115 JUMP JUMPDEST PUSH1 0x40 MLOAD PUSH2 0x71 SWAP2 SWAP1 PUSH2 0x804 JUMP JUMPDEST PUSH1 0x40 MLOAD DUP1 SWAP2 SUB SWAP1 RETURN JUMPDEST CALLVALUE DUP1 ISZERO PUSH2 0x86 JUMPI PUSH1 0x0 DUP1 REVERT JUMPDEST POP PUSH2 0x8F PUSH2 0x11B JUMP JUMPDEST STOP JUMPDEST CALLVALUE DUP1 ISZERO PUSH2 0x9D JUMPI PUSH1 0x0 DUP1 REVERT JUMPDEST POP PUSH2 0xB8 PUSH1 0x4 DUP1 CALLDATASIZE SUB DUP2 ADD SWAP1 PUSH2 0xB3 SWAP2 SWAP1 PUSH2 0x638 JUMP JUMPDEST PUSH2 0x2D7 JUMP JUMPDEST PUSH1 0x40 MLOAD PUSH2 0xC5 SWAP2 SWAP1 PUSH2 0x804 JUMP JUMPDEST PUSH1 0x40 MLOAD DUP1 SWAP2 SUB SWAP1 RETURN JUMPDEST PUSH2 0xD6 PUSH2 0x2EF JUMP JUMPDEST STOP JUMPDEST CALLVALUE DUP1 ISZERO PUSH2 0xE4 JUMPI PUSH1 0x0 DUP1 REVERT JUMPDEST POP PUSH2 0xFF PUSH1 0x4 DUP1 CALLDATASIZE SUB DUP2 ADD SWAP1 PUSH2 0xFA SWAP2 SWAP1 PUSH2 0x665 JUMP JUMPDEST PUSH2 0x3F7 JUMP JUMPDEST PUSH1 0x40 MLOAD PUSH2 0x10C SWAP2 SWAP1 PUSH2 0x7A9 JUMP JUMPDEST PUSH1 0x40 MLOAD DUP1 SWAP2 SUB SWAP1 RETURN JUMPDEST PUSH1 0x0 SLOAD DUP2 JUMP JUMPDEST PUSH1 0x0 JUMPDEST PUSH1 0x1 DUP1 SLOAD SWAP1 POP DUP2 LT ISZERO PUSH2 0x1C7 JUMPI PUSH1 0x0 PUSH1 0x1 DUP3 DUP2 SLOAD DUP2 LT PUSH2 0x141 JUMPI PUSH2 0x140 PUSH2 0xB36 JUMP JUMPDEST JUMPDEST SWAP1 PUSH1 0x0 MSTORE PUSH1 0x20 PUSH1 0x0 KECCAK256 ADD PUSH1 0x0 SWAP1 SLOAD SWAP1 PUSH2 0x100 EXP SWAP1 DIV PUSH20 0xFFFFFFFFFFFFFFFFFFFFFFFFFFFFFFFFFFFFFFFF AND SWAP1 POP PUSH1 0x0 PUSH1 0x2 PUSH1 0x0 DUP4 PUSH20 0xFFFFFFFFFFFFFFFFFFFFFFFFFFFFFFFFFFFFFFFF AND PUSH20 0xFFFFFFFFFFFFFFFFFFFFFFFFFFFFFFFFFFFFFFFF AND DUP2 MSTORE PUSH1 0x20 ADD SWAP1 DUP2 MSTORE PUSH1 0x20 ADD PUSH1 0x0 KECCAK256 DUP2 SWAP1 SSTORE POP POP DUP1 DUP1 PUSH2 0x1BF SWAP1 PUSH2 0xA8F JUMP JUMPDEST SWAP2 POP POP PUSH2 0x11E JUMP JUMPDEST POP PUSH1 0x0 PUSH8 0xFFFFFFFFFFFFFFFF DUP2 GT ISZERO PUSH2 0x1E3 JUMPI PUSH2 0x1E2 PUSH2 0xB65 JUMP JUMPDEST JUMPDEST PUSH1 0x40 MLOAD SWAP1 DUP1 DUP3 MSTORE DUP1 PUSH1 0x20 MUL PUSH1 0x20 ADD DUP3 ADD PUSH1 0x40 MSTORE DUP1 ISZERO PUSH2 0x211 JUMPI DUP2 PUSH1 0x20 ADD PUSH1 0x20 DUP3 MUL DUP1 CALLDATASIZE DUP4 CALLDATACOPY DUP1 DUP3 ADD SWAP2 POP POP SWAP1 POP JUMPDEST POP PUSH1 0x1 SWAP1 DUP1 MLOAD SWAP1 PUSH1 0x20 ADD SWAP1 PUSH2 0x227 SWAP3 SWAP2 SWAP1 PUSH2 0x528 JUMP JUMPDEST POP PUSH1 0x0 CALLER PUSH20 0xFFFFFFFFFFFFFFFFFFFFFFFFFFFFFFFFFFFFFFFF AND SELFBALANCE PUSH1 0x40 MLOAD PUSH2 0x24E SWAP1 PUSH2 0x794 JUMP JUMPDEST PUSH1 0x0 PUSH1 0x40 MLOAD DUP1 DUP4 SUB DUP2 DUP6 DUP8 GAS CALL SWAP3 POP POP POP RETURNDATASIZE DUP1 PUSH1 0x0 DUP2 EQ PUSH2 0x28B JUMPI PUSH1 0x40 MLOAD SWAP2 POP PUSH1 0x1F NOT PUSH1 0x3F RETURNDATASIZE ADD AND DUP3 ADD PUSH1 0x40 MSTORE RETURNDATASIZE DUP3 MSTORE RETURNDATASIZE PUSH1 0x0 PUSH1 0x20 DUP5 ADD RETURNDATACOPY PUSH2 0x290 JUMP JUMPDEST PUSH1 0x60 SWAP2 POP JUMPDEST POP POP SWAP1 POP DUP1 PUSH2 0x2D4 JUMPI PUSH1 0x40 MLOAD PUSH32 0x8C379A000000000000000000000000000000000000000000000000000000000 DUP2 MSTORE PUSH1 0x4 ADD PUSH2 0x2CB SWAP1 PUSH2 0x7C4 JUMP JUMPDEST PUSH1 0x40 MLOAD DUP1 SWAP2 SUB SWAP1 REVERT JUMPDEST POP JUMP JUMPDEST PUSH1 0x2 PUSH1 0x20 MSTORE DUP1 PUSH1 0x0 MSTORE PUSH1 0x40 PUSH1 0x0 KECCAK256 PUSH1 0x0 SWAP2 POP SWAP1 POP SLOAD DUP2 JUMP JUMPDEST PUSH1 0x0 SLOAD PUSH2 0x2FB CALLVALUE PUSH2 0x436 JUMP JUMPDEST LT ISZERO PUSH2 0x33C JUMPI PUSH1 0x40 MLOAD PUSH32 0x8C379A000000000000000000000000000000000000000000000000000000000 DUP2 MSTORE PUSH1 0x4 ADD PUSH2 0x333 SWAP1 PUSH2 0x7E4 JUMP JUMPDEST PUSH1 0x40 MLOAD DUP1 SWAP2 SUB SWAP1 REVERT JUMPDEST PUSH1 0x1 CALLER SWAP1 DUP1 PUSH1 0x1 DUP2 SLOAD ADD DUP1 DUP3 SSTORE DUP1 SWAP2 POP POP PUSH1 0x1 SWAP1 SUB SWAP1 PUSH1 0x0 MSTORE PUSH1 0x20 PUSH1 0x0 KECCAK256 ADD PUSH1 0x0 SWAP1 SWAP2 SWAP1 SWAP2 SWAP1 SWAP2 PUSH2 0x100 EXP DUP2 SLOAD DUP2 PUSH20 0xFFFFFFFFFFFFFFFFFFFFFFFFFFFFFFFFFFFFFFFF MUL NOT AND SWAP1 DUP4 PUSH20 0xFFFFFFFFFFFFFFFFFFFFFFFFFFFFFFFFFFFFFFFF AND MUL OR SWAP1 SSTORE POP CALLVALUE PUSH1 0x2 PUSH1 0x0 CALLER PUSH20 0xFFFFFFFFFFFFFFFFFFFFFFFFFFFFFFFFFFFFFFFF AND PUSH20 0xFFFFFFFFFFFFFFFFFFFFFFFFFFFFFFFFFFFFFFFF AND DUP2 MSTORE PUSH1 0x20 ADD SWAP1 DUP2 MSTORE PUSH1 0x20 ADD PUSH1 0x0 KECCAK256 PUSH1 0x0 DUP3 DUP3 SLOAD PUSH2 0x3EE SWAP2 SWAP1 PUSH2 0x83B JUMP JUMPDEST SWAP3 POP POP DUP2 SWAP1 SSTORE POP JUMP JUMPDEST PUSH1 0x1 DUP2 DUP2 SLOAD DUP2 LT PUSH2 0x407 JUMPI PUSH1 0x0 DUP1 REVERT JUMPDEST SWAP1 PUSH1 0x0 MSTORE PUSH1 0x20 PUSH1 0x0 KECCAK256 ADD PUSH1 0x0 SWAP2 POP SLOAD SWAP1 PUSH2 0x100 EXP SWAP1 DIV PUSH20 0xFFFFFFFFFFFFFFFFFFFFFFFFFFFFFFFFFFFFFFFF AND DUP2 JUMP JUMPDEST PUSH1 0x0 DUP1 PUSH2 0x441 PUSH2 0x470 JUMP JUMPDEST SWAP1 POP PUSH1 0x0 PUSH8 0xDE0B6B3A7640000 DUP5 DUP4 PUSH2 0x45A SWAP2 SWAP1 PUSH2 0x9D9 JUMP JUMPDEST PUSH2 0x464 SWAP2 SWAP1 PUSH2 0x891 JUMP JUMPDEST SWAP1 POP DUP1 SWAP3 POP POP POP SWAP2 SWAP1 POP JUMP JUMPDEST PUSH1 0x0 DUP1 PUSH20 0x8A753747A1FA494EC906CE90E9F37563A8AF630E SWAP1 POP PUSH1 0x0 DUP2 PUSH20 0xFFFFFFFFFFFFFFFFFFFFFFFFFFFFFFFFFFFFFFFF AND PUSH4 0xFEAF968C PUSH1 0x40 MLOAD DUP2 PUSH4 0xFFFFFFFF AND PUSH1 0xE0 SHL DUP2 MSTORE PUSH1 0x4 ADD PUSH1 0xA0 PUSH1 0x40 MLOAD DUP1 DUP4 SUB DUP2 DUP7 DUP1 EXTCODESIZE ISZERO DUP1 ISZERO PUSH2 0x4D2 JUMPI PUSH1 0x0 DUP1 REVERT JUMPDEST POP GAS STATICCALL ISZERO DUP1 ISZERO PUSH2 0x4E6 JUMPI RETURNDATASIZE PUSH1 0x0 DUP1 RETURNDATACOPY RETURNDATASIZE PUSH1 0x0 REVERT JUMPDEST POP POP POP POP PUSH1 0x40 MLOAD RETURNDATASIZE PUSH1 0x1F NOT PUSH1 0x1F DUP3 ADD AND DUP3 ADD DUP1 PUSH1 0x40 MSTORE POP DUP2 ADD SWAP1 PUSH2 0x50A SWAP2 SWAP1 PUSH2 0x692 JUMP JUMPDEST POP POP POP SWAP2 POP POP PUSH5 0x2540BE400 DUP2 PUSH2 0x521 SWAP2 SWAP1 PUSH2 0x8C2 JUMP JUMPDEST SWAP3 POP POP POP SWAP1 JUMP JUMPDEST DUP3 DUP1 SLOAD DUP3 DUP3 SSTORE SWAP1 PUSH1 0x0 MSTORE PUSH1 0x20 PUSH1 0x0 KECCAK256 SWAP1 DUP2 ADD SWAP3 DUP3 ISZERO PUSH2 0x5A1 JUMPI SWAP2 PUSH1 0x20 MUL DUP3 ADD JUMPDEST DUP3 DUP2 GT ISZERO PUSH2 0x5A0 JUMPI DUP3 MLOAD DUP3 PUSH1 0x0 PUSH2 0x100 EXP DUP2 SLOAD DUP2 PUSH20 0xFFFFFFFFFFFFFFFFFFFFFFFFFFFFFFFFFFFFFFFF MUL NOT AND SWAP1 DUP4 PUSH20 0xFFFFFFFFFFFFFFFFFFFFFFFFFFFFFFFFFFFFFFFF AND MUL OR SWAP1 SSTORE POP SWAP2 PUSH1 0x20 ADD SWAP2 SWAP1 PUSH1 0x1 ADD SWAP1 PUSH2 0x548 JUMP JUMPDEST JUMPDEST POP SWAP1 POP PUSH2 0x5AE SWAP2 SWAP1 PUSH2 0x5B2 JUMP JUMPDEST POP SWAP1 JUMP JUMPDEST JUMPDEST DUP1 DUP3 GT ISZERO PUSH2 0x5CB JUMPI PUSH1 0x0 DUP2 PUSH1 0x0 SWAP1 SSTORE POP PUSH1 0x1 ADD PUSH2 0x5B3 JUMP JUMPDEST POP SWAP1 JUMP JUMPDEST PUSH1 0x0 DUP2 CALLDATALOAD SWAP1 POP PUSH2 0x5DE DUP2 PUSH2 0xBEE JUMP JUMPDEST SWAP3 SWAP2 POP POP JUMP JUMPDEST PUSH1 0x0 DUP2 MLOAD SWAP1 POP PUSH2 0x5F3 DUP2 PUSH2 0xC05 JUMP JUMPDEST SWAP3 SWAP2 POP POP JUMP JUMPDEST PUSH1 0x0 DUP2 CALLDATALOAD SWAP1 POP PUSH2 0x608 DUP2 PUSH2 0xC1C JUMP JUMPDEST SWAP3 SWAP2 POP POP JUMP JUMPDEST PUSH1 0x0 DUP2 MLOAD SWAP1 POP PUSH2 0x61D DUP2 PUSH2 0xC1C JUMP JUMPDEST SWAP3 SWAP2 POP POP JUMP JUMPDEST PUSH1 0x0 DUP2 MLOAD SWAP1 POP PUSH2 0x632 DUP2 PUSH2 0xC33 JUMP JUMPDEST SWAP3 SWAP2 POP POP JUMP JUMPDEST PUSH1 0x0 PUSH1 0x20 DUP3 DUP5 SUB SLT ISZERO PUSH2 0x64E JUMPI PUSH2 0x64D PUSH2 0xB94 JUMP JUMPDEST JUMPDEST PUSH1 0x0 PUSH2 0x65C DUP5 DUP3 DUP6 ADD PUSH2 0x5CF JUMP JUMPDEST SWAP2 POP POP SWAP3 SWAP2 POP POP JUMP JUMPDEST PUSH1 0x0 PUSH1 0x20 DUP3 DUP5 SUB SLT ISZERO PUSH2 0x67B JUMPI PUSH2 0x67A PUSH2 0xB94 JUMP JUMPDEST JUMPDEST PUSH1 0x0 PUSH2 0x689 DUP5 DUP3 DUP6 ADD PUSH2 0x5F9 JUMP JUMPDEST SWAP2 POP POP SWAP3 SWAP2 POP POP JUMP JUMPDEST PUSH1 0x0 DUP1 PUSH1 0x0 DUP1 PUSH1 0x0 PUSH1 0xA0 DUP7 DUP9 SUB SLT ISZERO PUSH2 0x6AE JUMPI PUSH2 0x6AD PUSH2 0xB94 JUMP JUMPDEST JUMPDEST PUSH1 0x0 PUSH2 0x6BC DUP9 DUP3 DUP10 ADD PUSH2 0x623 JUMP JUMPDEST SWAP6 POP POP PUSH1 0x20 PUSH2 0x6CD DUP9 DUP3 DUP10 ADD PUSH2 0x5E4 JUMP JUMPDEST SWAP5 POP POP PUSH1 0x40 PUSH2 0x6DE DUP9 DUP3 DUP10 ADD PUSH2 0x60E JUMP JUMPDEST SWAP4 POP POP PUSH1 0x60 PUSH2 0x6EF DUP9 DUP3 DUP10 ADD PUSH2 0x60E JUMP JUMPDEST SWAP3 POP POP PUSH1 0x80 PUSH2 0x700 DUP9 DUP3 DUP10 ADD PUSH2 0x623 JUMP JUMPDEST SWAP2 POP POP SWAP3 SWAP6 POP SWAP3 SWAP6 SWAP1 SWAP4 POP JUMP JUMPDEST PUSH2 0x716 DUP2 PUSH2 0xA33 JUMP JUMPDEST DUP3 MSTORE POP POP JUMP JUMPDEST PUSH1 0x0 PUSH2 0x729 PUSH1 0xB DUP4 PUSH2 0x82A JUMP JUMPDEST SWAP2 POP PUSH2 0x734 DUP3 PUSH2 0xB99 JUMP JUMPDEST PUSH1 0x20 DUP3 ADD SWAP1 POP SWAP2 SWAP1 POP JUMP JUMPDEST PUSH1 0x0 PUSH2 0x74C PUSH1 0x0 DUP4 PUSH2 0x81F JUMP JUMPDEST SWAP2 POP PUSH2 0x757 DUP3 PUSH2 0xBC2 JUMP JUMPDEST PUSH1 0x0 DUP3 ADD SWAP1 POP SWAP2 SWAP1 POP JUMP JUMPDEST PUSH1 0x0 PUSH2 0x76F PUSH1 0x13 DUP4 PUSH2 0x82A JUMP JUMPDEST SWAP2 POP PUSH2 0x77A DUP3 PUSH2 0xBC5 JUMP JUMPDEST PUSH1 0x20 DUP3 ADD SWAP1 POP SWAP2 SWAP1 POP JUMP JUMPDEST PUSH2 0x78E DUP2 PUSH2 0xA6F JUMP JUMPDEST DUP3 MSTORE POP POP JUMP JUMPDEST PUSH1 0x0 PUSH2 0x79F DUP3 PUSH2 0x73F JUMP JUMPDEST SWAP2 POP DUP2 SWAP1 POP SWAP2 SWAP1 POP JUMP JUMPDEST PUSH1 0x0 PUSH1 0x20 DUP3 ADD SWAP1 POP PUSH2 0x7BE PUSH1 0x0 DUP4 ADD DUP5 PUSH2 0x70D JUMP JUMPDEST SWAP3 SWAP2 POP POP JUMP JUMPDEST PUSH1 0x0 PUSH1 0x20 DUP3 ADD SWAP1 POP DUP2 DUP2 SUB PUSH1 0x0 DUP4 ADD MSTORE PUSH2 0x7DD DUP2 PUSH2 0x71C JUMP JUMPDEST SWAP1 POP SWAP2 SWAP1 POP JUMP JUMPDEST PUSH1 0x0 PUSH1 0x20 DUP3 ADD SWAP1 POP DUP2 DUP2 SUB PUSH1 0x0 DUP4 ADD MSTORE PUSH2 0x7FD DUP2 PUSH2 0x762 JUMP JUMPDEST SWAP1 POP SWAP2 SWAP1 POP JUMP JUMPDEST PUSH1 0x0 PUSH1 0x20 DUP3 ADD SWAP1 POP PUSH2 0x819 PUSH1 0x0 DUP4 ADD DUP5 PUSH2 0x785 JUMP JUMPDEST SWAP3 SWAP2 POP POP JUMP JUMPDEST PUSH1 0x0 DUP2 SWAP1 POP SWAP3 SWAP2 POP POP JUMP JUMPDEST PUSH1 0x0 DUP3 DUP3 MSTORE PUSH1 0x20 DUP3 ADD SWAP1 POP SWAP3 SWAP2 POP POP JUMP JUMPDEST PUSH1 0x0 PUSH2 0x846 DUP3 PUSH2 0xA6F JUMP JUMPDEST SWAP2 POP PUSH2 0x851 DUP4 PUSH2 0xA6F JUMP JUMPDEST SWAP3 POP DUP3 PUSH32 0xFFFFFFFFFFFFFFFFFFFFFFFFFFFFFFFFFFFFFFFFFFFFFFFFFFFFFFFFFFFFFFFF SUB DUP3 GT ISZERO PUSH2 0x886 JUMPI PUSH2 0x885 PUSH2 0xAD8 JUMP JUMPDEST JUMPDEST DUP3 DUP3 ADD SWAP1 POP SWAP3 SWAP2 POP POP JUMP JUMPDEST PUSH1 0x0 PUSH2 0x89C DUP3 PUSH2 0xA6F JUMP JUMPDEST SWAP2 POP PUSH2 0x8A7 DUP4 PUSH2 0xA6F JUMP JUMPDEST SWAP3 POP DUP3 PUSH2 0x8B7 JUMPI PUSH2 0x8B6 PUSH2 0xB07 JUMP JUMPDEST JUMPDEST DUP3 DUP3 DIV SWAP1 POP SWAP3 SWAP2 POP POP JUMP JUMPDEST PUSH1 0x0 PUSH2 0x8CD DUP3 PUSH2 0xA45 JUMP JUMPDEST SWAP2 POP PUSH2 0x8D8 DUP4 PUSH2 0xA45 JUMP JUMPDEST SWAP3 POP DUP3 PUSH32 0x7FFFFFFFFFFFFFFFFFFFFFFFFFFFFFFFFFFFFFFFFFFFFFFFFFFFFFFFFFFFFFFF DIV DUP3 GT PUSH1 0x0 DUP5 SGT PUSH1 0x0 DUP5 SGT AND AND ISZERO PUSH2 0x917 JUMPI PUSH2 0x916 PUSH2 0xAD8 JUMP JUMPDEST JUMPDEST DUP2 PUSH32 0x8000000000000000000000000000000000000000000000000000000000000000 SDIV DUP4 SLT PUSH1 0x0 DUP5 SLT PUSH1 0x0 DUP5 SGT AND AND ISZERO PUSH2 0x954 JUMPI PUSH2 0x953 PUSH2 0xAD8 JUMP JUMPDEST JUMPDEST DUP3 PUSH32 0x8000000000000000000000000000000000000000000000000000000000000000 SDIV DUP3 SLT PUSH1 0x0 DUP5 SGT PUSH1 0x0 DUP5 SLT AND AND ISZERO PUSH2 0x991 JUMPI PUSH2 0x990 PUSH2 0xAD8 JUMP JUMPDEST JUMPDEST DUP3 PUSH32 0x7FFFFFFFFFFFFFFFFFFFFFFFFFFFFFFFFFFFFFFFFFFFFFFFFFFFFFFFFFFFFFFF SDIV DUP3 SLT PUSH1 0x0 DUP5 SLT PUSH1 0x0 DUP5 SLT AND AND ISZERO PUSH2 0x9CE JUMPI PUSH2 0x9CD PUSH2 0xAD8 JUMP JUMPDEST JUMPDEST DUP3 DUP3 MUL SWAP1 POP SWAP3 SWAP2 POP POP JUMP JUMPDEST PUSH1 0x0 PUSH2 0x9E4 DUP3 PUSH2 0xA6F JUMP JUMPDEST SWAP2 POP PUSH2 0x9EF DUP4 PUSH2 0xA6F JUMP JUMPDEST SWAP3 POP DUP2 PUSH32 0xFFFFFFFFFFFFFFFFFFFFFFFFFFFFFFFFFFFFFFFFFFFFFFFFFFFFFFFFFFFFFFFF DIV DUP4 GT DUP3 ISZERO ISZERO AND ISZERO PUSH2 0xA28 JUMPI PUSH2 0xA27 PUSH2 0xAD8 JUMP JUMPDEST JUMPDEST DUP3 DUP3 MUL SWAP1 POP SWAP3 SWAP2 POP POP JUMP JUMPDEST PUSH1 0x0 PUSH2 0xA3E DUP3 PUSH2 0xA4F JUMP JUMPDEST SWAP1 POP SWAP2 SWAP1 POP JUMP JUMPDEST PUSH1 0x0 DUP2 SWAP1 POP SWAP2 SWAP1 POP JUMP JUMPDEST PUSH1 0x0 PUSH20 0xFFFFFFFFFFFFFFFFFFFFFFFFFFFFFFFFFFFFFFFF DUP3 AND SWAP1 POP SWAP2 SWAP1 POP JUMP JUMPDEST PUSH1 0x0 DUP2 SWAP1 POP SWAP2 SWAP1 POP JUMP JUMPDEST PUSH1 0x0 PUSH10 0xFFFFFFFFFFFFFFFFFFFF DUP3 AND SWAP1 POP SWAP2 SWAP1 POP JUMP JUMPDEST PUSH1 0x0 PUSH2 0xA9A DUP3 PUSH2 0xA6F JUMP JUMPDEST SWAP2 POP PUSH32 0xFFFFFFFFFFFFFFFFFFFFFFFFFFFFFFFFFFFFFFFFFFFFFFFFFFFFFFFFFFFFFFFF DUP3 EQ ISZERO PUSH2 0xACD JUMPI PUSH2 0xACC PUSH2 0xAD8 JUMP JUMPDEST JUMPDEST PUSH1 0x1 DUP3 ADD SWAP1 POP SWAP2 SWAP1 POP JUMP JUMPDEST PUSH32 0x4E487B7100000000000000000000000000000000000000000000000000000000 PUSH1 0x0 MSTORE PUSH1 0x11 PUSH1 0x4 MSTORE PUSH1 0x24 PUSH1 0x0 REVERT JUMPDEST PUSH32 0x4E487B7100000000000000000000000000000000000000000000000000000000 PUSH1 0x0 MSTORE PUSH1 0x12 PUSH1 0x4 MSTORE PUSH1 0x24 PUSH1 0x0 REVERT JUMPDEST PUSH32 0x4E487B7100000000000000000000000000000000000000000000000000000000 PUSH1 0x0 MSTORE PUSH1 0x32 PUSH1 0x4 MSTORE PUSH1 0x24 PUSH1 0x0 REVERT JUMPDEST PUSH32 0x4E487B7100000000000000000000000000000000000000000000000000000000 PUSH1 0x0 MSTORE PUSH1 0x41 PUSH1 0x4 MSTORE PUSH1 0x24 PUSH1 0x0 REVERT JUMPDEST PUSH1 0x0 DUP1 REVERT JUMPDEST PUSH32 0x43616C6C206661696C6564000000000000000000000000000000000000000000 PUSH1 0x0 DUP3 ADD MSTORE POP JUMP JUMPDEST POP JUMP JUMPDEST PUSH32 0x4469646E27742073656E6420656E6F7567682100000000000000000000000000 PUSH1 0x0 DUP3 ADD MSTORE POP JUMP JUMPDEST PUSH2 0xBF7 DUP2 PUSH2 0xA33 JUMP JUMPDEST DUP2 EQ PUSH2 0xC02 JUMPI PUSH1 0x0 DUP1 REVERT JUMPDEST POP JUMP JUMPDEST PUSH2 0xC0E DUP2 PUSH2 0xA45 JUMP JUMPDEST DUP2 EQ PUSH2 0xC19 JUMPI PUSH1 0x0 DUP1 REVERT JUMPDEST POP JUMP JUMPDEST PUSH2 0xC25 DUP2 PUSH2 0xA6F JUMP JUMPDEST DUP2 EQ PUSH2 0xC30 JUMPI PUSH1 0x0 DUP1 REVERT JUMPDEST POP JUMP JUMPDEST PUSH2 0xC3C DUP2 PUSH2 0xA79 JUMP JUMPDEST DUP2 EQ PUSH2 0xC47 JUMPI PUSH1 0x0 DUP1 REVERT JUMPDEST POP JUMP INVALID LOG2 PUSH5 0x6970667358 0x22 SLT KECCAK256 DIV 0xF OR DUP6 BALANCE SELFDESTRUCT 0xF6 TIMESTAMP 0xD1 SELFDESTRUCT 0xD1 ISZERO 0xCE SAR 0xC1 0xE6 SLT 0xFB PUSH29 0x82869113747CFC1583862FBC8D64736F6C634300080700330000000000 "
				},
				"gasEstimates": {
					"creation": {
						"codeDepositCost": "640000",
						"executionCost": "22776",
						"totalCost": "662776"
					},
					"external": {
						"addressToAmountFunded(address)": "2836",
						"fund()": "infinite",
						"funders(uint256)": "5022",
						"minimumUSD()": "2407",
						"withdraw()": "infinite"
					}
				},
				"methodIdentifiers": {
					"addressToAmountFunded(address)": "3e47d6f3",
					"fund()": "b60d4288",
					"funders(uint256)": "dc0d3dff",
					"minimumUSD()": "3430a88c",
					"withdraw()": "3ccfd60b"
				}
			},
			"storageLayout": {
				"storage": [
					{
						"astId": 56,
						"contract": "FundMe.sol:FundMe",
						"label": "minimumUSD",
						"offset": 0,
						"slot": "0",
						"type": "t_uint256"
					},
					{
						"astId": 59,
						"contract": "FundMe.sol:FundMe",
						"label": "funders",
						"offset": 0,
						"slot": "1",
						"type": "t_array(t_address)dyn_storage"
					},
					{
						"astId": 63,
						"contract": "FundMe.sol:FundMe",
						"label": "addressToAmountFunded",
						"offset": 0,
						"slot": "2",
						"type": "t_mapping(t_address,t_uint256)"
					}
				],
				"types": {
					"t_address": {
						"encoding": "inplace",
						"label": "address",
						"numberOfBytes": "20"
					},
					"t_array(t_address)dyn_storage": {
						"base": "t_address",
						"encoding": "dynamic_array",
						"label": "address[]",
						"numberOfBytes": "32"
					},
					"t_mapping(t_address,t_uint256)": {
						"encoding": "mapping",
						"key": "t_address",
						"label": "mapping(address => uint256)",
						"numberOfBytes": "32",
						"value": "t_uint256"
					},
					"t_uint256": {
						"encoding": "inplace",
						"label": "uint256",
						"numberOfBytes": "32"
					}
				}
			},
			"userdoc": {
				"kind": "user",
				"methods": {},
				"version": 1
			}
		}
	}
}