{
	"FundMe.sol": {
		"FundMe": {
			"abi": [
				{
					"inputs": [],
					"name": "fund",
					"outputs": [],
					"stateMutability": "payable",
					"type": "function"
				},
				{
					"inputs": [],
					"name": "getConversionRate",
					"outputs": [],
					"stateMutability": "nonpayable",
					"type": "function"
				},
				{
					"inputs": [],
					"name": "getDecimal",
					"outputs": [
						{
							"internalType": "uint8",
							"name": "",
							"type": "uint8"
						}
					],
					"stateMutability": "view",
					"type": "function"
				},
				{
					"inputs": [],
					"name": "getPrice",
					"outputs": [],
					"stateMutability": "nonpayable",
					"type": "function"
				},
				{
					"inputs": [],
					"name": "getVersion",
					"outputs": [
						{
							"internalType": "uint256",
							"name": "",
							"type": "uint256"
						}
					],
					"stateMutability": "view",
					"type": "function"
				},
				{
					"inputs": [],
					"name": "minimumUSD",
					"outputs": [
						{
							"internalType": "uint256",
							"name": "",
							"type": "uint256"
						}
					],
					"stateMutability": "view",
					"type": "function"
				}
			],
			"devdoc": {
				"kind": "dev",
				"methods": {},
				"version": 1
			},
			"evm": {
				"assembly": "    /* \"FundMe.sol\":413:1394  contract FundMe {\r... */\n  mstore(0x40, 0x80)\n  callvalue\n  dup1\n  iszero\n  tag_1\n  jumpi\n  0x00\n  dup1\n  revert\ntag_1:\n  pop\n  dataSize(sub_0)\n  dup1\n  dataOffset(sub_0)\n  0x00\n  codecopy\n  0x00\n  return\nstop\n\nsub_0: assembly {\n        /* \"FundMe.sol\":413:1394  contract FundMe {\r... */\n      mstore(0x40, 0x80)\n      jumpi(tag_1, lt(calldatasize, 0x04))\n      shr(0xe0, calldataload(0x00))\n      dup1\n      0x0d8e6e2c\n      eq\n      tag_2\n      jumpi\n      dup1\n      0x3430a88c\n      eq\n      tag_3\n      jumpi\n      dup1\n      0x34ce10c4\n      eq\n      tag_4\n      jumpi\n      dup1\n      0x98d5fdca\n      eq\n      tag_5\n      jumpi\n      dup1\n      0xb60d4288\n      eq\n      tag_6\n      jumpi\n      dup1\n      0xf36089ec\n      eq\n      tag_7\n      jumpi\n    tag_1:\n      0x00\n      dup1\n      revert\n        /* \"FundMe.sol\":1095:1304  function getVersion() public view returns (uint256) {\r... */\n    tag_2:\n      callvalue\n      dup1\n      iszero\n      tag_8\n      jumpi\n      0x00\n      dup1\n      revert\n    tag_8:\n      pop\n      tag_9\n      tag_10\n      jump\t// in\n    tag_9:\n      mload(0x40)\n      tag_11\n      swap2\n      swap1\n      tag_12\n      jump\t// in\n    tag_11:\n      mload(0x40)\n      dup1\n      swap2\n      sub\n      swap1\n      return\n        /* \"FundMe.sol\":442:467  uint256 public minimumUSD */\n    tag_3:\n      callvalue\n      dup1\n      iszero\n      tag_13\n      jumpi\n      0x00\n      dup1\n      revert\n    tag_13:\n      pop\n      tag_14\n      tag_15\n      jump\t// in\n    tag_14:\n      mload(0x40)\n      tag_16\n      swap2\n      swap1\n      tag_12\n      jump\t// in\n    tag_16:\n      mload(0x40)\n      dup1\n      swap2\n      sub\n      swap1\n      return\n        /* \"FundMe.sol\":925:1077  function getDecimal() public view returns (uint8) {\r... */\n    tag_4:\n      callvalue\n      dup1\n      iszero\n      tag_17\n      jumpi\n      0x00\n      dup1\n      revert\n    tag_17:\n      pop\n      tag_18\n      tag_19\n      jump\t// in\n    tag_18:\n      mload(0x40)\n      tag_20\n      swap2\n      swap1\n      tag_21\n      jump\t// in\n    tag_20:\n      mload(0x40)\n      dup1\n      swap2\n      sub\n      swap1\n      return\n        /* \"FundMe.sol\":671:859  function getPrice() public {\r... */\n    tag_5:\n      callvalue\n      dup1\n      iszero\n      tag_22\n      jumpi\n      0x00\n      dup1\n      revert\n    tag_22:\n      pop\n      tag_23\n      tag_24\n      jump\t// in\n    tag_23:\n      stop\n        /* \"FundMe.sol\":476:663  function fund() public payable {\r... */\n    tag_6:\n      tag_25\n      tag_26\n      jump\t// in\n    tag_25:\n      stop\n        /* \"FundMe.sol\":1314:1360  function getConversionRate() public {\r... */\n    tag_7:\n      callvalue\n      dup1\n      iszero\n      tag_27\n      jumpi\n      0x00\n      dup1\n      revert\n    tag_27:\n      pop\n      tag_28\n      tag_29\n      jump\t// in\n    tag_28:\n      stop\n        /* \"FundMe.sol\":1095:1304  function getVersion() public view returns (uint256) {\r... */\n    tag_10:\n        /* \"FundMe.sol\":1138:1145  uint256 */\n      0x00\n        /* \"FundMe.sol\":1158:1189  AggregatorV3Interface priceFeed */\n      dup1\n        /* \"FundMe.sol\":1214:1256  0x8A753747A1Fa494EC906cE90E9f37563A8AF630e */\n      0x8a753747a1fa494ec906ce90e9f37563a8af630e\n        /* \"FundMe.sol\":1158:1257  AggregatorV3Interface priceFeed = AggregatorV3Interface(0x8A753747A1Fa494EC906cE90E9f37563A8AF630e) */\n      swap1\n      pop\n        /* \"FundMe.sol\":1275:1284  priceFeed */\n      dup1\n        /* \"FundMe.sol\":1275:1292  priceFeed.version */\n      0xffffffffffffffffffffffffffffffffffffffff\n      and\n      0x54fd4d50\n        /* \"FundMe.sol\":1275:1294  priceFeed.version() */\n      mload(0x40)\n      dup2\n      0xffffffff\n      and\n      0xe0\n      shl\n      dup2\n      mstore\n      0x04\n      add\n      0x20\n      mload(0x40)\n      dup1\n      dup4\n      sub\n      dup2\n      dup7\n      dup1\n      extcodesize\n      iszero\n      dup1\n      iszero\n      tag_31\n      jumpi\n      0x00\n      dup1\n      revert\n    tag_31:\n      pop\n      gas\n      staticcall\n      iszero\n      dup1\n      iszero\n      tag_33\n      jumpi\n      returndatasize\n      0x00\n      dup1\n      returndatacopy\n      revert(0x00, returndatasize)\n    tag_33:\n      pop\n      pop\n      pop\n      pop\n      mload(0x40)\n      returndatasize\n      not(0x1f)\n      0x1f\n      dup3\n      add\n      and\n      dup3\n      add\n      dup1\n      0x40\n      mstore\n      pop\n      dup2\n      add\n      swap1\n      tag_34\n      swap2\n      swap1\n      tag_35\n      jump\t// in\n    tag_34:\n        /* \"FundMe.sol\":1268:1294  return priceFeed.version() */\n      swap2\n      pop\n      pop\n        /* \"FundMe.sol\":1095:1304  function getVersion() public view returns (uint256) {\r... */\n      swap1\n      jump\t// out\n        /* \"FundMe.sol\":442:467  uint256 public minimumUSD */\n    tag_15:\n      sload(0x00)\n      dup2\n      jump\t// out\n        /* \"FundMe.sol\":925:1077  function getDecimal() public view returns (uint8) {\r... */\n    tag_19:\n        /* \"FundMe.sol\":968:973  uint8 */\n      0x00\n        /* \"FundMe.sol\":1015:1057  0x8A753747A1Fa494EC906cE90E9f37563A8AF630e */\n      0x8a753747a1fa494ec906ce90e9f37563a8af630e\n        /* \"FundMe.sol\":993:1067  AggregatorV3Interface(0x8A753747A1Fa494EC906cE90E9f37563A8AF630e).decimals */\n      0xffffffffffffffffffffffffffffffffffffffff\n      and\n      0x313ce567\n        /* \"FundMe.sol\":993:1069  AggregatorV3Interface(0x8A753747A1Fa494EC906cE90E9f37563A8AF630e).decimals() */\n      mload(0x40)\n      dup2\n      0xffffffff\n      and\n      0xe0\n      shl\n      dup2\n      mstore\n      0x04\n      add\n      0x20\n      mload(0x40)\n      dup1\n      dup4\n      sub\n      dup2\n      dup7\n      dup1\n      extcodesize\n      iszero\n      dup1\n      iszero\n      tag_37\n      jumpi\n      0x00\n      dup1\n      revert\n    tag_37:\n      pop\n      gas\n      staticcall\n      iszero\n      dup1\n      iszero\n      tag_39\n      jumpi\n      returndatasize\n      0x00\n      dup1\n      returndatacopy\n      revert(0x00, returndatasize)\n    tag_39:\n      pop\n      pop\n      pop\n      pop\n      mload(0x40)\n      returndatasize\n      not(0x1f)\n      0x1f\n      dup3\n      add\n      and\n      dup3\n      add\n      dup1\n      0x40\n      mstore\n      pop\n      dup2\n      add\n      swap1\n      tag_40\n      swap2\n      swap1\n      tag_41\n      jump\t// in\n    tag_40:\n        /* \"FundMe.sol\":986:1069  return AggregatorV3Interface(0x8A753747A1Fa494EC906cE90E9f37563A8AF630e).decimals() */\n      swap1\n      pop\n        /* \"FundMe.sol\":925:1077  function getDecimal() public view returns (uint8) {\r... */\n      swap1\n      jump\t// out\n        /* \"FundMe.sol\":671:859  function getPrice() public {\r... */\n    tag_24:\n      jump\t// out\n        /* \"FundMe.sol\":476:663  function fund() public payable {\r... */\n    tag_26:\n        /* \"FundMe.sol\":621:631  minimumUSD */\n      sload(0x00)\n        /* \"FundMe.sol\":608:617  msg.value */\n      callvalue\n        /* \"FundMe.sol\":608:631  msg.value >= minimumUSD */\n      lt\n      iszero\n        /* \"FundMe.sol\":600:655  require(msg.value >= minimumUSD, \"Didn't send enough!\") */\n      tag_44\n      jumpi\n      mload(0x40)\n      0x08c379a000000000000000000000000000000000000000000000000000000000\n      dup2\n      mstore\n      0x04\n      add\n      tag_45\n      swap1\n      tag_46\n      jump\t// in\n    tag_45:\n      mload(0x40)\n      dup1\n      swap2\n      sub\n      swap1\n      revert\n    tag_44:\n        /* \"FundMe.sol\":476:663  function fund() public payable {\r... */\n      jump\t// out\n        /* \"FundMe.sol\":1314:1360  function getConversionRate() public {\r... */\n    tag_29:\n      jump\t// out\n        /* \"#utility.yul\":7:150   */\n    tag_49:\n        /* \"#utility.yul\":64:69   */\n      0x00\n        /* \"#utility.yul\":95:101   */\n      dup2\n        /* \"#utility.yul\":89:102   */\n      mload\n        /* \"#utility.yul\":80:102   */\n      swap1\n      pop\n        /* \"#utility.yul\":111:144   */\n      tag_51\n        /* \"#utility.yul\":138:143   */\n      dup2\n        /* \"#utility.yul\":111:144   */\n      tag_52\n      jump\t// in\n    tag_51:\n        /* \"#utility.yul\":7:150   */\n      swap3\n      swap2\n      pop\n      pop\n      jump\t// out\n        /* \"#utility.yul\":156:295   */\n    tag_53:\n        /* \"#utility.yul\":211:216   */\n      0x00\n        /* \"#utility.yul\":242:248   */\n      dup2\n        /* \"#utility.yul\":236:249   */\n      mload\n        /* \"#utility.yul\":227:249   */\n      swap1\n      pop\n        /* \"#utility.yul\":258:289   */\n      tag_55\n        /* \"#utility.yul\":283:288   */\n      dup2\n        /* \"#utility.yul\":258:289   */\n      tag_56\n      jump\t// in\n    tag_55:\n        /* \"#utility.yul\":156:295   */\n      swap3\n      swap2\n      pop\n      pop\n      jump\t// out\n        /* \"#utility.yul\":301:652   */\n    tag_35:\n        /* \"#utility.yul\":371:377   */\n      0x00\n        /* \"#utility.yul\":420:422   */\n      0x20\n        /* \"#utility.yul\":408:417   */\n      dup3\n        /* \"#utility.yul\":399:406   */\n      dup5\n        /* \"#utility.yul\":395:418   */\n      sub\n        /* \"#utility.yul\":391:423   */\n      slt\n        /* \"#utility.yul\":388:507   */\n      iszero\n      tag_58\n      jumpi\n        /* \"#utility.yul\":426:505   */\n      tag_59\n      tag_60\n      jump\t// in\n    tag_59:\n        /* \"#utility.yul\":388:507   */\n    tag_58:\n        /* \"#utility.yul\":546:547   */\n      0x00\n        /* \"#utility.yul\":571:635   */\n      tag_61\n        /* \"#utility.yul\":627:634   */\n      dup5\n        /* \"#utility.yul\":618:624   */\n      dup3\n        /* \"#utility.yul\":607:616   */\n      dup6\n        /* \"#utility.yul\":603:625   */\n      add\n        /* \"#utility.yul\":571:635   */\n      tag_49\n      jump\t// in\n    tag_61:\n        /* \"#utility.yul\":561:635   */\n      swap2\n      pop\n        /* \"#utility.yul\":517:645   */\n      pop\n        /* \"#utility.yul\":301:652   */\n      swap3\n      swap2\n      pop\n      pop\n      jump\t// out\n        /* \"#utility.yul\":658:1005   */\n    tag_41:\n        /* \"#utility.yul\":726:732   */\n      0x00\n        /* \"#utility.yul\":775:777   */\n      0x20\n        /* \"#utility.yul\":763:772   */\n      dup3\n        /* \"#utility.yul\":754:761   */\n      dup5\n        /* \"#utility.yul\":750:773   */\n      sub\n        /* \"#utility.yul\":746:778   */\n      slt\n        /* \"#utility.yul\":743:862   */\n      iszero\n      tag_63\n      jumpi\n        /* \"#utility.yul\":781:860   */\n      tag_64\n      tag_60\n      jump\t// in\n    tag_64:\n        /* \"#utility.yul\":743:862   */\n    tag_63:\n        /* \"#utility.yul\":901:902   */\n      0x00\n        /* \"#utility.yul\":926:988   */\n      tag_65\n        /* \"#utility.yul\":980:987   */\n      dup5\n        /* \"#utility.yul\":971:977   */\n      dup3\n        /* \"#utility.yul\":960:969   */\n      dup6\n        /* \"#utility.yul\":956:978   */\n      add\n        /* \"#utility.yul\":926:988   */\n      tag_53\n      jump\t// in\n    tag_65:\n        /* \"#utility.yul\":916:988   */\n      swap2\n      pop\n        /* \"#utility.yul\":872:998   */\n      pop\n        /* \"#utility.yul\":658:1005   */\n      swap3\n      swap2\n      pop\n      pop\n      jump\t// out\n        /* \"#utility.yul\":1011:1377   */\n    tag_66:\n        /* \"#utility.yul\":1153:1156   */\n      0x00\n        /* \"#utility.yul\":1174:1241   */\n      tag_68\n        /* \"#utility.yul\":1238:1240   */\n      0x13\n        /* \"#utility.yul\":1233:1236   */\n      dup4\n        /* \"#utility.yul\":1174:1241   */\n      tag_69\n      jump\t// in\n    tag_68:\n        /* \"#utility.yul\":1167:1241   */\n      swap2\n      pop\n        /* \"#utility.yul\":1250:1343   */\n      tag_70\n        /* \"#utility.yul\":1339:1342   */\n      dup3\n        /* \"#utility.yul\":1250:1343   */\n      tag_71\n      jump\t// in\n    tag_70:\n        /* \"#utility.yul\":1368:1370   */\n      0x20\n        /* \"#utility.yul\":1363:1366   */\n      dup3\n        /* \"#utility.yul\":1359:1371   */\n      add\n        /* \"#utility.yul\":1352:1371   */\n      swap1\n      pop\n        /* \"#utility.yul\":1011:1377   */\n      swap2\n      swap1\n      pop\n      jump\t// out\n        /* \"#utility.yul\":1383:1501   */\n    tag_72:\n        /* \"#utility.yul\":1470:1494   */\n      tag_74\n        /* \"#utility.yul\":1488:1493   */\n      dup2\n        /* \"#utility.yul\":1470:1494   */\n      tag_75\n      jump\t// in\n    tag_74:\n        /* \"#utility.yul\":1465:1468   */\n      dup3\n        /* \"#utility.yul\":1458:1495   */\n      mstore\n        /* \"#utility.yul\":1383:1501   */\n      pop\n      pop\n      jump\t// out\n        /* \"#utility.yul\":1507:1619   */\n    tag_76:\n        /* \"#utility.yul\":1590:1612   */\n      tag_78\n        /* \"#utility.yul\":1606:1611   */\n      dup2\n        /* \"#utility.yul\":1590:1612   */\n      tag_79\n      jump\t// in\n    tag_78:\n        /* \"#utility.yul\":1585:1588   */\n      dup3\n        /* \"#utility.yul\":1578:1613   */\n      mstore\n        /* \"#utility.yul\":1507:1619   */\n      pop\n      pop\n      jump\t// out\n        /* \"#utility.yul\":1625:2044   */\n    tag_46:\n        /* \"#utility.yul\":1791:1795   */\n      0x00\n        /* \"#utility.yul\":1829:1831   */\n      0x20\n        /* \"#utility.yul\":1818:1827   */\n      dup3\n        /* \"#utility.yul\":1814:1832   */\n      add\n        /* \"#utility.yul\":1806:1832   */\n      swap1\n      pop\n        /* \"#utility.yul\":1878:1887   */\n      dup2\n        /* \"#utility.yul\":1872:1876   */\n      dup2\n        /* \"#utility.yul\":1868:1888   */\n      sub\n        /* \"#utility.yul\":1864:1865   */\n      0x00\n        /* \"#utility.yul\":1853:1862   */\n      dup4\n        /* \"#utility.yul\":1849:1866   */\n      add\n        /* \"#utility.yul\":1842:1889   */\n      mstore\n        /* \"#utility.yul\":1906:2037   */\n      tag_81\n        /* \"#utility.yul\":2032:2036   */\n      dup2\n        /* \"#utility.yul\":1906:2037   */\n      tag_66\n      jump\t// in\n    tag_81:\n        /* \"#utility.yul\":1898:2037   */\n      swap1\n      pop\n        /* \"#utility.yul\":1625:2044   */\n      swap2\n      swap1\n      pop\n      jump\t// out\n        /* \"#utility.yul\":2050:2272   */\n    tag_12:\n        /* \"#utility.yul\":2143:2147   */\n      0x00\n        /* \"#utility.yul\":2181:2183   */\n      0x20\n        /* \"#utility.yul\":2170:2179   */\n      dup3\n        /* \"#utility.yul\":2166:2184   */\n      add\n        /* \"#utility.yul\":2158:2184   */\n      swap1\n      pop\n        /* \"#utility.yul\":2194:2265   */\n      tag_83\n        /* \"#utility.yul\":2262:2263   */\n      0x00\n        /* \"#utility.yul\":2251:2260   */\n      dup4\n        /* \"#utility.yul\":2247:2264   */\n      add\n        /* \"#utility.yul\":2238:2244   */\n      dup5\n        /* \"#utility.yul\":2194:2265   */\n      tag_72\n      jump\t// in\n    tag_83:\n        /* \"#utility.yul\":2050:2272   */\n      swap3\n      swap2\n      pop\n      pop\n      jump\t// out\n        /* \"#utility.yul\":2278:2492   */\n    tag_21:\n        /* \"#utility.yul\":2367:2371   */\n      0x00\n        /* \"#utility.yul\":2405:2407   */\n      0x20\n        /* \"#utility.yul\":2394:2403   */\n      dup3\n        /* \"#utility.yul\":2390:2408   */\n      add\n        /* \"#utility.yul\":2382:2408   */\n      swap1\n      pop\n        /* \"#utility.yul\":2418:2485   */\n      tag_85\n        /* \"#utility.yul\":2482:2483   */\n      0x00\n        /* \"#utility.yul\":2471:2480   */\n      dup4\n        /* \"#utility.yul\":2467:2484   */\n      add\n        /* \"#utility.yul\":2458:2464   */\n      dup5\n        /* \"#utility.yul\":2418:2485   */\n      tag_76\n      jump\t// in\n    tag_85:\n        /* \"#utility.yul\":2278:2492   */\n      swap3\n      swap2\n      pop\n      pop\n      jump\t// out\n        /* \"#utility.yul\":2579:2748   */\n    tag_69:\n        /* \"#utility.yul\":2663:2674   */\n      0x00\n        /* \"#utility.yul\":2697:2703   */\n      dup3\n        /* \"#utility.yul\":2692:2695   */\n      dup3\n        /* \"#utility.yul\":2685:2704   */\n      mstore\n        /* \"#utility.yul\":2737:2741   */\n      0x20\n        /* \"#utility.yul\":2732:2735   */\n      dup3\n        /* \"#utility.yul\":2728:2742   */\n      add\n        /* \"#utility.yul\":2713:2742   */\n      swap1\n      pop\n        /* \"#utility.yul\":2579:2748   */\n      swap3\n      swap2\n      pop\n      pop\n      jump\t// out\n        /* \"#utility.yul\":2754:2831   */\n    tag_75:\n        /* \"#utility.yul\":2791:2798   */\n      0x00\n        /* \"#utility.yul\":2820:2825   */\n      dup2\n        /* \"#utility.yul\":2809:2825   */\n      swap1\n      pop\n        /* \"#utility.yul\":2754:2831   */\n      swap2\n      swap1\n      pop\n      jump\t// out\n        /* \"#utility.yul\":2837:2923   */\n    tag_79:\n        /* \"#utility.yul\":2872:2879   */\n      0x00\n        /* \"#utility.yul\":2912:2916   */\n      0xff\n        /* \"#utility.yul\":2905:2910   */\n      dup3\n        /* \"#utility.yul\":2901:2917   */\n      and\n        /* \"#utility.yul\":2890:2917   */\n      swap1\n      pop\n        /* \"#utility.yul\":2837:2923   */\n      swap2\n      swap1\n      pop\n      jump\t// out\n        /* \"#utility.yul\":3052:3169   */\n    tag_60:\n        /* \"#utility.yul\":3161:3162   */\n      0x00\n        /* \"#utility.yul\":3158:3159   */\n      dup1\n        /* \"#utility.yul\":3151:3163   */\n      revert\n        /* \"#utility.yul\":3175:3344   */\n    tag_71:\n        /* \"#utility.yul\":3315:3336   */\n      0x4469646e27742073656e6420656e6f7567682100000000000000000000000000\n        /* \"#utility.yul\":3311:3312   */\n      0x00\n        /* \"#utility.yul\":3303:3309   */\n      dup3\n        /* \"#utility.yul\":3299:3313   */\n      add\n        /* \"#utility.yul\":3292:3337   */\n      mstore\n        /* \"#utility.yul\":3175:3344   */\n      pop\n      jump\t// out\n        /* \"#utility.yul\":3350:3472   */\n    tag_52:\n        /* \"#utility.yul\":3423:3447   */\n      tag_96\n        /* \"#utility.yul\":3441:3446   */\n      dup2\n        /* \"#utility.yul\":3423:3447   */\n      tag_75\n      jump\t// in\n    tag_96:\n        /* \"#utility.yul\":3416:3421   */\n      dup2\n        /* \"#utility.yul\":3413:3448   */\n      eq\n        /* \"#utility.yul\":3403:3466   */\n      tag_97\n      jumpi\n        /* \"#utility.yul\":3462:3463   */\n      0x00\n        /* \"#utility.yul\":3459:3460   */\n      dup1\n        /* \"#utility.yul\":3452:3464   */\n      revert\n        /* \"#utility.yul\":3403:3466   */\n    tag_97:\n        /* \"#utility.yul\":3350:3472   */\n      pop\n      jump\t// out\n        /* \"#utility.yul\":3478:3596   */\n    tag_56:\n        /* \"#utility.yul\":3549:3571   */\n      tag_99\n        /* \"#utility.yul\":3565:3570   */\n      dup2\n        /* \"#utility.yul\":3549:3571   */\n      tag_79\n      jump\t// in\n    tag_99:\n        /* \"#utility.yul\":3542:3547   */\n      dup2\n        /* \"#utility.yul\":3539:3572   */\n      eq\n        /* \"#utility.yul\":3529:3590   */\n      tag_100\n      jumpi\n        /* \"#utility.yul\":3586:3587   */\n      0x00\n        /* \"#utility.yul\":3583:3584   */\n      dup1\n        /* \"#utility.yul\":3576:3588   */\n      revert\n        /* \"#utility.yul\":3529:3590   */\n    tag_100:\n        /* \"#utility.yul\":3478:3596   */\n      pop\n      jump\t// out\n\n    auxdata: 0xa26469706673582212203f509cd0f10fdb9b3743ef986ddba08b376d138b027e0beaed346f0a0f0aa27964736f6c63430008070033\n}\n",
				"bytecode": {
					"linkReferences": {},
					"object": "608060405234801561001057600080fd5b50610470806100206000396000f3fe6080604052600436106100555760003560e01c80630d8e6e2c1461005a5780633430a88c1461008557806334ce10c4146100b057806398d5fdca146100db578063b60d4288146100f2578063f36089ec146100fc575b600080fd5b34801561006657600080fd5b5061006f610113565b60405161007c9190610380565b60405180910390f35b34801561009157600080fd5b5061009a6101b1565b6040516100a79190610380565b60405180910390f35b3480156100bc57600080fd5b506100c56101b7565b6040516100d2919061039b565b60405180910390f35b3480156100e757600080fd5b506100f0610250565b005b6100fa610252565b005b34801561010857600080fd5b50610111610299565b005b600080738a753747a1fa494ec906ce90e9f37563a8af630e90508073ffffffffffffffffffffffffffffffffffffffff166354fd4d506040518163ffffffff1660e01b815260040160206040518083038186803b15801561017357600080fd5b505afa158015610187573d6000803e3d6000fd5b505050506040513d601f19601f820116820180604052508101906101ab91906102c5565b91505090565b60005481565b6000738a753747a1fa494ec906ce90e9f37563a8af630e73ffffffffffffffffffffffffffffffffffffffff1663313ce5676040518163ffffffff1660e01b815260040160206040518083038186803b15801561021357600080fd5b505afa158015610227573d6000803e3d6000fd5b505050506040513d601f19601f8201168201806040525081019061024b91906102f2565b905090565b565b600054341015610297576040517f08c379a000000000000000000000000000000000000000000000000000000000815260040161028e90610360565b60405180910390fd5b565b565b6000815190506102aa8161040c565b92915050565b6000815190506102bf81610423565b92915050565b6000602082840312156102db576102da6103de565b5b60006102e98482850161029b565b91505092915050565b600060208284031215610308576103076103de565b5b6000610316848285016102b0565b91505092915050565b600061032c6013836103b6565b9150610337826103e3565b602082019050919050565b61034b816103c7565b82525050565b61035a816103d1565b82525050565b600060208201905081810360008301526103798161031f565b9050919050565b60006020820190506103956000830184610342565b92915050565b60006020820190506103b06000830184610351565b92915050565b600082825260208201905092915050565b6000819050919050565b600060ff82169050919050565b600080fd5b7f4469646e27742073656e6420656e6f7567682100000000000000000000000000600082015250565b610415816103c7565b811461042057600080fd5b50565b61042c816103d1565b811461043757600080fd5b5056fea26469706673582212203f509cd0f10fdb9b3743ef986ddba08b376d138b027e0beaed346f0a0f0aa27964736f6c63430008070033",
					"opcodes": "PUSH1 0x80 PUSH1 0x40 MSTORE CALLVALUE DUP1 ISZERO PUSH2 0x10 JUMPI PUSH1 0x0 DUP1 REVERT JUMPDEST POP PUSH2 0x470 DUP1 PUSH2 0x20 PUSH1 0x0 CODECOPY PUSH1 0x0 RETURN INVALID PUSH1 0x80 PUSH1 0x40 MSTORE PUSH1 0x4 CALLDATASIZE LT PUSH2 0x55 JUMPI PUSH1 0x0 CALLDATALOAD PUSH1 0xE0 SHR DUP1 PUSH4 0xD8E6E2C EQ PUSH2 0x5A JUMPI DUP1 PUSH4 0x3430A88C EQ PUSH2 0x85 JUMPI DUP1 PUSH4 0x34CE10C4 EQ PUSH2 0xB0 JUMPI DUP1 PUSH4 0x98D5FDCA EQ PUSH2 0xDB JUMPI DUP1 PUSH4 0xB60D4288 EQ PUSH2 0xF2 JUMPI DUP1 PUSH4 0xF36089EC EQ PUSH2 0xFC JUMPI JUMPDEST PUSH1 0x0 DUP1 REVERT JUMPDEST CALLVALUE DUP1 ISZERO PUSH2 0x66 JUMPI PUSH1 0x0 DUP1 REVERT JUMPDEST POP PUSH2 0x6F PUSH2 0x113 JUMP JUMPDEST PUSH1 0x40 MLOAD PUSH2 0x7C SWAP2 SWAP1 PUSH2 0x380 JUMP JUMPDEST PUSH1 0x40 MLOAD DUP1 SWAP2 SUB SWAP1 RETURN JUMPDEST CALLVALUE DUP1 ISZERO PUSH2 0x91 JUMPI PUSH1 0x0 DUP1 REVERT JUMPDEST POP PUSH2 0x9A PUSH2 0x1B1 JUMP JUMPDEST PUSH1 0x40 MLOAD PUSH2 0xA7 SWAP2 SWAP1 PUSH2 0x380 JUMP JUMPDEST PUSH1 0x40 MLOAD DUP1 SWAP2 SUB SWAP1 RETURN JUMPDEST CALLVALUE DUP1 ISZERO PUSH2 0xBC JUMPI PUSH1 0x0 DUP1 REVERT JUMPDEST POP PUSH2 0xC5 PUSH2 0x1B7 JUMP JUMPDEST PUSH1 0x40 MLOAD PUSH2 0xD2 SWAP2 SWAP1 PUSH2 0x39B JUMP JUMPDEST PUSH1 0x40 MLOAD DUP1 SWAP2 SUB SWAP1 RETURN JUMPDEST CALLVALUE DUP1 ISZERO PUSH2 0xE7 JUMPI PUSH1 0x0 DUP1 REVERT JUMPDEST POP PUSH2 0xF0 PUSH2 0x250 JUMP JUMPDEST STOP JUMPDEST PUSH2 0xFA PUSH2 0x252 JUMP JUMPDEST STOP JUMPDEST CALLVALUE DUP1 ISZERO PUSH2 0x108 JUMPI PUSH1 0x0 DUP1 REVERT JUMPDEST POP PUSH2 0x111 PUSH2 0x299 JUMP JUMPDEST STOP JUMPDEST PUSH1 0x0 DUP1 PUSH20 0x8A753747A1FA494EC906CE90E9F37563A8AF630E SWAP1 POP DUP1 PUSH20 0xFFFFFFFFFFFFFFFFFFFFFFFFFFFFFFFFFFFFFFFF AND PUSH4 0x54FD4D50 PUSH1 0x40 MLOAD DUP2 PUSH4 0xFFFFFFFF AND PUSH1 0xE0 SHL DUP2 MSTORE PUSH1 0x4 ADD PUSH1 0x20 PUSH1 0x40 MLOAD DUP1 DUP4 SUB DUP2 DUP7 DUP1 EXTCODESIZE ISZERO DUP1 ISZERO PUSH2 0x173 JUMPI PUSH1 0x0 DUP1 REVERT JUMPDEST POP GAS STATICCALL ISZERO DUP1 ISZERO PUSH2 0x187 JUMPI RETURNDATASIZE PUSH1 0x0 DUP1 RETURNDATACOPY RETURNDATASIZE PUSH1 0x0 REVERT JUMPDEST POP POP POP POP PUSH1 0x40 MLOAD RETURNDATASIZE PUSH1 0x1F NOT PUSH1 0x1F DUP3 ADD AND DUP3 ADD DUP1 PUSH1 0x40 MSTORE POP DUP2 ADD SWAP1 PUSH2 0x1AB SWAP2 SWAP1 PUSH2 0x2C5 JUMP JUMPDEST SWAP2 POP POP SWAP1 JUMP JUMPDEST PUSH1 0x0 SLOAD DUP2 JUMP JUMPDEST PUSH1 0x0 PUSH20 0x8A753747A1FA494EC906CE90E9F37563A8AF630E PUSH20 0xFFFFFFFFFFFFFFFFFFFFFFFFFFFFFFFFFFFFFFFF AND PUSH4 0x313CE567 PUSH1 0x40 MLOAD DUP2 PUSH4 0xFFFFFFFF AND PUSH1 0xE0 SHL DUP2 MSTORE PUSH1 0x4 ADD PUSH1 0x20 PUSH1 0x40 MLOAD DUP1 DUP4 SUB DUP2 DUP7 DUP1 EXTCODESIZE ISZERO DUP1 ISZERO PUSH2 0x213 JUMPI PUSH1 0x0 DUP1 REVERT JUMPDEST POP GAS STATICCALL ISZERO DUP1 ISZERO PUSH2 0x227 JUMPI RETURNDATASIZE PUSH1 0x0 DUP1 RETURNDATACOPY RETURNDATASIZE PUSH1 0x0 REVERT JUMPDEST POP POP POP POP PUSH1 0x40 MLOAD RETURNDATASIZE PUSH1 0x1F NOT PUSH1 0x1F DUP3 ADD AND DUP3 ADD DUP1 PUSH1 0x40 MSTORE POP DUP2 ADD SWAP1 PUSH2 0x24B SWAP2 SWAP1 PUSH2 0x2F2 JUMP JUMPDEST SWAP1 POP SWAP1 JUMP JUMPDEST JUMP JUMPDEST PUSH1 0x0 SLOAD CALLVALUE LT ISZERO PUSH2 0x297 JUMPI PUSH1 0x40 MLOAD PUSH32 0x8C379A000000000000000000000000000000000000000000000000000000000 DUP2 MSTORE PUSH1 0x4 ADD PUSH2 0x28E SWAP1 PUSH2 0x360 JUMP JUMPDEST PUSH1 0x40 MLOAD DUP1 SWAP2 SUB SWAP1 REVERT JUMPDEST JUMP JUMPDEST JUMP JUMPDEST PUSH1 0x0 DUP2 MLOAD SWAP1 POP PUSH2 0x2AA DUP2 PUSH2 0x40C JUMP JUMPDEST SWAP3 SWAP2 POP POP JUMP JUMPDEST PUSH1 0x0 DUP2 MLOAD SWAP1 POP PUSH2 0x2BF DUP2 PUSH2 0x423 JUMP JUMPDEST SWAP3 SWAP2 POP POP JUMP JUMPDEST PUSH1 0x0 PUSH1 0x20 DUP3 DUP5 SUB SLT ISZERO PUSH2 0x2DB JUMPI PUSH2 0x2DA PUSH2 0x3DE JUMP JUMPDEST JUMPDEST PUSH1 0x0 PUSH2 0x2E9 DUP5 DUP3 DUP6 ADD PUSH2 0x29B JUMP JUMPDEST SWAP2 POP POP SWAP3 SWAP2 POP POP JUMP JUMPDEST PUSH1 0x0 PUSH1 0x20 DUP3 DUP5 SUB SLT ISZERO PUSH2 0x308 JUMPI PUSH2 0x307 PUSH2 0x3DE JUMP JUMPDEST JUMPDEST PUSH1 0x0 PUSH2 0x316 DUP5 DUP3 DUP6 ADD PUSH2 0x2B0 JUMP JUMPDEST SWAP2 POP POP SWAP3 SWAP2 POP POP JUMP JUMPDEST PUSH1 0x0 PUSH2 0x32C PUSH1 0x13 DUP4 PUSH2 0x3B6 JUMP JUMPDEST SWAP2 POP PUSH2 0x337 DUP3 PUSH2 0x3E3 JUMP JUMPDEST PUSH1 0x20 DUP3 ADD SWAP1 POP SWAP2 SWAP1 POP JUMP JUMPDEST PUSH2 0x34B DUP2 PUSH2 0x3C7 JUMP JUMPDEST DUP3 MSTORE POP POP JUMP JUMPDEST PUSH2 0x35A DUP2 PUSH2 0x3D1 JUMP JUMPDEST DUP3 MSTORE POP POP JUMP JUMPDEST PUSH1 0x0 PUSH1 0x20 DUP3 ADD SWAP1 POP DUP2 DUP2 SUB PUSH1 0x0 DUP4 ADD MSTORE PUSH2 0x379 DUP2 PUSH2 0x31F JUMP JUMPDEST SWAP1 POP SWAP2 SWAP1 POP JUMP JUMPDEST PUSH1 0x0 PUSH1 0x20 DUP3 ADD SWAP1 POP PUSH2 0x395 PUSH1 0x0 DUP4 ADD DUP5 PUSH2 0x342 JUMP JUMPDEST SWAP3 SWAP2 POP POP JUMP JUMPDEST PUSH1 0x0 PUSH1 0x20 DUP3 ADD SWAP1 POP PUSH2 0x3B0 PUSH1 0x0 DUP4 ADD DUP5 PUSH2 0x351 JUMP JUMPDEST SWAP3 SWAP2 POP POP JUMP JUMPDEST PUSH1 0x0 DUP3 DUP3 MSTORE PUSH1 0x20 DUP3 ADD SWAP1 POP SWAP3 SWAP2 POP POP JUMP JUMPDEST PUSH1 0x0 DUP2 SWAP1 POP SWAP2 SWAP1 POP JUMP JUMPDEST PUSH1 0x0 PUSH1 0xFF DUP3 AND SWAP1 POP SWAP2 SWAP1 POP JUMP JUMPDEST PUSH1 0x0 DUP1 REVERT JUMPDEST PUSH32 0x4469646E27742073656E6420656E6F7567682100000000000000000000000000 PUSH1 0x0 DUP3 ADD MSTORE POP JUMP JUMPDEST PUSH2 0x415 DUP2 PUSH2 0x3C7 JUMP JUMPDEST DUP2 EQ PUSH2 0x420 JUMPI PUSH1 0x0 DUP1 REVERT JUMPDEST POP JUMP JUMPDEST PUSH2 0x42C DUP2 PUSH2 0x3D1 JUMP JUMPDEST DUP2 EQ PUSH2 0x437 JUMPI PUSH1 0x0 DUP1 REVERT JUMPDEST POP JUMP INVALID LOG2 PUSH5 0x6970667358 0x22 SLT KECCAK256 EXTCODEHASH POP SWAP13 0xD0 CALL 0xF 0xDB SWAP12 CALLDATACOPY NUMBER 0xEF SWAP9 PUSH14 0xDBA08B376D138B027E0BEAED346F EXP 0xF EXP LOG2 PUSH26 0x64736F6C63430008070033000000000000000000000000000000 "
				},
				"gasEstimates": {
					"creation": {
						"codeDepositCost": "227200",
						"executionCost": "269",
						"totalCost": "227469"
					},
					"external": {
						"fund()": "2600",
						"getConversionRate()": "232",
						"getDecimal()": "infinite",
						"getPrice()": "188",
						"getVersion()": "infinite",
						"minimumUSD()": "2429"
					}
				},
				"methodIdentifiers": {
					"fund()": "b60d4288",
					"getConversionRate()": "f36089ec",
					"getDecimal()": "34ce10c4",
					"getPrice()": "98d5fdca",
					"getVersion()": "0d8e6e2c",
					"minimumUSD()": "3430a88c"
				}
			},
			"storageLayout": {
				"storage": [
					{
						"astId": 50,
						"contract": "FundMe.sol:FundMe",
						"label": "minimumUSD",
						"offset": 0,
						"slot": "0",
						"type": "t_uint256"
					}
				],
				"types": {
					"t_uint256": {
						"encoding": "inplace",
						"label": "uint256",
						"numberOfBytes": "32"
					}
				}
			},
			"userdoc": {
				"kind": "user",
				"methods": {},
				"version": 1
			}
		}
	}
}