{
	"FundMe.sol": {
		"FundMe": {
			"abi": [
				{
					"inputs": [],
					"name": "fund",
					"outputs": [],
					"stateMutability": "payable",
					"type": "function"
				},
				{
					"inputs": [
						{
							"internalType": "uint256",
							"name": "ethAmount",
							"type": "uint256"
						}
					],
					"name": "getConversionRate",
					"outputs": [
						{
							"internalType": "uint256",
							"name": "",
							"type": "uint256"
						}
					],
					"stateMutability": "nonpayable",
					"type": "function"
				},
				{
					"inputs": [],
					"name": "getDecimal",
					"outputs": [
						{
							"internalType": "uint8",
							"name": "",
							"type": "uint8"
						}
					],
					"stateMutability": "view",
					"type": "function"
				},
				{
					"inputs": [],
					"name": "getPrice",
					"outputs": [
						{
							"internalType": "uint256",
							"name": "",
							"type": "uint256"
						}
					],
					"stateMutability": "nonpayable",
					"type": "function"
				},
				{
					"inputs": [],
					"name": "getVersion",
					"outputs": [
						{
							"internalType": "uint256",
							"name": "",
							"type": "uint256"
						}
					],
					"stateMutability": "view",
					"type": "function"
				},
				{
					"inputs": [],
					"name": "minimumUSD",
					"outputs": [
						{
							"internalType": "uint256",
							"name": "",
							"type": "uint256"
						}
					],
					"stateMutability": "view",
					"type": "function"
				}
			],
			"devdoc": {
				"kind": "dev",
				"methods": {},
				"version": 1
			},
			"evm": {
				"assembly": "    /* \"FundMe.sol\":413:2620  contract FundMe {\r... */\n  mstore(0x40, 0x80)\n    /* \"FundMe.sol\":534:543  50 * 1e18 */\n  0x02b5e3af16b1880000\n    /* \"FundMe.sol\":506:543  uint256 public minimumUSD = 50 * 1e18 */\n  0x00\n  sstore\n    /* \"FundMe.sol\":413:2620  contract FundMe {\r... */\n  callvalue\n  dup1\n  iszero\n  tag_1\n  jumpi\n  0x00\n  dup1\n  revert\ntag_1:\n  pop\n  dataSize(sub_0)\n  dup1\n  dataOffset(sub_0)\n  0x00\n  codecopy\n  0x00\n  return\nstop\n\nsub_0: assembly {\n        /* \"FundMe.sol\":413:2620  contract FundMe {\r... */\n      mstore(0x40, 0x80)\n      jumpi(tag_1, lt(calldatasize, 0x04))\n      shr(0xe0, calldataload(0x00))\n      dup1\n      0x0d8e6e2c\n      eq\n      tag_2\n      jumpi\n      dup1\n      0x3430a88c\n      eq\n      tag_3\n      jumpi\n      dup1\n      0x34ce10c4\n      eq\n      tag_4\n      jumpi\n      dup1\n      0x6e5b6b28\n      eq\n      tag_5\n      jumpi\n      dup1\n      0x98d5fdca\n      eq\n      tag_6\n      jumpi\n      dup1\n      0xb60d4288\n      eq\n      tag_7\n      jumpi\n    tag_1:\n      0x00\n      dup1\n      revert\n        /* \"FundMe.sol\":1677:1886  function getVersion() public view returns (uint256) {\r... */\n    tag_2:\n      callvalue\n      dup1\n      iszero\n      tag_8\n      jumpi\n      0x00\n      dup1\n      revert\n    tag_8:\n      pop\n      tag_9\n      tag_10\n      jump\t// in\n    tag_9:\n      mload(0x40)\n      tag_11\n      swap2\n      swap1\n      tag_12\n      jump\t// in\n    tag_11:\n      mload(0x40)\n      dup1\n      swap2\n      sub\n      swap1\n      return\n        /* \"FundMe.sol\":506:543  uint256 public minimumUSD = 50 * 1e18 */\n    tag_3:\n      callvalue\n      dup1\n      iszero\n      tag_13\n      jumpi\n      0x00\n      dup1\n      revert\n    tag_13:\n      pop\n      tag_14\n      tag_15\n      jump\t// in\n    tag_14:\n      mload(0x40)\n      tag_16\n      swap2\n      swap1\n      tag_12\n      jump\t// in\n    tag_16:\n      mload(0x40)\n      dup1\n      swap2\n      sub\n      swap1\n      return\n        /* \"FundMe.sol\":1507:1659  function getDecimal() public view returns (uint8) {\r... */\n    tag_4:\n      callvalue\n      dup1\n      iszero\n      tag_17\n      jumpi\n      0x00\n      dup1\n      revert\n    tag_17:\n      pop\n      tag_18\n      tag_19\n      jump\t// in\n    tag_18:\n      mload(0x40)\n      tag_20\n      swap2\n      swap1\n      tag_21\n      jump\t// in\n    tag_20:\n      mload(0x40)\n      dup1\n      swap2\n      sub\n      swap1\n      return\n        /* \"FundMe.sol\":1894:2586  function getConversionRate(uint256 ethAmount) public returns (uint256) {\r... */\n    tag_5:\n      callvalue\n      dup1\n      iszero\n      tag_22\n      jumpi\n      0x00\n      dup1\n      revert\n    tag_22:\n      pop\n      tag_23\n      0x04\n      dup1\n      calldatasize\n      sub\n      dup2\n      add\n      swap1\n      tag_24\n      swap2\n      swap1\n      tag_25\n      jump\t// in\n    tag_24:\n      tag_26\n      jump\t// in\n    tag_23:\n      mload(0x40)\n      tag_27\n      swap2\n      swap1\n      tag_12\n      jump\t// in\n    tag_27:\n      mload(0x40)\n      dup1\n      swap2\n      sub\n      swap1\n      return\n        /* \"FundMe.sol\":871:1416  function getPrice() public returns (uint256) {\r... */\n    tag_6:\n      callvalue\n      dup1\n      iszero\n      tag_28\n      jumpi\n      0x00\n      dup1\n      revert\n    tag_28:\n      pop\n      tag_29\n      tag_30\n      jump\t// in\n    tag_29:\n      mload(0x40)\n      tag_31\n      swap2\n      swap1\n      tag_12\n      jump\t// in\n    tag_31:\n      mload(0x40)\n      dup1\n      swap2\n      sub\n      swap1\n      return\n        /* \"FundMe.sol\":552:795  function fund() public payable {\r... */\n    tag_7:\n      tag_32\n      tag_33\n      jump\t// in\n    tag_32:\n      stop\n        /* \"FundMe.sol\":1677:1886  function getVersion() public view returns (uint256) {\r... */\n    tag_10:\n        /* \"FundMe.sol\":1720:1727  uint256 */\n      0x00\n        /* \"FundMe.sol\":1740:1771  AggregatorV3Interface priceFeed */\n      dup1\n        /* \"FundMe.sol\":1796:1838  0x8A753747A1Fa494EC906cE90E9f37563A8AF630e */\n      0x8a753747a1fa494ec906ce90e9f37563a8af630e\n        /* \"FundMe.sol\":1740:1839  AggregatorV3Interface priceFeed = AggregatorV3Interface(0x8A753747A1Fa494EC906cE90E9f37563A8AF630e) */\n      swap1\n      pop\n        /* \"FundMe.sol\":1857:1866  priceFeed */\n      dup1\n        /* \"FundMe.sol\":1857:1874  priceFeed.version */\n      0xffffffffffffffffffffffffffffffffffffffff\n      and\n      0x54fd4d50\n        /* \"FundMe.sol\":1857:1876  priceFeed.version() */\n      mload(0x40)\n      dup2\n      0xffffffff\n      and\n      0xe0\n      shl\n      dup2\n      mstore\n      0x04\n      add\n      0x20\n      mload(0x40)\n      dup1\n      dup4\n      sub\n      dup2\n      dup7\n      dup1\n      extcodesize\n      iszero\n      dup1\n      iszero\n      tag_35\n      jumpi\n      0x00\n      dup1\n      revert\n    tag_35:\n      pop\n      gas\n      staticcall\n      iszero\n      dup1\n      iszero\n      tag_37\n      jumpi\n      returndatasize\n      0x00\n      dup1\n      returndatacopy\n      revert(0x00, returndatasize)\n    tag_37:\n      pop\n      pop\n      pop\n      pop\n      mload(0x40)\n      returndatasize\n      not(0x1f)\n      0x1f\n      dup3\n      add\n      and\n      dup3\n      add\n      dup1\n      0x40\n      mstore\n      pop\n      dup2\n      add\n      swap1\n      tag_38\n      swap2\n      swap1\n      tag_39\n      jump\t// in\n    tag_38:\n        /* \"FundMe.sol\":1850:1876  return priceFeed.version() */\n      swap2\n      pop\n      pop\n        /* \"FundMe.sol\":1677:1886  function getVersion() public view returns (uint256) {\r... */\n      swap1\n      jump\t// out\n        /* \"FundMe.sol\":506:543  uint256 public minimumUSD = 50 * 1e18 */\n    tag_15:\n      sload(0x00)\n      dup2\n      jump\t// out\n        /* \"FundMe.sol\":1507:1659  function getDecimal() public view returns (uint8) {\r... */\n    tag_19:\n        /* \"FundMe.sol\":1550:1555  uint8 */\n      0x00\n        /* \"FundMe.sol\":1597:1639  0x8A753747A1Fa494EC906cE90E9f37563A8AF630e */\n      0x8a753747a1fa494ec906ce90e9f37563a8af630e\n        /* \"FundMe.sol\":1575:1649  AggregatorV3Interface(0x8A753747A1Fa494EC906cE90E9f37563A8AF630e).decimals */\n      0xffffffffffffffffffffffffffffffffffffffff\n      and\n      0x313ce567\n        /* \"FundMe.sol\":1575:1651  AggregatorV3Interface(0x8A753747A1Fa494EC906cE90E9f37563A8AF630e).decimals() */\n      mload(0x40)\n      dup2\n      0xffffffff\n      and\n      0xe0\n      shl\n      dup2\n      mstore\n      0x04\n      add\n      0x20\n      mload(0x40)\n      dup1\n      dup4\n      sub\n      dup2\n      dup7\n      dup1\n      extcodesize\n      iszero\n      dup1\n      iszero\n      tag_41\n      jumpi\n      0x00\n      dup1\n      revert\n    tag_41:\n      pop\n      gas\n      staticcall\n      iszero\n      dup1\n      iszero\n      tag_43\n      jumpi\n      returndatasize\n      0x00\n      dup1\n      returndatacopy\n      revert(0x00, returndatasize)\n    tag_43:\n      pop\n      pop\n      pop\n      pop\n      mload(0x40)\n      returndatasize\n      not(0x1f)\n      0x1f\n      dup3\n      add\n      and\n      dup3\n      add\n      dup1\n      0x40\n      mstore\n      pop\n      dup2\n      add\n      swap1\n      tag_44\n      swap2\n      swap1\n      tag_45\n      jump\t// in\n    tag_44:\n        /* \"FundMe.sol\":1568:1651  return AggregatorV3Interface(0x8A753747A1Fa494EC906cE90E9f37563A8AF630e).decimals() */\n      swap1\n      pop\n        /* \"FundMe.sol\":1507:1659  function getDecimal() public view returns (uint8) {\r... */\n      swap1\n      jump\t// out\n        /* \"FundMe.sol\":1894:2586  function getConversionRate(uint256 ethAmount) public returns (uint256) {\r... */\n    tag_26:\n        /* \"FundMe.sol\":1956:1963  uint256 */\n      0x00\n        /* \"FundMe.sol\":2414:2430  uint256 ethPrice */\n      dup1\n        /* \"FundMe.sol\":2433:2443  getPrice() */\n      tag_47\n        /* \"FundMe.sol\":2433:2441  getPrice */\n      tag_30\n        /* \"FundMe.sol\":2433:2443  getPrice() */\n      jump\t// in\n    tag_47:\n        /* \"FundMe.sol\":2414:2443  uint256 ethPrice = getPrice() */\n      swap1\n      pop\n        /* \"FundMe.sol\":2491:2513  uint256 ethAmountInUSD */\n      0x00\n        /* \"FundMe.sol\":2541:2545  1e18 */\n      0x0de0b6b3a7640000\n        /* \"FundMe.sol\":2528:2537  ethAmount */\n      dup5\n        /* \"FundMe.sol\":2517:2525  ethPrice */\n      dup4\n        /* \"FundMe.sol\":2517:2537  ethPrice * ethAmount */\n      tag_48\n      swap2\n      swap1\n      tag_49\n      jump\t// in\n    tag_48:\n        /* \"FundMe.sol\":2516:2545  (ethPrice * ethAmount) / 1e18 */\n      tag_50\n      swap2\n      swap1\n      tag_51\n      jump\t// in\n    tag_50:\n        /* \"FundMe.sol\":2491:2545  uint256 ethAmountInUSD = (ethPrice * ethAmount) / 1e18 */\n      swap1\n      pop\n        /* \"FundMe.sol\":2564:2578  ethAmountInUSD */\n      dup1\n        /* \"FundMe.sol\":2557:2578  return ethAmountInUSD */\n      swap3\n      pop\n      pop\n      pop\n        /* \"FundMe.sol\":1894:2586  function getConversionRate(uint256 ethAmount) public returns (uint256) {\r... */\n      swap2\n      swap1\n      pop\n      jump\t// out\n        /* \"FundMe.sol\":871:1416  function getPrice() public returns (uint256) {\r... */\n    tag_30:\n        /* \"FundMe.sol\":907:914  uint256 */\n      0x00\n        /* \"FundMe.sol\":1078:1109  AggregatorV3Interface priceFeed */\n      dup1\n        /* \"FundMe.sol\":1134:1176  0x8A753747A1Fa494EC906cE90E9f37563A8AF630e */\n      0x8a753747a1fa494ec906ce90e9f37563a8af630e\n        /* \"FundMe.sol\":1078:1177  AggregatorV3Interface priceFeed = AggregatorV3Interface(0x8A753747A1Fa494EC906cE90E9f37563A8AF630e) */\n      swap1\n      pop\n        /* \"FundMe.sol\":1223:1235  int256 price */\n      0x00\n        /* \"FundMe.sol\":1284:1293  priceFeed */\n      dup2\n        /* \"FundMe.sol\":1284:1309  priceFeed.latestRoundData */\n      0xffffffffffffffffffffffffffffffffffffffff\n      and\n      0xfeaf968c\n        /* \"FundMe.sol\":1284:1311  priceFeed.latestRoundData() */\n      mload(0x40)\n      dup2\n      0xffffffff\n      and\n      0xe0\n      shl\n      dup2\n      mstore\n      0x04\n      add\n      0xa0\n      mload(0x40)\n      dup1\n      dup4\n      sub\n      dup2\n      dup7\n      dup1\n      extcodesize\n      iszero\n      dup1\n      iszero\n      tag_53\n      jumpi\n      0x00\n      dup1\n      revert\n    tag_53:\n      pop\n      gas\n      staticcall\n      iszero\n      dup1\n      iszero\n      tag_55\n      jumpi\n      returndatasize\n      0x00\n      dup1\n      returndatacopy\n      revert(0x00, returndatasize)\n    tag_55:\n      pop\n      pop\n      pop\n      pop\n      mload(0x40)\n      returndatasize\n      not(0x1f)\n      0x1f\n      dup3\n      add\n      and\n      dup3\n      add\n      dup1\n      0x40\n      mstore\n      pop\n      dup2\n      add\n      swap1\n      tag_56\n      swap2\n      swap1\n      tag_57\n      jump\t// in\n    tag_56:\n        /* \"FundMe.sol\":1188:1311  (     \r... */\n      pop\n      pop\n      pop\n      swap2\n      pop\n      pop\n        /* \"FundMe.sol\":1403:1407  1e10 */\n      0x02540be400\n        /* \"FundMe.sol\":1395:1400  price */\n      dup2\n        /* \"FundMe.sol\":1395:1407  price * 1e10 */\n      tag_58\n      swap2\n      swap1\n      tag_59\n      jump\t// in\n    tag_58:\n        /* \"FundMe.sol\":1380:1408  return uint256(price * 1e10) */\n      swap3\n      pop\n      pop\n      pop\n        /* \"FundMe.sol\":871:1416  function getPrice() public returns (uint256) {\r... */\n      swap1\n      jump\t// out\n        /* \"FundMe.sol\":552:795  function fund() public payable {\r... */\n    tag_33:\n        /* \"FundMe.sol\":753:763  minimumUSD */\n      sload(0x00)\n        /* \"FundMe.sol\":721:749  getConversionRate(msg.value) */\n      tag_61\n        /* \"FundMe.sol\":739:748  msg.value */\n      callvalue\n        /* \"FundMe.sol\":721:738  getConversionRate */\n      tag_26\n        /* \"FundMe.sol\":721:749  getConversionRate(msg.value) */\n      jump\t// in\n    tag_61:\n        /* \"FundMe.sol\":721:763  getConversionRate(msg.value) >= minimumUSD */\n      lt\n      iszero\n        /* \"FundMe.sol\":713:787  require(getConversionRate(msg.value) >= minimumUSD, \"Didn't send enough!\") */\n      tag_62\n      jumpi\n      mload(0x40)\n      0x08c379a000000000000000000000000000000000000000000000000000000000\n      dup2\n      mstore\n      0x04\n      add\n      tag_63\n      swap1\n      tag_64\n      jump\t// in\n    tag_63:\n      mload(0x40)\n      dup1\n      swap2\n      sub\n      swap1\n      revert\n    tag_62:\n        /* \"FundMe.sol\":552:795  function fund() public payable {\r... */\n      jump\t// out\n        /* \"#utility.yul\":7:148   */\n    tag_66:\n        /* \"#utility.yul\":63:68   */\n      0x00\n        /* \"#utility.yul\":94:100   */\n      dup2\n        /* \"#utility.yul\":88:101   */\n      mload\n        /* \"#utility.yul\":79:101   */\n      swap1\n      pop\n        /* \"#utility.yul\":110:142   */\n      tag_68\n        /* \"#utility.yul\":136:141   */\n      dup2\n        /* \"#utility.yul\":110:142   */\n      tag_69\n      jump\t// in\n    tag_68:\n        /* \"#utility.yul\":7:148   */\n      swap3\n      swap2\n      pop\n      pop\n      jump\t// out\n        /* \"#utility.yul\":154:293   */\n    tag_70:\n        /* \"#utility.yul\":200:205   */\n      0x00\n        /* \"#utility.yul\":238:244   */\n      dup2\n        /* \"#utility.yul\":225:245   */\n      calldataload\n        /* \"#utility.yul\":216:245   */\n      swap1\n      pop\n        /* \"#utility.yul\":254:287   */\n      tag_72\n        /* \"#utility.yul\":281:286   */\n      dup2\n        /* \"#utility.yul\":254:287   */\n      tag_73\n      jump\t// in\n    tag_72:\n        /* \"#utility.yul\":154:293   */\n      swap3\n      swap2\n      pop\n      pop\n      jump\t// out\n        /* \"#utility.yul\":299:442   */\n    tag_74:\n        /* \"#utility.yul\":356:361   */\n      0x00\n        /* \"#utility.yul\":387:393   */\n      dup2\n        /* \"#utility.yul\":381:394   */\n      mload\n        /* \"#utility.yul\":372:394   */\n      swap1\n      pop\n        /* \"#utility.yul\":403:436   */\n      tag_76\n        /* \"#utility.yul\":430:435   */\n      dup2\n        /* \"#utility.yul\":403:436   */\n      tag_73\n      jump\t// in\n    tag_76:\n        /* \"#utility.yul\":299:442   */\n      swap3\n      swap2\n      pop\n      pop\n      jump\t// out\n        /* \"#utility.yul\":448:589   */\n    tag_77:\n        /* \"#utility.yul\":504:509   */\n      0x00\n        /* \"#utility.yul\":535:541   */\n      dup2\n        /* \"#utility.yul\":529:542   */\n      mload\n        /* \"#utility.yul\":520:542   */\n      swap1\n      pop\n        /* \"#utility.yul\":551:583   */\n      tag_79\n        /* \"#utility.yul\":577:582   */\n      dup2\n        /* \"#utility.yul\":551:583   */\n      tag_80\n      jump\t// in\n    tag_79:\n        /* \"#utility.yul\":448:589   */\n      swap3\n      swap2\n      pop\n      pop\n      jump\t// out\n        /* \"#utility.yul\":595:734   */\n    tag_81:\n        /* \"#utility.yul\":650:655   */\n      0x00\n        /* \"#utility.yul\":681:687   */\n      dup2\n        /* \"#utility.yul\":675:688   */\n      mload\n        /* \"#utility.yul\":666:688   */\n      swap1\n      pop\n        /* \"#utility.yul\":697:728   */\n      tag_83\n        /* \"#utility.yul\":722:727   */\n      dup2\n        /* \"#utility.yul\":697:728   */\n      tag_84\n      jump\t// in\n    tag_83:\n        /* \"#utility.yul\":595:734   */\n      swap3\n      swap2\n      pop\n      pop\n      jump\t// out\n        /* \"#utility.yul\":740:1069   */\n    tag_25:\n        /* \"#utility.yul\":799:805   */\n      0x00\n        /* \"#utility.yul\":848:850   */\n      0x20\n        /* \"#utility.yul\":836:845   */\n      dup3\n        /* \"#utility.yul\":827:834   */\n      dup5\n        /* \"#utility.yul\":823:846   */\n      sub\n        /* \"#utility.yul\":819:851   */\n      slt\n        /* \"#utility.yul\":816:935   */\n      iszero\n      tag_86\n      jumpi\n        /* \"#utility.yul\":854:933   */\n      tag_87\n      tag_88\n      jump\t// in\n    tag_87:\n        /* \"#utility.yul\":816:935   */\n    tag_86:\n        /* \"#utility.yul\":974:975   */\n      0x00\n        /* \"#utility.yul\":999:1052   */\n      tag_89\n        /* \"#utility.yul\":1044:1051   */\n      dup5\n        /* \"#utility.yul\":1035:1041   */\n      dup3\n        /* \"#utility.yul\":1024:1033   */\n      dup6\n        /* \"#utility.yul\":1020:1042   */\n      add\n        /* \"#utility.yul\":999:1052   */\n      tag_70\n      jump\t// in\n    tag_89:\n        /* \"#utility.yul\":989:1052   */\n      swap2\n      pop\n        /* \"#utility.yul\":945:1062   */\n      pop\n        /* \"#utility.yul\":740:1069   */\n      swap3\n      swap2\n      pop\n      pop\n      jump\t// out\n        /* \"#utility.yul\":1075:1426   */\n    tag_39:\n        /* \"#utility.yul\":1145:1151   */\n      0x00\n        /* \"#utility.yul\":1194:1196   */\n      0x20\n        /* \"#utility.yul\":1182:1191   */\n      dup3\n        /* \"#utility.yul\":1173:1180   */\n      dup5\n        /* \"#utility.yul\":1169:1192   */\n      sub\n        /* \"#utility.yul\":1165:1197   */\n      slt\n        /* \"#utility.yul\":1162:1281   */\n      iszero\n      tag_91\n      jumpi\n        /* \"#utility.yul\":1200:1279   */\n      tag_92\n      tag_88\n      jump\t// in\n    tag_92:\n        /* \"#utility.yul\":1162:1281   */\n    tag_91:\n        /* \"#utility.yul\":1320:1321   */\n      0x00\n        /* \"#utility.yul\":1345:1409   */\n      tag_93\n        /* \"#utility.yul\":1401:1408   */\n      dup5\n        /* \"#utility.yul\":1392:1398   */\n      dup3\n        /* \"#utility.yul\":1381:1390   */\n      dup6\n        /* \"#utility.yul\":1377:1399   */\n      add\n        /* \"#utility.yul\":1345:1409   */\n      tag_74\n      jump\t// in\n    tag_93:\n        /* \"#utility.yul\":1335:1409   */\n      swap2\n      pop\n        /* \"#utility.yul\":1291:1419   */\n      pop\n        /* \"#utility.yul\":1075:1426   */\n      swap3\n      swap2\n      pop\n      pop\n      jump\t// out\n        /* \"#utility.yul\":1432:2403   */\n    tag_57:\n        /* \"#utility.yul\":1535:1541   */\n      0x00\n        /* \"#utility.yul\":1543:1549   */\n      dup1\n        /* \"#utility.yul\":1551:1557   */\n      0x00\n        /* \"#utility.yul\":1559:1565   */\n      dup1\n        /* \"#utility.yul\":1567:1573   */\n      0x00\n        /* \"#utility.yul\":1616:1619   */\n      0xa0\n        /* \"#utility.yul\":1604:1613   */\n      dup7\n        /* \"#utility.yul\":1595:1602   */\n      dup9\n        /* \"#utility.yul\":1591:1614   */\n      sub\n        /* \"#utility.yul\":1587:1620   */\n      slt\n        /* \"#utility.yul\":1584:1704   */\n      iszero\n      tag_95\n      jumpi\n        /* \"#utility.yul\":1623:1702   */\n      tag_96\n      tag_88\n      jump\t// in\n    tag_96:\n        /* \"#utility.yul\":1584:1704   */\n    tag_95:\n        /* \"#utility.yul\":1743:1744   */\n      0x00\n        /* \"#utility.yul\":1768:1831   */\n      tag_97\n        /* \"#utility.yul\":1823:1830   */\n      dup9\n        /* \"#utility.yul\":1814:1820   */\n      dup3\n        /* \"#utility.yul\":1803:1812   */\n      dup10\n        /* \"#utility.yul\":1799:1821   */\n      add\n        /* \"#utility.yul\":1768:1831   */\n      tag_77\n      jump\t// in\n    tag_97:\n        /* \"#utility.yul\":1758:1831   */\n      swap6\n      pop\n        /* \"#utility.yul\":1714:1841   */\n      pop\n        /* \"#utility.yul\":1880:1882   */\n      0x20\n        /* \"#utility.yul\":1906:1969   */\n      tag_98\n        /* \"#utility.yul\":1961:1968   */\n      dup9\n        /* \"#utility.yul\":1952:1958   */\n      dup3\n        /* \"#utility.yul\":1941:1950   */\n      dup10\n        /* \"#utility.yul\":1937:1959   */\n      add\n        /* \"#utility.yul\":1906:1969   */\n      tag_66\n      jump\t// in\n    tag_98:\n        /* \"#utility.yul\":1896:1969   */\n      swap5\n      pop\n        /* \"#utility.yul\":1851:1979   */\n      pop\n        /* \"#utility.yul\":2018:2020   */\n      0x40\n        /* \"#utility.yul\":2044:2108   */\n      tag_99\n        /* \"#utility.yul\":2100:2107   */\n      dup9\n        /* \"#utility.yul\":2091:2097   */\n      dup3\n        /* \"#utility.yul\":2080:2089   */\n      dup10\n        /* \"#utility.yul\":2076:2098   */\n      add\n        /* \"#utility.yul\":2044:2108   */\n      tag_74\n      jump\t// in\n    tag_99:\n        /* \"#utility.yul\":2034:2108   */\n      swap4\n      pop\n        /* \"#utility.yul\":1989:2118   */\n      pop\n        /* \"#utility.yul\":2157:2159   */\n      0x60\n        /* \"#utility.yul\":2183:2247   */\n      tag_100\n        /* \"#utility.yul\":2239:2246   */\n      dup9\n        /* \"#utility.yul\":2230:2236   */\n      dup3\n        /* \"#utility.yul\":2219:2228   */\n      dup10\n        /* \"#utility.yul\":2215:2237   */\n      add\n        /* \"#utility.yul\":2183:2247   */\n      tag_74\n      jump\t// in\n    tag_100:\n        /* \"#utility.yul\":2173:2247   */\n      swap3\n      pop\n        /* \"#utility.yul\":2128:2257   */\n      pop\n        /* \"#utility.yul\":2296:2299   */\n      0x80\n        /* \"#utility.yul\":2323:2386   */\n      tag_101\n        /* \"#utility.yul\":2378:2385   */\n      dup9\n        /* \"#utility.yul\":2369:2375   */\n      dup3\n        /* \"#utility.yul\":2358:2367   */\n      dup10\n        /* \"#utility.yul\":2354:2376   */\n      add\n        /* \"#utility.yul\":2323:2386   */\n      tag_77\n      jump\t// in\n    tag_101:\n        /* \"#utility.yul\":2313:2386   */\n      swap2\n      pop\n        /* \"#utility.yul\":2267:2396   */\n      pop\n        /* \"#utility.yul\":1432:2403   */\n      swap3\n      swap6\n      pop\n      swap3\n      swap6\n      swap1\n      swap4\n      pop\n      jump\t// out\n        /* \"#utility.yul\":2409:2756   */\n    tag_45:\n        /* \"#utility.yul\":2477:2483   */\n      0x00\n        /* \"#utility.yul\":2526:2528   */\n      0x20\n        /* \"#utility.yul\":2514:2523   */\n      dup3\n        /* \"#utility.yul\":2505:2512   */\n      dup5\n        /* \"#utility.yul\":2501:2524   */\n      sub\n        /* \"#utility.yul\":2497:2529   */\n      slt\n        /* \"#utility.yul\":2494:2613   */\n      iszero\n      tag_103\n      jumpi\n        /* \"#utility.yul\":2532:2611   */\n      tag_104\n      tag_88\n      jump\t// in\n    tag_104:\n        /* \"#utility.yul\":2494:2613   */\n    tag_103:\n        /* \"#utility.yul\":2652:2653   */\n      0x00\n        /* \"#utility.yul\":2677:2739   */\n      tag_105\n        /* \"#utility.yul\":2731:2738   */\n      dup5\n        /* \"#utility.yul\":2722:2728   */\n      dup3\n        /* \"#utility.yul\":2711:2720   */\n      dup6\n        /* \"#utility.yul\":2707:2729   */\n      add\n        /* \"#utility.yul\":2677:2739   */\n      tag_81\n      jump\t// in\n    tag_105:\n        /* \"#utility.yul\":2667:2739   */\n      swap2\n      pop\n        /* \"#utility.yul\":2623:2749   */\n      pop\n        /* \"#utility.yul\":2409:2756   */\n      swap3\n      swap2\n      pop\n      pop\n      jump\t// out\n        /* \"#utility.yul\":2762:3128   */\n    tag_106:\n        /* \"#utility.yul\":2904:2907   */\n      0x00\n        /* \"#utility.yul\":2925:2992   */\n      tag_108\n        /* \"#utility.yul\":2989:2991   */\n      0x13\n        /* \"#utility.yul\":2984:2987   */\n      dup4\n        /* \"#utility.yul\":2925:2992   */\n      tag_109\n      jump\t// in\n    tag_108:\n        /* \"#utility.yul\":2918:2992   */\n      swap2\n      pop\n        /* \"#utility.yul\":3001:3094   */\n      tag_110\n        /* \"#utility.yul\":3090:3093   */\n      dup3\n        /* \"#utility.yul\":3001:3094   */\n      tag_111\n      jump\t// in\n    tag_110:\n        /* \"#utility.yul\":3119:3121   */\n      0x20\n        /* \"#utility.yul\":3114:3117   */\n      dup3\n        /* \"#utility.yul\":3110:3122   */\n      add\n        /* \"#utility.yul\":3103:3122   */\n      swap1\n      pop\n        /* \"#utility.yul\":2762:3128   */\n      swap2\n      swap1\n      pop\n      jump\t// out\n        /* \"#utility.yul\":3134:3252   */\n    tag_112:\n        /* \"#utility.yul\":3221:3245   */\n      tag_114\n        /* \"#utility.yul\":3239:3244   */\n      dup2\n        /* \"#utility.yul\":3221:3245   */\n      tag_115\n      jump\t// in\n    tag_114:\n        /* \"#utility.yul\":3216:3219   */\n      dup3\n        /* \"#utility.yul\":3209:3246   */\n      mstore\n        /* \"#utility.yul\":3134:3252   */\n      pop\n      pop\n      jump\t// out\n        /* \"#utility.yul\":3258:3370   */\n    tag_116:\n        /* \"#utility.yul\":3341:3363   */\n      tag_118\n        /* \"#utility.yul\":3357:3362   */\n      dup2\n        /* \"#utility.yul\":3341:3363   */\n      tag_119\n      jump\t// in\n    tag_118:\n        /* \"#utility.yul\":3336:3339   */\n      dup3\n        /* \"#utility.yul\":3329:3364   */\n      mstore\n        /* \"#utility.yul\":3258:3370   */\n      pop\n      pop\n      jump\t// out\n        /* \"#utility.yul\":3376:3795   */\n    tag_64:\n        /* \"#utility.yul\":3542:3546   */\n      0x00\n        /* \"#utility.yul\":3580:3582   */\n      0x20\n        /* \"#utility.yul\":3569:3578   */\n      dup3\n        /* \"#utility.yul\":3565:3583   */\n      add\n        /* \"#utility.yul\":3557:3583   */\n      swap1\n      pop\n        /* \"#utility.yul\":3629:3638   */\n      dup2\n        /* \"#utility.yul\":3623:3627   */\n      dup2\n        /* \"#utility.yul\":3619:3639   */\n      sub\n        /* \"#utility.yul\":3615:3616   */\n      0x00\n        /* \"#utility.yul\":3604:3613   */\n      dup4\n        /* \"#utility.yul\":3600:3617   */\n      add\n        /* \"#utility.yul\":3593:3640   */\n      mstore\n        /* \"#utility.yul\":3657:3788   */\n      tag_121\n        /* \"#utility.yul\":3783:3787   */\n      dup2\n        /* \"#utility.yul\":3657:3788   */\n      tag_106\n      jump\t// in\n    tag_121:\n        /* \"#utility.yul\":3649:3788   */\n      swap1\n      pop\n        /* \"#utility.yul\":3376:3795   */\n      swap2\n      swap1\n      pop\n      jump\t// out\n        /* \"#utility.yul\":3801:4023   */\n    tag_12:\n        /* \"#utility.yul\":3894:3898   */\n      0x00\n        /* \"#utility.yul\":3932:3934   */\n      0x20\n        /* \"#utility.yul\":3921:3930   */\n      dup3\n        /* \"#utility.yul\":3917:3935   */\n      add\n        /* \"#utility.yul\":3909:3935   */\n      swap1\n      pop\n        /* \"#utility.yul\":3945:4016   */\n      tag_123\n        /* \"#utility.yul\":4013:4014   */\n      0x00\n        /* \"#utility.yul\":4002:4011   */\n      dup4\n        /* \"#utility.yul\":3998:4015   */\n      add\n        /* \"#utility.yul\":3989:3995   */\n      dup5\n        /* \"#utility.yul\":3945:4016   */\n      tag_112\n      jump\t// in\n    tag_123:\n        /* \"#utility.yul\":3801:4023   */\n      swap3\n      swap2\n      pop\n      pop\n      jump\t// out\n        /* \"#utility.yul\":4029:4243   */\n    tag_21:\n        /* \"#utility.yul\":4118:4122   */\n      0x00\n        /* \"#utility.yul\":4156:4158   */\n      0x20\n        /* \"#utility.yul\":4145:4154   */\n      dup3\n        /* \"#utility.yul\":4141:4159   */\n      add\n        /* \"#utility.yul\":4133:4159   */\n      swap1\n      pop\n        /* \"#utility.yul\":4169:4236   */\n      tag_125\n        /* \"#utility.yul\":4233:4234   */\n      0x00\n        /* \"#utility.yul\":4222:4231   */\n      dup4\n        /* \"#utility.yul\":4218:4235   */\n      add\n        /* \"#utility.yul\":4209:4215   */\n      dup5\n        /* \"#utility.yul\":4169:4236   */\n      tag_116\n      jump\t// in\n    tag_125:\n        /* \"#utility.yul\":4029:4243   */\n      swap3\n      swap2\n      pop\n      pop\n      jump\t// out\n        /* \"#utility.yul\":4330:4499   */\n    tag_109:\n        /* \"#utility.yul\":4414:4425   */\n      0x00\n        /* \"#utility.yul\":4448:4454   */\n      dup3\n        /* \"#utility.yul\":4443:4446   */\n      dup3\n        /* \"#utility.yul\":4436:4455   */\n      mstore\n        /* \"#utility.yul\":4488:4492   */\n      0x20\n        /* \"#utility.yul\":4483:4486   */\n      dup3\n        /* \"#utility.yul\":4479:4493   */\n      add\n        /* \"#utility.yul\":4464:4493   */\n      swap1\n      pop\n        /* \"#utility.yul\":4330:4499   */\n      swap3\n      swap2\n      pop\n      pop\n      jump\t// out\n        /* \"#utility.yul\":4505:4690   */\n    tag_51:\n        /* \"#utility.yul\":4545:4546   */\n      0x00\n        /* \"#utility.yul\":4562:4582   */\n      tag_130\n        /* \"#utility.yul\":4580:4581   */\n      dup3\n        /* \"#utility.yul\":4562:4582   */\n      tag_115\n      jump\t// in\n    tag_130:\n        /* \"#utility.yul\":4557:4582   */\n      swap2\n      pop\n        /* \"#utility.yul\":4596:4616   */\n      tag_131\n        /* \"#utility.yul\":4614:4615   */\n      dup4\n        /* \"#utility.yul\":4596:4616   */\n      tag_115\n      jump\t// in\n    tag_131:\n        /* \"#utility.yul\":4591:4616   */\n      swap3\n      pop\n        /* \"#utility.yul\":4635:4636   */\n      dup3\n        /* \"#utility.yul\":4625:4660   */\n      tag_132\n      jumpi\n        /* \"#utility.yul\":4640:4658   */\n      tag_133\n      tag_134\n      jump\t// in\n    tag_133:\n        /* \"#utility.yul\":4625:4660   */\n    tag_132:\n        /* \"#utility.yul\":4682:4683   */\n      dup3\n        /* \"#utility.yul\":4679:4680   */\n      dup3\n        /* \"#utility.yul\":4675:4684   */\n      div\n        /* \"#utility.yul\":4670:4684   */\n      swap1\n      pop\n        /* \"#utility.yul\":4505:4690   */\n      swap3\n      swap2\n      pop\n      pop\n      jump\t// out\n        /* \"#utility.yul\":4696:5687   */\n    tag_59:\n        /* \"#utility.yul\":4735:4742   */\n      0x00\n        /* \"#utility.yul\":4758:4777   */\n      tag_136\n        /* \"#utility.yul\":4775:4776   */\n      dup3\n        /* \"#utility.yul\":4758:4777   */\n      tag_137\n      jump\t// in\n    tag_136:\n        /* \"#utility.yul\":4753:4777   */\n      swap2\n      pop\n        /* \"#utility.yul\":4791:4810   */\n      tag_138\n        /* \"#utility.yul\":4808:4809   */\n      dup4\n        /* \"#utility.yul\":4791:4810   */\n      tag_137\n      jump\t// in\n    tag_138:\n        /* \"#utility.yul\":4786:4810   */\n      swap3\n      pop\n        /* \"#utility.yul\":4992:4993   */\n      dup3\n        /* \"#utility.yul\":4924:4990   */\n      0x7fffffffffffffffffffffffffffffffffffffffffffffffffffffffffffffff\n        /* \"#utility.yul\":4920:4994   */\n      div\n        /* \"#utility.yul\":4917:4918   */\n      dup3\n        /* \"#utility.yul\":4914:4995   */\n      gt\n        /* \"#utility.yul\":4909:4910   */\n      0x00\n        /* \"#utility.yul\":4906:4907   */\n      dup5\n        /* \"#utility.yul\":4902:4911   */\n      sgt\n        /* \"#utility.yul\":4898:4899   */\n      0x00\n        /* \"#utility.yul\":4895:4896   */\n      dup5\n        /* \"#utility.yul\":4891:4900   */\n      sgt\n        /* \"#utility.yul\":4887:4912   */\n      and\n        /* \"#utility.yul\":4883:4996   */\n      and\n        /* \"#utility.yul\":4880:5019   */\n      iszero\n      tag_139\n      jumpi\n        /* \"#utility.yul\":4999:5017   */\n      tag_140\n      tag_141\n      jump\t// in\n    tag_140:\n        /* \"#utility.yul\":4880:5019   */\n    tag_139:\n        /* \"#utility.yul\":5203:5204   */\n      dup2\n        /* \"#utility.yul\":5135:5201   */\n      0x8000000000000000000000000000000000000000000000000000000000000000\n        /* \"#utility.yul\":5130:5205   */\n      sdiv\n        /* \"#utility.yul\":5127:5128   */\n      dup4\n        /* \"#utility.yul\":5123:5206   */\n      slt\n        /* \"#utility.yul\":5118:5119   */\n      0x00\n        /* \"#utility.yul\":5115:5116   */\n      dup5\n        /* \"#utility.yul\":5111:5120   */\n      slt\n        /* \"#utility.yul\":5107:5108   */\n      0x00\n        /* \"#utility.yul\":5104:5105   */\n      dup5\n        /* \"#utility.yul\":5100:5109   */\n      sgt\n        /* \"#utility.yul\":5096:5121   */\n      and\n        /* \"#utility.yul\":5092:5207   */\n      and\n        /* \"#utility.yul\":5089:5230   */\n      iszero\n      tag_142\n      jumpi\n        /* \"#utility.yul\":5210:5228   */\n      tag_143\n      tag_141\n      jump\t// in\n    tag_143:\n        /* \"#utility.yul\":5089:5230   */\n    tag_142:\n        /* \"#utility.yul\":5414:5415   */\n      dup3\n        /* \"#utility.yul\":5346:5412   */\n      0x8000000000000000000000000000000000000000000000000000000000000000\n        /* \"#utility.yul\":5341:5416   */\n      sdiv\n        /* \"#utility.yul\":5338:5339   */\n      dup3\n        /* \"#utility.yul\":5334:5417   */\n      slt\n        /* \"#utility.yul\":5329:5330   */\n      0x00\n        /* \"#utility.yul\":5326:5327   */\n      dup5\n        /* \"#utility.yul\":5322:5331   */\n      sgt\n        /* \"#utility.yul\":5318:5319   */\n      0x00\n        /* \"#utility.yul\":5315:5316   */\n      dup5\n        /* \"#utility.yul\":5311:5320   */\n      slt\n        /* \"#utility.yul\":5307:5332   */\n      and\n        /* \"#utility.yul\":5303:5418   */\n      and\n        /* \"#utility.yul\":5300:5441   */\n      iszero\n      tag_144\n      jumpi\n        /* \"#utility.yul\":5421:5439   */\n      tag_145\n      tag_141\n      jump\t// in\n    tag_145:\n        /* \"#utility.yul\":5300:5441   */\n    tag_144:\n        /* \"#utility.yul\":5624:5625   */\n      dup3\n        /* \"#utility.yul\":5556:5622   */\n      0x7fffffffffffffffffffffffffffffffffffffffffffffffffffffffffffffff\n        /* \"#utility.yul\":5551:5626   */\n      sdiv\n        /* \"#utility.yul\":5548:5549   */\n      dup3\n        /* \"#utility.yul\":5544:5627   */\n      slt\n        /* \"#utility.yul\":5539:5540   */\n      0x00\n        /* \"#utility.yul\":5536:5537   */\n      dup5\n        /* \"#utility.yul\":5532:5541   */\n      slt\n        /* \"#utility.yul\":5528:5529   */\n      0x00\n        /* \"#utility.yul\":5525:5526   */\n      dup5\n        /* \"#utility.yul\":5521:5530   */\n      slt\n        /* \"#utility.yul\":5517:5542   */\n      and\n        /* \"#utility.yul\":5513:5628   */\n      and\n        /* \"#utility.yul\":5510:5651   */\n      iszero\n      tag_146\n      jumpi\n        /* \"#utility.yul\":5631:5649   */\n      tag_147\n      tag_141\n      jump\t// in\n    tag_147:\n        /* \"#utility.yul\":5510:5651   */\n    tag_146:\n        /* \"#utility.yul\":5679:5680   */\n      dup3\n        /* \"#utility.yul\":5676:5677   */\n      dup3\n        /* \"#utility.yul\":5672:5681   */\n      mul\n        /* \"#utility.yul\":5661:5681   */\n      swap1\n      pop\n        /* \"#utility.yul\":4696:5687   */\n      swap3\n      swap2\n      pop\n      pop\n      jump\t// out\n        /* \"#utility.yul\":5693:6041   */\n    tag_49:\n        /* \"#utility.yul\":5733:5740   */\n      0x00\n        /* \"#utility.yul\":5756:5776   */\n      tag_149\n        /* \"#utility.yul\":5774:5775   */\n      dup3\n        /* \"#utility.yul\":5756:5776   */\n      tag_115\n      jump\t// in\n    tag_149:\n        /* \"#utility.yul\":5751:5776   */\n      swap2\n      pop\n        /* \"#utility.yul\":5790:5810   */\n      tag_150\n        /* \"#utility.yul\":5808:5809   */\n      dup4\n        /* \"#utility.yul\":5790:5810   */\n      tag_115\n      jump\t// in\n    tag_150:\n        /* \"#utility.yul\":5785:5810   */\n      swap3\n      pop\n        /* \"#utility.yul\":5978:5979   */\n      dup2\n        /* \"#utility.yul\":5910:5976   */\n      0xffffffffffffffffffffffffffffffffffffffffffffffffffffffffffffffff\n        /* \"#utility.yul\":5906:5980   */\n      div\n        /* \"#utility.yul\":5903:5904   */\n      dup4\n        /* \"#utility.yul\":5900:5981   */\n      gt\n        /* \"#utility.yul\":5895:5896   */\n      dup3\n        /* \"#utility.yul\":5888:5897   */\n      iszero\n        /* \"#utility.yul\":5881:5898   */\n      iszero\n        /* \"#utility.yul\":5877:5982   */\n      and\n        /* \"#utility.yul\":5874:6005   */\n      iszero\n      tag_151\n      jumpi\n        /* \"#utility.yul\":5985:6003   */\n      tag_152\n      tag_141\n      jump\t// in\n    tag_152:\n        /* \"#utility.yul\":5874:6005   */\n    tag_151:\n        /* \"#utility.yul\":6033:6034   */\n      dup3\n        /* \"#utility.yul\":6030:6031   */\n      dup3\n        /* \"#utility.yul\":6026:6035   */\n      mul\n        /* \"#utility.yul\":6015:6035   */\n      swap1\n      pop\n        /* \"#utility.yul\":5693:6041   */\n      swap3\n      swap2\n      pop\n      pop\n      jump\t// out\n        /* \"#utility.yul\":6047:6123   */\n    tag_137:\n        /* \"#utility.yul\":6083:6090   */\n      0x00\n        /* \"#utility.yul\":6112:6117   */\n      dup2\n        /* \"#utility.yul\":6101:6117   */\n      swap1\n      pop\n        /* \"#utility.yul\":6047:6123   */\n      swap2\n      swap1\n      pop\n      jump\t// out\n        /* \"#utility.yul\":6129:6206   */\n    tag_115:\n        /* \"#utility.yul\":6166:6173   */\n      0x00\n        /* \"#utility.yul\":6195:6200   */\n      dup2\n        /* \"#utility.yul\":6184:6200   */\n      swap1\n      pop\n        /* \"#utility.yul\":6129:6206   */\n      swap2\n      swap1\n      pop\n      jump\t// out\n        /* \"#utility.yul\":6212:6298   */\n    tag_119:\n        /* \"#utility.yul\":6247:6254   */\n      0x00\n        /* \"#utility.yul\":6287:6291   */\n      0xff\n        /* \"#utility.yul\":6280:6285   */\n      dup3\n        /* \"#utility.yul\":6276:6292   */\n      and\n        /* \"#utility.yul\":6265:6292   */\n      swap1\n      pop\n        /* \"#utility.yul\":6212:6298   */\n      swap2\n      swap1\n      pop\n      jump\t// out\n        /* \"#utility.yul\":6304:6409   */\n    tag_156:\n        /* \"#utility.yul\":6340:6347   */\n      0x00\n        /* \"#utility.yul\":6380:6402   */\n      0xffffffffffffffffffff\n        /* \"#utility.yul\":6373:6378   */\n      dup3\n        /* \"#utility.yul\":6369:6403   */\n      and\n        /* \"#utility.yul\":6358:6403   */\n      swap1\n      pop\n        /* \"#utility.yul\":6304:6409   */\n      swap2\n      swap1\n      pop\n      jump\t// out\n        /* \"#utility.yul\":6415:6595   */\n    tag_141:\n        /* \"#utility.yul\":6463:6540   */\n      0x4e487b7100000000000000000000000000000000000000000000000000000000\n        /* \"#utility.yul\":6460:6461   */\n      0x00\n        /* \"#utility.yul\":6453:6541   */\n      mstore\n        /* \"#utility.yul\":6560:6564   */\n      0x11\n        /* \"#utility.yul\":6557:6558   */\n      0x04\n        /* \"#utility.yul\":6550:6565   */\n      mstore\n        /* \"#utility.yul\":6584:6588   */\n      0x24\n        /* \"#utility.yul\":6581:6582   */\n      0x00\n        /* \"#utility.yul\":6574:6589   */\n      revert\n        /* \"#utility.yul\":6601:6781   */\n    tag_134:\n        /* \"#utility.yul\":6649:6726   */\n      0x4e487b7100000000000000000000000000000000000000000000000000000000\n        /* \"#utility.yul\":6646:6647   */\n      0x00\n        /* \"#utility.yul\":6639:6727   */\n      mstore\n        /* \"#utility.yul\":6746:6750   */\n      0x12\n        /* \"#utility.yul\":6743:6744   */\n      0x04\n        /* \"#utility.yul\":6736:6751   */\n      mstore\n        /* \"#utility.yul\":6770:6774   */\n      0x24\n        /* \"#utility.yul\":6767:6768   */\n      0x00\n        /* \"#utility.yul\":6760:6775   */\n      revert\n        /* \"#utility.yul\":6910:7027   */\n    tag_88:\n        /* \"#utility.yul\":7019:7020   */\n      0x00\n        /* \"#utility.yul\":7016:7017   */\n      dup1\n        /* \"#utility.yul\":7009:7021   */\n      revert\n        /* \"#utility.yul\":7033:7202   */\n    tag_111:\n        /* \"#utility.yul\":7173:7194   */\n      0x4469646e27742073656e6420656e6f7567682100000000000000000000000000\n        /* \"#utility.yul\":7169:7170   */\n      0x00\n        /* \"#utility.yul\":7161:7167   */\n      dup3\n        /* \"#utility.yul\":7157:7171   */\n      add\n        /* \"#utility.yul\":7150:7195   */\n      mstore\n        /* \"#utility.yul\":7033:7202   */\n      pop\n      jump\t// out\n        /* \"#utility.yul\":7208:7328   */\n    tag_69:\n        /* \"#utility.yul\":7280:7303   */\n      tag_165\n        /* \"#utility.yul\":7297:7302   */\n      dup2\n        /* \"#utility.yul\":7280:7303   */\n      tag_137\n      jump\t// in\n    tag_165:\n        /* \"#utility.yul\":7273:7278   */\n      dup2\n        /* \"#utility.yul\":7270:7304   */\n      eq\n        /* \"#utility.yul\":7260:7322   */\n      tag_166\n      jumpi\n        /* \"#utility.yul\":7318:7319   */\n      0x00\n        /* \"#utility.yul\":7315:7316   */\n      dup1\n        /* \"#utility.yul\":7308:7320   */\n      revert\n        /* \"#utility.yul\":7260:7322   */\n    tag_166:\n        /* \"#utility.yul\":7208:7328   */\n      pop\n      jump\t// out\n        /* \"#utility.yul\":7334:7456   */\n    tag_73:\n        /* \"#utility.yul\":7407:7431   */\n      tag_168\n        /* \"#utility.yul\":7425:7430   */\n      dup2\n        /* \"#utility.yul\":7407:7431   */\n      tag_115\n      jump\t// in\n    tag_168:\n        /* \"#utility.yul\":7400:7405   */\n      dup2\n        /* \"#utility.yul\":7397:7432   */\n      eq\n        /* \"#utility.yul\":7387:7450   */\n      tag_169\n      jumpi\n        /* \"#utility.yul\":7446:7447   */\n      0x00\n        /* \"#utility.yul\":7443:7444   */\n      dup1\n        /* \"#utility.yul\":7436:7448   */\n      revert\n        /* \"#utility.yul\":7387:7450   */\n    tag_169:\n        /* \"#utility.yul\":7334:7456   */\n      pop\n      jump\t// out\n        /* \"#utility.yul\":7462:7580   */\n    tag_84:\n        /* \"#utility.yul\":7533:7555   */\n      tag_171\n        /* \"#utility.yul\":7549:7554   */\n      dup2\n        /* \"#utility.yul\":7533:7555   */\n      tag_119\n      jump\t// in\n    tag_171:\n        /* \"#utility.yul\":7526:7531   */\n      dup2\n        /* \"#utility.yul\":7523:7556   */\n      eq\n        /* \"#utility.yul\":7513:7574   */\n      tag_172\n      jumpi\n        /* \"#utility.yul\":7570:7571   */\n      0x00\n        /* \"#utility.yul\":7567:7568   */\n      dup1\n        /* \"#utility.yul\":7560:7572   */\n      revert\n        /* \"#utility.yul\":7513:7574   */\n    tag_172:\n        /* \"#utility.yul\":7462:7580   */\n      pop\n      jump\t// out\n        /* \"#utility.yul\":7586:7706   */\n    tag_80:\n        /* \"#utility.yul\":7658:7681   */\n      tag_174\n        /* \"#utility.yul\":7675:7680   */\n      dup2\n        /* \"#utility.yul\":7658:7681   */\n      tag_156\n      jump\t// in\n    tag_174:\n        /* \"#utility.yul\":7651:7656   */\n      dup2\n        /* \"#utility.yul\":7648:7682   */\n      eq\n        /* \"#utility.yul\":7638:7700   */\n      tag_175\n      jumpi\n        /* \"#utility.yul\":7696:7697   */\n      0x00\n        /* \"#utility.yul\":7693:7694   */\n      dup1\n        /* \"#utility.yul\":7686:7698   */\n      revert\n        /* \"#utility.yul\":7638:7700   */\n    tag_175:\n        /* \"#utility.yul\":7586:7706   */\n      pop\n      jump\t// out\n\n    auxdata: 0xa26469706673582212205c53f4c5916ff68681dcdc8c6115821c8432d6da153bdd8019db66bce843d8de64736f6c63430008070033\n}\n",
				"bytecode": {
					"linkReferences": {},
					"object": "60806040526802b5e3af16b188000060005534801561001d57600080fd5b506108d58061002d6000396000f3fe6080604052600436106100555760003560e01c80630d8e6e2c1461005a5780633430a88c1461008557806334ce10c4146100b05780636e5b6b28146100db57806398d5fdca14610118578063b60d428814610143575b600080fd5b34801561006657600080fd5b5061006f61014d565b60405161007c9190610597565b60405180910390f35b34801561009157600080fd5b5061009a6101eb565b6040516100a79190610597565b60405180910390f35b3480156100bc57600080fd5b506100c56101f1565b6040516100d291906105b2565b60405180910390f35b3480156100e757600080fd5b5061010260048036038101906100fd9190610434565b61028a565b60405161010f9190610597565b60405180910390f35b34801561012457600080fd5b5061012d6102c4565b60405161013a9190610597565b60405180910390f35b61014b61037c565b005b600080738a753747a1fa494ec906ce90e9f37563a8af630e90508073ffffffffffffffffffffffffffffffffffffffff166354fd4d506040518163ffffffff1660e01b815260040160206040518083038186803b1580156101ad57600080fd5b505afa1580156101c1573d6000803e3d6000fd5b505050506040513d601f19601f820116820180604052508101906101e59190610461565b91505090565b60005481565b6000738a753747a1fa494ec906ce90e9f37563a8af630e73ffffffffffffffffffffffffffffffffffffffff1663313ce5676040518163ffffffff1660e01b815260040160206040518083038186803b15801561024d57600080fd5b505afa158015610261573d6000803e3d6000fd5b505050506040513d601f19601f820116820180604052508101906102859190610509565b905090565b6000806102956102c4565b90506000670de0b6b3a764000084836102ae9190610726565b6102b891906105de565b90508092505050919050565b600080738a753747a1fa494ec906ce90e9f37563a8af630e905060008173ffffffffffffffffffffffffffffffffffffffff1663feaf968c6040518163ffffffff1660e01b815260040160a06040518083038186803b15801561032657600080fd5b505afa15801561033a573d6000803e3d6000fd5b505050506040513d601f19601f8201168201806040525081019061035e919061048e565b5050509150506402540be40081610375919061060f565b9250505090565b6000546103883461028a565b10156103c9576040517f08c379a00000000000000000000000000000000000000000000000000000000081526004016103c090610577565b60405180910390fd5b565b6000815190506103da81610843565b92915050565b6000813590506103ef8161085a565b92915050565b6000815190506104048161085a565b92915050565b60008151905061041981610888565b92915050565b60008151905061042e81610871565b92915050565b60006020828403121561044a57610449610815565b5b6000610458848285016103e0565b91505092915050565b60006020828403121561047757610476610815565b5b6000610485848285016103f5565b91505092915050565b600080600080600060a086880312156104aa576104a9610815565b5b60006104b88882890161040a565b95505060206104c9888289016103cb565b94505060406104da888289016103f5565b93505060606104eb888289016103f5565b92505060806104fc8882890161040a565b9150509295509295909350565b60006020828403121561051f5761051e610815565b5b600061052d8482850161041f565b91505092915050565b60006105436013836105cd565b915061054e8261081a565b602082019050919050565b6105628161078a565b82525050565b61057181610794565b82525050565b6000602082019050818103600083015261059081610536565b9050919050565b60006020820190506105ac6000830184610559565b92915050565b60006020820190506105c76000830184610568565b92915050565b600082825260208201905092915050565b60006105e98261078a565b91506105f48361078a565b925082610604576106036107e6565b5b828204905092915050565b600061061a82610780565b915061062583610780565b9250827f7fffffffffffffffffffffffffffffffffffffffffffffffffffffffffffffff0482116000841360008413161615610664576106636107b7565b5b817f800000000000000000000000000000000000000000000000000000000000000005831260008412600084131616156106a1576106a06107b7565b5b827f800000000000000000000000000000000000000000000000000000000000000005821260008413600084121616156106de576106dd6107b7565b5b827f7fffffffffffffffffffffffffffffffffffffffffffffffffffffffffffffff058212600084126000841216161561071b5761071a6107b7565b5b828202905092915050565b60006107318261078a565b915061073c8361078a565b9250817fffffffffffffffffffffffffffffffffffffffffffffffffffffffffffffffff0483118215151615610775576107746107b7565b5b828202905092915050565b6000819050919050565b6000819050919050565b600060ff82169050919050565b600069ffffffffffffffffffff82169050919050565b7f4e487b7100000000000000000000000000000000000000000000000000000000600052601160045260246000fd5b7f4e487b7100000000000000000000000000000000000000000000000000000000600052601260045260246000fd5b600080fd5b7f4469646e27742073656e6420656e6f7567682100000000000000000000000000600082015250565b61084c81610780565b811461085757600080fd5b50565b6108638161078a565b811461086e57600080fd5b50565b61087a81610794565b811461088557600080fd5b50565b610891816107a1565b811461089c57600080fd5b5056fea26469706673582212205c53f4c5916ff68681dcdc8c6115821c8432d6da153bdd8019db66bce843d8de64736f6c63430008070033",
					"opcodes": "PUSH1 0x80 PUSH1 0x40 MSTORE PUSH9 0x2B5E3AF16B1880000 PUSH1 0x0 SSTORE CALLVALUE DUP1 ISZERO PUSH2 0x1D JUMPI PUSH1 0x0 DUP1 REVERT JUMPDEST POP PUSH2 0x8D5 DUP1 PUSH2 0x2D PUSH1 0x0 CODECOPY PUSH1 0x0 RETURN INVALID PUSH1 0x80 PUSH1 0x40 MSTORE PUSH1 0x4 CALLDATASIZE LT PUSH2 0x55 JUMPI PUSH1 0x0 CALLDATALOAD PUSH1 0xE0 SHR DUP1 PUSH4 0xD8E6E2C EQ PUSH2 0x5A JUMPI DUP1 PUSH4 0x3430A88C EQ PUSH2 0x85 JUMPI DUP1 PUSH4 0x34CE10C4 EQ PUSH2 0xB0 JUMPI DUP1 PUSH4 0x6E5B6B28 EQ PUSH2 0xDB JUMPI DUP1 PUSH4 0x98D5FDCA EQ PUSH2 0x118 JUMPI DUP1 PUSH4 0xB60D4288 EQ PUSH2 0x143 JUMPI JUMPDEST PUSH1 0x0 DUP1 REVERT JUMPDEST CALLVALUE DUP1 ISZERO PUSH2 0x66 JUMPI PUSH1 0x0 DUP1 REVERT JUMPDEST POP PUSH2 0x6F PUSH2 0x14D JUMP JUMPDEST PUSH1 0x40 MLOAD PUSH2 0x7C SWAP2 SWAP1 PUSH2 0x597 JUMP JUMPDEST PUSH1 0x40 MLOAD DUP1 SWAP2 SUB SWAP1 RETURN JUMPDEST CALLVALUE DUP1 ISZERO PUSH2 0x91 JUMPI PUSH1 0x0 DUP1 REVERT JUMPDEST POP PUSH2 0x9A PUSH2 0x1EB JUMP JUMPDEST PUSH1 0x40 MLOAD PUSH2 0xA7 SWAP2 SWAP1 PUSH2 0x597 JUMP JUMPDEST PUSH1 0x40 MLOAD DUP1 SWAP2 SUB SWAP1 RETURN JUMPDEST CALLVALUE DUP1 ISZERO PUSH2 0xBC JUMPI PUSH1 0x0 DUP1 REVERT JUMPDEST POP PUSH2 0xC5 PUSH2 0x1F1 JUMP JUMPDEST PUSH1 0x40 MLOAD PUSH2 0xD2 SWAP2 SWAP1 PUSH2 0x5B2 JUMP JUMPDEST PUSH1 0x40 MLOAD DUP1 SWAP2 SUB SWAP1 RETURN JUMPDEST CALLVALUE DUP1 ISZERO PUSH2 0xE7 JUMPI PUSH1 0x0 DUP1 REVERT JUMPDEST POP PUSH2 0x102 PUSH1 0x4 DUP1 CALLDATASIZE SUB DUP2 ADD SWAP1 PUSH2 0xFD SWAP2 SWAP1 PUSH2 0x434 JUMP JUMPDEST PUSH2 0x28A JUMP JUMPDEST PUSH1 0x40 MLOAD PUSH2 0x10F SWAP2 SWAP1 PUSH2 0x597 JUMP JUMPDEST PUSH1 0x40 MLOAD DUP1 SWAP2 SUB SWAP1 RETURN JUMPDEST CALLVALUE DUP1 ISZERO PUSH2 0x124 JUMPI PUSH1 0x0 DUP1 REVERT JUMPDEST POP PUSH2 0x12D PUSH2 0x2C4 JUMP JUMPDEST PUSH1 0x40 MLOAD PUSH2 0x13A SWAP2 SWAP1 PUSH2 0x597 JUMP JUMPDEST PUSH1 0x40 MLOAD DUP1 SWAP2 SUB SWAP1 RETURN JUMPDEST PUSH2 0x14B PUSH2 0x37C JUMP JUMPDEST STOP JUMPDEST PUSH1 0x0 DUP1 PUSH20 0x8A753747A1FA494EC906CE90E9F37563A8AF630E SWAP1 POP DUP1 PUSH20 0xFFFFFFFFFFFFFFFFFFFFFFFFFFFFFFFFFFFFFFFF AND PUSH4 0x54FD4D50 PUSH1 0x40 MLOAD DUP2 PUSH4 0xFFFFFFFF AND PUSH1 0xE0 SHL DUP2 MSTORE PUSH1 0x4 ADD PUSH1 0x20 PUSH1 0x40 MLOAD DUP1 DUP4 SUB DUP2 DUP7 DUP1 EXTCODESIZE ISZERO DUP1 ISZERO PUSH2 0x1AD JUMPI PUSH1 0x0 DUP1 REVERT JUMPDEST POP GAS STATICCALL ISZERO DUP1 ISZERO PUSH2 0x1C1 JUMPI RETURNDATASIZE PUSH1 0x0 DUP1 RETURNDATACOPY RETURNDATASIZE PUSH1 0x0 REVERT JUMPDEST POP POP POP POP PUSH1 0x40 MLOAD RETURNDATASIZE PUSH1 0x1F NOT PUSH1 0x1F DUP3 ADD AND DUP3 ADD DUP1 PUSH1 0x40 MSTORE POP DUP2 ADD SWAP1 PUSH2 0x1E5 SWAP2 SWAP1 PUSH2 0x461 JUMP JUMPDEST SWAP2 POP POP SWAP1 JUMP JUMPDEST PUSH1 0x0 SLOAD DUP2 JUMP JUMPDEST PUSH1 0x0 PUSH20 0x8A753747A1FA494EC906CE90E9F37563A8AF630E PUSH20 0xFFFFFFFFFFFFFFFFFFFFFFFFFFFFFFFFFFFFFFFF AND PUSH4 0x313CE567 PUSH1 0x40 MLOAD DUP2 PUSH4 0xFFFFFFFF AND PUSH1 0xE0 SHL DUP2 MSTORE PUSH1 0x4 ADD PUSH1 0x20 PUSH1 0x40 MLOAD DUP1 DUP4 SUB DUP2 DUP7 DUP1 EXTCODESIZE ISZERO DUP1 ISZERO PUSH2 0x24D JUMPI PUSH1 0x0 DUP1 REVERT JUMPDEST POP GAS STATICCALL ISZERO DUP1 ISZERO PUSH2 0x261 JUMPI RETURNDATASIZE PUSH1 0x0 DUP1 RETURNDATACOPY RETURNDATASIZE PUSH1 0x0 REVERT JUMPDEST POP POP POP POP PUSH1 0x40 MLOAD RETURNDATASIZE PUSH1 0x1F NOT PUSH1 0x1F DUP3 ADD AND DUP3 ADD DUP1 PUSH1 0x40 MSTORE POP DUP2 ADD SWAP1 PUSH2 0x285 SWAP2 SWAP1 PUSH2 0x509 JUMP JUMPDEST SWAP1 POP SWAP1 JUMP JUMPDEST PUSH1 0x0 DUP1 PUSH2 0x295 PUSH2 0x2C4 JUMP JUMPDEST SWAP1 POP PUSH1 0x0 PUSH8 0xDE0B6B3A7640000 DUP5 DUP4 PUSH2 0x2AE SWAP2 SWAP1 PUSH2 0x726 JUMP JUMPDEST PUSH2 0x2B8 SWAP2 SWAP1 PUSH2 0x5DE JUMP JUMPDEST SWAP1 POP DUP1 SWAP3 POP POP POP SWAP2 SWAP1 POP JUMP JUMPDEST PUSH1 0x0 DUP1 PUSH20 0x8A753747A1FA494EC906CE90E9F37563A8AF630E SWAP1 POP PUSH1 0x0 DUP2 PUSH20 0xFFFFFFFFFFFFFFFFFFFFFFFFFFFFFFFFFFFFFFFF AND PUSH4 0xFEAF968C PUSH1 0x40 MLOAD DUP2 PUSH4 0xFFFFFFFF AND PUSH1 0xE0 SHL DUP2 MSTORE PUSH1 0x4 ADD PUSH1 0xA0 PUSH1 0x40 MLOAD DUP1 DUP4 SUB DUP2 DUP7 DUP1 EXTCODESIZE ISZERO DUP1 ISZERO PUSH2 0x326 JUMPI PUSH1 0x0 DUP1 REVERT JUMPDEST POP GAS STATICCALL ISZERO DUP1 ISZERO PUSH2 0x33A JUMPI RETURNDATASIZE PUSH1 0x0 DUP1 RETURNDATACOPY RETURNDATASIZE PUSH1 0x0 REVERT JUMPDEST POP POP POP POP PUSH1 0x40 MLOAD RETURNDATASIZE PUSH1 0x1F NOT PUSH1 0x1F DUP3 ADD AND DUP3 ADD DUP1 PUSH1 0x40 MSTORE POP DUP2 ADD SWAP1 PUSH2 0x35E SWAP2 SWAP1 PUSH2 0x48E JUMP JUMPDEST POP POP POP SWAP2 POP POP PUSH5 0x2540BE400 DUP2 PUSH2 0x375 SWAP2 SWAP1 PUSH2 0x60F JUMP JUMPDEST SWAP3 POP POP POP SWAP1 JUMP JUMPDEST PUSH1 0x0 SLOAD PUSH2 0x388 CALLVALUE PUSH2 0x28A JUMP JUMPDEST LT ISZERO PUSH2 0x3C9 JUMPI PUSH1 0x40 MLOAD PUSH32 0x8C379A000000000000000000000000000000000000000000000000000000000 DUP2 MSTORE PUSH1 0x4 ADD PUSH2 0x3C0 SWAP1 PUSH2 0x577 JUMP JUMPDEST PUSH1 0x40 MLOAD DUP1 SWAP2 SUB SWAP1 REVERT JUMPDEST JUMP JUMPDEST PUSH1 0x0 DUP2 MLOAD SWAP1 POP PUSH2 0x3DA DUP2 PUSH2 0x843 JUMP JUMPDEST SWAP3 SWAP2 POP POP JUMP JUMPDEST PUSH1 0x0 DUP2 CALLDATALOAD SWAP1 POP PUSH2 0x3EF DUP2 PUSH2 0x85A JUMP JUMPDEST SWAP3 SWAP2 POP POP JUMP JUMPDEST PUSH1 0x0 DUP2 MLOAD SWAP1 POP PUSH2 0x404 DUP2 PUSH2 0x85A JUMP JUMPDEST SWAP3 SWAP2 POP POP JUMP JUMPDEST PUSH1 0x0 DUP2 MLOAD SWAP1 POP PUSH2 0x419 DUP2 PUSH2 0x888 JUMP JUMPDEST SWAP3 SWAP2 POP POP JUMP JUMPDEST PUSH1 0x0 DUP2 MLOAD SWAP1 POP PUSH2 0x42E DUP2 PUSH2 0x871 JUMP JUMPDEST SWAP3 SWAP2 POP POP JUMP JUMPDEST PUSH1 0x0 PUSH1 0x20 DUP3 DUP5 SUB SLT ISZERO PUSH2 0x44A JUMPI PUSH2 0x449 PUSH2 0x815 JUMP JUMPDEST JUMPDEST PUSH1 0x0 PUSH2 0x458 DUP5 DUP3 DUP6 ADD PUSH2 0x3E0 JUMP JUMPDEST SWAP2 POP POP SWAP3 SWAP2 POP POP JUMP JUMPDEST PUSH1 0x0 PUSH1 0x20 DUP3 DUP5 SUB SLT ISZERO PUSH2 0x477 JUMPI PUSH2 0x476 PUSH2 0x815 JUMP JUMPDEST JUMPDEST PUSH1 0x0 PUSH2 0x485 DUP5 DUP3 DUP6 ADD PUSH2 0x3F5 JUMP JUMPDEST SWAP2 POP POP SWAP3 SWAP2 POP POP JUMP JUMPDEST PUSH1 0x0 DUP1 PUSH1 0x0 DUP1 PUSH1 0x0 PUSH1 0xA0 DUP7 DUP9 SUB SLT ISZERO PUSH2 0x4AA JUMPI PUSH2 0x4A9 PUSH2 0x815 JUMP JUMPDEST JUMPDEST PUSH1 0x0 PUSH2 0x4B8 DUP9 DUP3 DUP10 ADD PUSH2 0x40A JUMP JUMPDEST SWAP6 POP POP PUSH1 0x20 PUSH2 0x4C9 DUP9 DUP3 DUP10 ADD PUSH2 0x3CB JUMP JUMPDEST SWAP5 POP POP PUSH1 0x40 PUSH2 0x4DA DUP9 DUP3 DUP10 ADD PUSH2 0x3F5 JUMP JUMPDEST SWAP4 POP POP PUSH1 0x60 PUSH2 0x4EB DUP9 DUP3 DUP10 ADD PUSH2 0x3F5 JUMP JUMPDEST SWAP3 POP POP PUSH1 0x80 PUSH2 0x4FC DUP9 DUP3 DUP10 ADD PUSH2 0x40A JUMP JUMPDEST SWAP2 POP POP SWAP3 SWAP6 POP SWAP3 SWAP6 SWAP1 SWAP4 POP JUMP JUMPDEST PUSH1 0x0 PUSH1 0x20 DUP3 DUP5 SUB SLT ISZERO PUSH2 0x51F JUMPI PUSH2 0x51E PUSH2 0x815 JUMP JUMPDEST JUMPDEST PUSH1 0x0 PUSH2 0x52D DUP5 DUP3 DUP6 ADD PUSH2 0x41F JUMP JUMPDEST SWAP2 POP POP SWAP3 SWAP2 POP POP JUMP JUMPDEST PUSH1 0x0 PUSH2 0x543 PUSH1 0x13 DUP4 PUSH2 0x5CD JUMP JUMPDEST SWAP2 POP PUSH2 0x54E DUP3 PUSH2 0x81A JUMP JUMPDEST PUSH1 0x20 DUP3 ADD SWAP1 POP SWAP2 SWAP1 POP JUMP JUMPDEST PUSH2 0x562 DUP2 PUSH2 0x78A JUMP JUMPDEST DUP3 MSTORE POP POP JUMP JUMPDEST PUSH2 0x571 DUP2 PUSH2 0x794 JUMP JUMPDEST DUP3 MSTORE POP POP JUMP JUMPDEST PUSH1 0x0 PUSH1 0x20 DUP3 ADD SWAP1 POP DUP2 DUP2 SUB PUSH1 0x0 DUP4 ADD MSTORE PUSH2 0x590 DUP2 PUSH2 0x536 JUMP JUMPDEST SWAP1 POP SWAP2 SWAP1 POP JUMP JUMPDEST PUSH1 0x0 PUSH1 0x20 DUP3 ADD SWAP1 POP PUSH2 0x5AC PUSH1 0x0 DUP4 ADD DUP5 PUSH2 0x559 JUMP JUMPDEST SWAP3 SWAP2 POP POP JUMP JUMPDEST PUSH1 0x0 PUSH1 0x20 DUP3 ADD SWAP1 POP PUSH2 0x5C7 PUSH1 0x0 DUP4 ADD DUP5 PUSH2 0x568 JUMP JUMPDEST SWAP3 SWAP2 POP POP JUMP JUMPDEST PUSH1 0x0 DUP3 DUP3 MSTORE PUSH1 0x20 DUP3 ADD SWAP1 POP SWAP3 SWAP2 POP POP JUMP JUMPDEST PUSH1 0x0 PUSH2 0x5E9 DUP3 PUSH2 0x78A JUMP JUMPDEST SWAP2 POP PUSH2 0x5F4 DUP4 PUSH2 0x78A JUMP JUMPDEST SWAP3 POP DUP3 PUSH2 0x604 JUMPI PUSH2 0x603 PUSH2 0x7E6 JUMP JUMPDEST JUMPDEST DUP3 DUP3 DIV SWAP1 POP SWAP3 SWAP2 POP POP JUMP JUMPDEST PUSH1 0x0 PUSH2 0x61A DUP3 PUSH2 0x780 JUMP JUMPDEST SWAP2 POP PUSH2 0x625 DUP4 PUSH2 0x780 JUMP JUMPDEST SWAP3 POP DUP3 PUSH32 0x7FFFFFFFFFFFFFFFFFFFFFFFFFFFFFFFFFFFFFFFFFFFFFFFFFFFFFFFFFFFFFFF DIV DUP3 GT PUSH1 0x0 DUP5 SGT PUSH1 0x0 DUP5 SGT AND AND ISZERO PUSH2 0x664 JUMPI PUSH2 0x663 PUSH2 0x7B7 JUMP JUMPDEST JUMPDEST DUP2 PUSH32 0x8000000000000000000000000000000000000000000000000000000000000000 SDIV DUP4 SLT PUSH1 0x0 DUP5 SLT PUSH1 0x0 DUP5 SGT AND AND ISZERO PUSH2 0x6A1 JUMPI PUSH2 0x6A0 PUSH2 0x7B7 JUMP JUMPDEST JUMPDEST DUP3 PUSH32 0x8000000000000000000000000000000000000000000000000000000000000000 SDIV DUP3 SLT PUSH1 0x0 DUP5 SGT PUSH1 0x0 DUP5 SLT AND AND ISZERO PUSH2 0x6DE JUMPI PUSH2 0x6DD PUSH2 0x7B7 JUMP JUMPDEST JUMPDEST DUP3 PUSH32 0x7FFFFFFFFFFFFFFFFFFFFFFFFFFFFFFFFFFFFFFFFFFFFFFFFFFFFFFFFFFFFFFF SDIV DUP3 SLT PUSH1 0x0 DUP5 SLT PUSH1 0x0 DUP5 SLT AND AND ISZERO PUSH2 0x71B JUMPI PUSH2 0x71A PUSH2 0x7B7 JUMP JUMPDEST JUMPDEST DUP3 DUP3 MUL SWAP1 POP SWAP3 SWAP2 POP POP JUMP JUMPDEST PUSH1 0x0 PUSH2 0x731 DUP3 PUSH2 0x78A JUMP JUMPDEST SWAP2 POP PUSH2 0x73C DUP4 PUSH2 0x78A JUMP JUMPDEST SWAP3 POP DUP2 PUSH32 0xFFFFFFFFFFFFFFFFFFFFFFFFFFFFFFFFFFFFFFFFFFFFFFFFFFFFFFFFFFFFFFFF DIV DUP4 GT DUP3 ISZERO ISZERO AND ISZERO PUSH2 0x775 JUMPI PUSH2 0x774 PUSH2 0x7B7 JUMP JUMPDEST JUMPDEST DUP3 DUP3 MUL SWAP1 POP SWAP3 SWAP2 POP POP JUMP JUMPDEST PUSH1 0x0 DUP2 SWAP1 POP SWAP2 SWAP1 POP JUMP JUMPDEST PUSH1 0x0 DUP2 SWAP1 POP SWAP2 SWAP1 POP JUMP JUMPDEST PUSH1 0x0 PUSH1 0xFF DUP3 AND SWAP1 POP SWAP2 SWAP1 POP JUMP JUMPDEST PUSH1 0x0 PUSH10 0xFFFFFFFFFFFFFFFFFFFF DUP3 AND SWAP1 POP SWAP2 SWAP1 POP JUMP JUMPDEST PUSH32 0x4E487B7100000000000000000000000000000000000000000000000000000000 PUSH1 0x0 MSTORE PUSH1 0x11 PUSH1 0x4 MSTORE PUSH1 0x24 PUSH1 0x0 REVERT JUMPDEST PUSH32 0x4E487B7100000000000000000000000000000000000000000000000000000000 PUSH1 0x0 MSTORE PUSH1 0x12 PUSH1 0x4 MSTORE PUSH1 0x24 PUSH1 0x0 REVERT JUMPDEST PUSH1 0x0 DUP1 REVERT JUMPDEST PUSH32 0x4469646E27742073656E6420656E6F7567682100000000000000000000000000 PUSH1 0x0 DUP3 ADD MSTORE POP JUMP JUMPDEST PUSH2 0x84C DUP2 PUSH2 0x780 JUMP JUMPDEST DUP2 EQ PUSH2 0x857 JUMPI PUSH1 0x0 DUP1 REVERT JUMPDEST POP JUMP JUMPDEST PUSH2 0x863 DUP2 PUSH2 0x78A JUMP JUMPDEST DUP2 EQ PUSH2 0x86E JUMPI PUSH1 0x0 DUP1 REVERT JUMPDEST POP JUMP JUMPDEST PUSH2 0x87A DUP2 PUSH2 0x794 JUMP JUMPDEST DUP2 EQ PUSH2 0x885 JUMPI PUSH1 0x0 DUP1 REVERT JUMPDEST POP JUMP JUMPDEST PUSH2 0x891 DUP2 PUSH2 0x7A1 JUMP JUMPDEST DUP2 EQ PUSH2 0x89C JUMPI PUSH1 0x0 DUP1 REVERT JUMPDEST POP JUMP INVALID LOG2 PUSH5 0x6970667358 0x22 SLT KECCAK256 0x5C MSTORE8 DELEGATECALL 0xC5 SWAP2 PUSH16 0xF68681DCDC8C6115821C8432D6DA153B 0xDD DUP1 NOT 0xDB PUSH7 0xBCE843D8DE6473 PUSH16 0x6C634300080700330000000000000000 "
				},
				"gasEstimates": {
					"creation": {
						"codeDepositCost": "452200",
						"executionCost": "22592",
						"totalCost": "474792"
					},
					"external": {
						"fund()": "infinite",
						"getConversionRate(uint256)": "infinite",
						"getDecimal()": "infinite",
						"getPrice()": "infinite",
						"getVersion()": "infinite",
						"minimumUSD()": "2429"
					}
				},
				"methodIdentifiers": {
					"fund()": "b60d4288",
					"getConversionRate(uint256)": "6e5b6b28",
					"getDecimal()": "34ce10c4",
					"getPrice()": "98d5fdca",
					"getVersion()": "0d8e6e2c",
					"minimumUSD()": "3430a88c"
				}
			},
			"storageLayout": {
				"storage": [
					{
						"astId": 53,
						"contract": "FundMe.sol:FundMe",
						"label": "minimumUSD",
						"offset": 0,
						"slot": "0",
						"type": "t_uint256"
					}
				],
				"types": {
					"t_uint256": {
						"encoding": "inplace",
						"label": "uint256",
						"numberOfBytes": "32"
					}
				}
			},
			"userdoc": {
				"kind": "user",
				"methods": {},
				"version": 1
			}
		}
	}
}