{
	"FundMe.sol": {
		"FundMe": {
			"abi": [
				{
					"inputs": [
						{
							"internalType": "address",
							"name": "",
							"type": "address"
						}
					],
					"name": "addressToAmountFunded",
					"outputs": [
						{
							"internalType": "uint256",
							"name": "",
							"type": "uint256"
						}
					],
					"stateMutability": "view",
					"type": "function"
				},
				{
					"inputs": [],
					"name": "fund",
					"outputs": [],
					"stateMutability": "payable",
					"type": "function"
				},
				{
					"inputs": [
						{
							"internalType": "uint256",
							"name": "",
							"type": "uint256"
						}
					],
					"name": "funders",
					"outputs": [
						{
							"internalType": "address",
							"name": "",
							"type": "address"
						}
					],
					"stateMutability": "view",
					"type": "function"
				},
				{
					"inputs": [],
					"name": "minimumUSD",
					"outputs": [
						{
							"internalType": "uint256",
							"name": "",
							"type": "uint256"
						}
					],
					"stateMutability": "view",
					"type": "function"
				},
				{
					"inputs": [],
					"name": "withdraw",
					"outputs": [],
					"stateMutability": "nonpayable",
					"type": "function"
				}
			],
			"devdoc": {
				"kind": "dev",
				"methods": {},
				"version": 1
			},
			"evm": {
				"assembly": "    /* \"FundMe.sol\":344:1258  contract FundMe {\r... */\n  mstore(0x40, 0x80)\n    /* \"FundMe.sol\":547:556  50 * 1e18 */\n  0x02b5e3af16b1880000\n    /* \"FundMe.sol\":519:556  uint256 public minimumUSD = 50 * 1e18 */\n  0x00\n  sstore\n    /* \"FundMe.sol\":344:1258  contract FundMe {\r... */\n  callvalue\n  dup1\n  iszero\n  tag_1\n  jumpi\n  0x00\n  dup1\n  revert\ntag_1:\n  pop\n  dataSize(sub_0)\n  dup1\n  dataOffset(sub_0)\n  0x00\n  codecopy\n  0x00\n  return\nstop\n\nsub_0: assembly {\n        /* \"FundMe.sol\":344:1258  contract FundMe {\r... */\n      mstore(0x40, 0x80)\n      jumpi(tag_1, lt(calldatasize, 0x04))\n      shr(0xe0, calldataload(0x00))\n      dup1\n      0x3430a88c\n      eq\n      tag_2\n      jumpi\n      dup1\n      0x3ccfd60b\n      eq\n      tag_3\n      jumpi\n      dup1\n      0x3e47d6f3\n      eq\n      tag_4\n      jumpi\n      dup1\n      0xb60d4288\n      eq\n      tag_5\n      jumpi\n      dup1\n      0xdc0d3dff\n      eq\n      tag_6\n      jumpi\n    tag_1:\n      0x00\n      dup1\n      revert\n        /* \"FundMe.sol\":519:556  uint256 public minimumUSD = 50 * 1e18 */\n    tag_2:\n      callvalue\n      dup1\n      iszero\n      tag_7\n      jumpi\n      0x00\n      dup1\n      revert\n    tag_7:\n      pop\n      tag_8\n      tag_9\n      jump\t// in\n    tag_8:\n      mload(0x40)\n      tag_10\n      swap2\n      swap1\n      tag_11\n      jump\t// in\n    tag_10:\n      mload(0x40)\n      dup1\n      swap2\n      sub\n      swap1\n      return\n        /* \"FundMe.sol\":1007:1255  function withdraw() public {\r... */\n    tag_3:\n      callvalue\n      dup1\n      iszero\n      tag_12\n      jumpi\n      0x00\n      dup1\n      revert\n    tag_12:\n      pop\n      tag_13\n      tag_14\n      jump\t// in\n    tag_13:\n      stop\n        /* \"FundMe.sol\":596:652  mapping(address => uint256) public addressToAmountFunded */\n    tag_4:\n      callvalue\n      dup1\n      iszero\n      tag_15\n      jumpi\n      0x00\n      dup1\n      revert\n    tag_15:\n      pop\n      tag_16\n      0x04\n      dup1\n      calldatasize\n      sub\n      dup2\n      add\n      swap1\n      tag_17\n      swap2\n      swap1\n      tag_18\n      jump\t// in\n    tag_17:\n      tag_19\n      jump\t// in\n    tag_16:\n      mload(0x40)\n      tag_20\n      swap2\n      swap1\n      tag_11\n      jump\t// in\n    tag_20:\n      mload(0x40)\n      dup1\n      swap2\n      sub\n      swap1\n      return\n        /* \"FundMe.sol\":661:999  function fund() public payable {\r... */\n    tag_5:\n      tag_21\n      tag_22\n      jump\t// in\n    tag_21:\n      stop\n        /* \"FundMe.sol\":565:589  address[] public funders */\n    tag_6:\n      callvalue\n      dup1\n      iszero\n      tag_23\n      jumpi\n      0x00\n      dup1\n      revert\n    tag_23:\n      pop\n      tag_24\n      0x04\n      dup1\n      calldatasize\n      sub\n      dup2\n      add\n      swap1\n      tag_25\n      swap2\n      swap1\n      tag_26\n      jump\t// in\n    tag_25:\n      tag_27\n      jump\t// in\n    tag_24:\n      mload(0x40)\n      tag_28\n      swap2\n      swap1\n      tag_29\n      jump\t// in\n    tag_28:\n      mload(0x40)\n      dup1\n      swap2\n      sub\n      swap1\n      return\n        /* \"FundMe.sol\":519:556  uint256 public minimumUSD = 50 * 1e18 */\n    tag_9:\n      sload(0x00)\n      dup2\n      jump\t// out\n        /* \"FundMe.sol\":1007:1255  function withdraw() public {\r... */\n    tag_14:\n        /* \"FundMe.sol\":1051:1068  uint256 fundIndex */\n      0x00\n        /* \"FundMe.sol\":1047:1226  for(uint256 fundIndex = 0; fundIndex < funders.length; fundIndex ++) {\r... */\n    tag_31:\n        /* \"FundMe.sol\":1086:1093  funders */\n      0x01\n        /* \"FundMe.sol\":1086:1100  funders.length */\n      dup1\n      sload\n      swap1\n      pop\n        /* \"FundMe.sol\":1074:1083  fundIndex */\n      dup2\n        /* \"FundMe.sol\":1074:1100  fundIndex < funders.length */\n      lt\n        /* \"FundMe.sol\":1047:1226  for(uint256 fundIndex = 0; fundIndex < funders.length; fundIndex ++) {\r... */\n      iszero\n      tag_32\n      jumpi\n        /* \"FundMe.sol\":1131:1145  address funder */\n      0x00\n        /* \"FundMe.sol\":1148:1155  funders */\n      0x01\n        /* \"FundMe.sol\":1156:1165  fundIndex */\n      dup3\n        /* \"FundMe.sol\":1148:1166  funders[fundIndex] */\n      dup2\n      sload\n      dup2\n      lt\n      tag_34\n      jumpi\n      tag_35\n      tag_36\n      jump\t// in\n    tag_35:\n    tag_34:\n      swap1\n      0x00\n      mstore\n      keccak256(0x00, 0x20)\n      add\n      0x00\n      swap1\n      sload\n      swap1\n      0x0100\n      exp\n      swap1\n      div\n      0xffffffffffffffffffffffffffffffffffffffff\n      and\n        /* \"FundMe.sol\":1131:1166  address funder = funders[fundIndex] */\n      swap1\n      pop\n        /* \"FundMe.sol\":1213:1214  0 */\n      0x00\n        /* \"FundMe.sol\":1181:1202  addressToAmountFunded */\n      0x02\n        /* \"FundMe.sol\":1181:1210  addressToAmountFunded[funder] */\n      0x00\n        /* \"FundMe.sol\":1203:1209  funder */\n      dup4\n        /* \"FundMe.sol\":1181:1210  addressToAmountFunded[funder] */\n      0xffffffffffffffffffffffffffffffffffffffff\n      and\n      0xffffffffffffffffffffffffffffffffffffffff\n      and\n      dup2\n      mstore\n      0x20\n      add\n      swap1\n      dup2\n      mstore\n      0x20\n      add\n      0x00\n      keccak256\n        /* \"FundMe.sol\":1181:1214  addressToAmountFunded[funder] = 0 */\n      dup2\n      swap1\n      sstore\n      pop\n        /* \"FundMe.sol\":1116:1226  {\r... */\n      pop\n        /* \"FundMe.sol\":1102:1114  fundIndex ++ */\n      dup1\n      dup1\n      tag_38\n      swap1\n      tag_39\n      jump\t// in\n    tag_38:\n      swap2\n      pop\n      pop\n        /* \"FundMe.sol\":1047:1226  for(uint256 fundIndex = 0; fundIndex < funders.length; fundIndex ++) {\r... */\n      jump(tag_31)\n    tag_32:\n      pop\n        /* \"FundMe.sol\":1007:1255  function withdraw() public {\r... */\n      jump\t// out\n        /* \"FundMe.sol\":596:652  mapping(address => uint256) public addressToAmountFunded */\n    tag_19:\n      mstore(0x20, 0x02)\n      dup1\n      0x00\n      mstore\n      keccak256(0x00, 0x40)\n      0x00\n      swap2\n      pop\n      swap1\n      pop\n      sload\n      dup2\n      jump\t// out\n        /* \"FundMe.sol\":661:999  function fund() public payable {\r... */\n    tag_22:\n        /* \"FundMe.sol\":863:873  minimumUSD */\n      sload(0x00)\n        /* \"FundMe.sol\":830:859  msg.value.getConversionRate() */\n      tag_41\n        /* \"FundMe.sol\":830:839  msg.value */\n      callvalue\n        /* \"FundMe.sol\":830:857  msg.value.getConversionRate */\n      tag_42\n        /* \"FundMe.sol\":830:859  msg.value.getConversionRate() */\n      jump\t// in\n    tag_41:\n        /* \"FundMe.sol\":830:873  msg.value.getConversionRate() >= minimumUSD */\n      lt\n      iszero\n        /* \"FundMe.sol\":822:897  require(msg.value.getConversionRate() >= minimumUSD, \"Didn't send enough!\") */\n      tag_43\n      jumpi\n      mload(0x40)\n      0x08c379a000000000000000000000000000000000000000000000000000000000\n      dup2\n      mstore\n      0x04\n      add\n      tag_44\n      swap1\n      tag_45\n      jump\t// in\n    tag_44:\n      mload(0x40)\n      dup1\n      swap2\n      sub\n      swap1\n      revert\n    tag_43:\n        /* \"FundMe.sol\":908:915  funders */\n      0x01\n        /* \"FundMe.sol\":921:931  msg.sender */\n      caller\n        /* \"FundMe.sol\":908:932  funders.push(msg.sender) */\n      swap1\n      dup1\n      0x01\n      dup2\n      sload\n      add\n      dup1\n      dup3\n      sstore\n      dup1\n      swap2\n      pop\n      pop\n      0x01\n      swap1\n      sub\n      swap1\n      0x00\n      mstore\n      keccak256(0x00, 0x20)\n      add\n      0x00\n      swap1\n      swap2\n      swap1\n      swap2\n      swap1\n      swap2\n      0x0100\n      exp\n      dup2\n      sload\n      dup2\n      0xffffffffffffffffffffffffffffffffffffffff\n      mul\n      not\n      and\n      swap1\n      dup4\n      0xffffffffffffffffffffffffffffffffffffffff\n      and\n      mul\n      or\n      swap1\n      sstore\n      pop\n        /* \"FundMe.sol\":980:989  msg.value */\n      callvalue\n        /* \"FundMe.sol\":943:964  addressToAmountFunded */\n      0x02\n        /* \"FundMe.sol\":943:976  addressToAmountFunded[msg.sender] */\n      0x00\n        /* \"FundMe.sol\":965:975  msg.sender */\n      caller\n        /* \"FundMe.sol\":943:976  addressToAmountFunded[msg.sender] */\n      0xffffffffffffffffffffffffffffffffffffffff\n      and\n      0xffffffffffffffffffffffffffffffffffffffff\n      and\n      dup2\n      mstore\n      0x20\n      add\n      swap1\n      dup2\n      mstore\n      0x20\n      add\n      0x00\n      keccak256\n      0x00\n        /* \"FundMe.sol\":943:989  addressToAmountFunded[msg.sender] += msg.value */\n      dup3\n      dup3\n      sload\n      tag_47\n      swap2\n      swap1\n      tag_48\n      jump\t// in\n    tag_47:\n      swap3\n      pop\n      pop\n      dup2\n      swap1\n      sstore\n      pop\n        /* \"FundMe.sol\":661:999  function fund() public payable {\r... */\n      jump\t// out\n        /* \"FundMe.sol\":565:589  address[] public funders */\n    tag_27:\n      0x01\n      dup2\n      dup2\n      sload\n      dup2\n      lt\n      tag_49\n      jumpi\n      0x00\n      dup1\n      revert\n    tag_49:\n      swap1\n      0x00\n      mstore\n      keccak256(0x00, 0x20)\n      add\n      0x00\n      swap2\n      pop\n      sload\n      swap1\n      0x0100\n      exp\n      swap1\n      div\n      0xffffffffffffffffffffffffffffffffffffffff\n      and\n      dup2\n      jump\t// out\n        /* \"PriceConverter.sol\":1471:2180  function getConversionRate(uint256 ethAmount) internal view returns (uint256) {\r... */\n    tag_42:\n        /* \"PriceConverter.sol\":1540:1547  uint256 */\n      0x00\n        /* \"PriceConverter.sol\":1998:2014  uint256 ethPrice */\n      dup1\n        /* \"PriceConverter.sol\":2017:2027  getPrice() */\n      tag_52\n        /* \"PriceConverter.sol\":2017:2025  getPrice */\n      tag_53\n        /* \"PriceConverter.sol\":2017:2027  getPrice() */\n      jump\t// in\n    tag_52:\n        /* \"PriceConverter.sol\":1998:2027  uint256 ethPrice = getPrice() */\n      swap1\n      pop\n        /* \"PriceConverter.sol\":2085:2107  uint256 ethAmountInUSD */\n      0x00\n        /* \"PriceConverter.sol\":2135:2139  1e18 */\n      0x0de0b6b3a7640000\n        /* \"PriceConverter.sol\":2122:2131  ethAmount */\n      dup5\n        /* \"PriceConverter.sol\":2111:2119  ethPrice */\n      dup4\n        /* \"PriceConverter.sol\":2111:2131  ethPrice * ethAmount */\n      tag_54\n      swap2\n      swap1\n      tag_55\n      jump\t// in\n    tag_54:\n        /* \"PriceConverter.sol\":2110:2139  (ethPrice * ethAmount) / 1e18 */\n      tag_56\n      swap2\n      swap1\n      tag_57\n      jump\t// in\n    tag_56:\n        /* \"PriceConverter.sol\":2085:2139  uint256 ethAmountInUSD = (ethPrice * ethAmount) / 1e18 */\n      swap1\n      pop\n        /* \"PriceConverter.sol\":2158:2172  ethAmountInUSD */\n      dup1\n        /* \"PriceConverter.sol\":2151:2172  return ethAmountInUSD */\n      swap3\n      pop\n      pop\n      pop\n        /* \"PriceConverter.sol\":1471:2180  function getConversionRate(uint256 ethAmount) internal view returns (uint256) {\r... */\n      swap2\n      swap1\n      pop\n      jump\t// out\n        /* \"PriceConverter.sol\":437:989  function getPrice() internal view returns (uint256) {\r... */\n    tag_53:\n        /* \"PriceConverter.sol\":480:487  uint256 */\n      0x00\n        /* \"PriceConverter.sol\":651:682  AggregatorV3Interface priceFeed */\n      dup1\n        /* \"PriceConverter.sol\":707:749  0x8A753747A1Fa494EC906cE90E9f37563A8AF630e */\n      0x8a753747a1fa494ec906ce90e9f37563a8af630e\n        /* \"PriceConverter.sol\":651:750  AggregatorV3Interface priceFeed = AggregatorV3Interface(0x8A753747A1Fa494EC906cE90E9f37563A8AF630e) */\n      swap1\n      pop\n        /* \"PriceConverter.sol\":796:808  int256 price */\n      0x00\n        /* \"PriceConverter.sol\":857:866  priceFeed */\n      dup2\n        /* \"PriceConverter.sol\":857:882  priceFeed.latestRoundData */\n      0xffffffffffffffffffffffffffffffffffffffff\n      and\n      0xfeaf968c\n        /* \"PriceConverter.sol\":857:884  priceFeed.latestRoundData() */\n      mload(0x40)\n      dup2\n      0xffffffff\n      and\n      0xe0\n      shl\n      dup2\n      mstore\n      0x04\n      add\n      0xa0\n      mload(0x40)\n      dup1\n      dup4\n      sub\n      dup2\n      dup7\n      dup1\n      extcodesize\n      iszero\n      dup1\n      iszero\n      tag_59\n      jumpi\n      0x00\n      dup1\n      revert\n    tag_59:\n      pop\n      gas\n      staticcall\n      iszero\n      dup1\n      iszero\n      tag_61\n      jumpi\n      returndatasize\n      0x00\n      dup1\n      returndatacopy\n      revert(0x00, returndatasize)\n    tag_61:\n      pop\n      pop\n      pop\n      pop\n      mload(0x40)\n      returndatasize\n      not(0x1f)\n      0x1f\n      dup3\n      add\n      and\n      dup3\n      add\n      dup1\n      0x40\n      mstore\n      pop\n      dup2\n      add\n      swap1\n      tag_62\n      swap2\n      swap1\n      tag_63\n      jump\t// in\n    tag_62:\n        /* \"PriceConverter.sol\":761:884  (     \r... */\n      pop\n      pop\n      pop\n      swap2\n      pop\n      pop\n        /* \"PriceConverter.sol\":976:980  1e10 */\n      0x02540be400\n        /* \"PriceConverter.sol\":968:973  price */\n      dup2\n        /* \"PriceConverter.sol\":968:980  price * 1e10 */\n      tag_64\n      swap2\n      swap1\n      tag_65\n      jump\t// in\n    tag_64:\n        /* \"PriceConverter.sol\":953:981  return uint256(price * 1e10) */\n      swap3\n      pop\n      pop\n      pop\n        /* \"PriceConverter.sol\":437:989  function getPrice() internal view returns (uint256) {\r... */\n      swap1\n      jump\t// out\n        /* \"#utility.yul\":7:146   */\n    tag_67:\n        /* \"#utility.yul\":53:58   */\n      0x00\n        /* \"#utility.yul\":91:97   */\n      dup2\n        /* \"#utility.yul\":78:98   */\n      calldataload\n        /* \"#utility.yul\":69:98   */\n      swap1\n      pop\n        /* \"#utility.yul\":107:140   */\n      tag_69\n        /* \"#utility.yul\":134:139   */\n      dup2\n        /* \"#utility.yul\":107:140   */\n      tag_70\n      jump\t// in\n    tag_69:\n        /* \"#utility.yul\":7:146   */\n      swap3\n      swap2\n      pop\n      pop\n      jump\t// out\n        /* \"#utility.yul\":152:293   */\n    tag_71:\n        /* \"#utility.yul\":208:213   */\n      0x00\n        /* \"#utility.yul\":239:245   */\n      dup2\n        /* \"#utility.yul\":233:246   */\n      mload\n        /* \"#utility.yul\":224:246   */\n      swap1\n      pop\n        /* \"#utility.yul\":255:287   */\n      tag_73\n        /* \"#utility.yul\":281:286   */\n      dup2\n        /* \"#utility.yul\":255:287   */\n      tag_74\n      jump\t// in\n    tag_73:\n        /* \"#utility.yul\":152:293   */\n      swap3\n      swap2\n      pop\n      pop\n      jump\t// out\n        /* \"#utility.yul\":299:438   */\n    tag_75:\n        /* \"#utility.yul\":345:350   */\n      0x00\n        /* \"#utility.yul\":383:389   */\n      dup2\n        /* \"#utility.yul\":370:390   */\n      calldataload\n        /* \"#utility.yul\":361:390   */\n      swap1\n      pop\n        /* \"#utility.yul\":399:432   */\n      tag_77\n        /* \"#utility.yul\":426:431   */\n      dup2\n        /* \"#utility.yul\":399:432   */\n      tag_78\n      jump\t// in\n    tag_77:\n        /* \"#utility.yul\":299:438   */\n      swap3\n      swap2\n      pop\n      pop\n      jump\t// out\n        /* \"#utility.yul\":444:587   */\n    tag_79:\n        /* \"#utility.yul\":501:506   */\n      0x00\n        /* \"#utility.yul\":532:538   */\n      dup2\n        /* \"#utility.yul\":526:539   */\n      mload\n        /* \"#utility.yul\":517:539   */\n      swap1\n      pop\n        /* \"#utility.yul\":548:581   */\n      tag_81\n        /* \"#utility.yul\":575:580   */\n      dup2\n        /* \"#utility.yul\":548:581   */\n      tag_78\n      jump\t// in\n    tag_81:\n        /* \"#utility.yul\":444:587   */\n      swap3\n      swap2\n      pop\n      pop\n      jump\t// out\n        /* \"#utility.yul\":593:734   */\n    tag_82:\n        /* \"#utility.yul\":649:654   */\n      0x00\n        /* \"#utility.yul\":680:686   */\n      dup2\n        /* \"#utility.yul\":674:687   */\n      mload\n        /* \"#utility.yul\":665:687   */\n      swap1\n      pop\n        /* \"#utility.yul\":696:728   */\n      tag_84\n        /* \"#utility.yul\":722:727   */\n      dup2\n        /* \"#utility.yul\":696:728   */\n      tag_85\n      jump\t// in\n    tag_84:\n        /* \"#utility.yul\":593:734   */\n      swap3\n      swap2\n      pop\n      pop\n      jump\t// out\n        /* \"#utility.yul\":740:1069   */\n    tag_18:\n        /* \"#utility.yul\":799:805   */\n      0x00\n        /* \"#utility.yul\":848:850   */\n      0x20\n        /* \"#utility.yul\":836:845   */\n      dup3\n        /* \"#utility.yul\":827:834   */\n      dup5\n        /* \"#utility.yul\":823:846   */\n      sub\n        /* \"#utility.yul\":819:851   */\n      slt\n        /* \"#utility.yul\":816:935   */\n      iszero\n      tag_87\n      jumpi\n        /* \"#utility.yul\":854:933   */\n      tag_88\n      tag_89\n      jump\t// in\n    tag_88:\n        /* \"#utility.yul\":816:935   */\n    tag_87:\n        /* \"#utility.yul\":974:975   */\n      0x00\n        /* \"#utility.yul\":999:1052   */\n      tag_90\n        /* \"#utility.yul\":1044:1051   */\n      dup5\n        /* \"#utility.yul\":1035:1041   */\n      dup3\n        /* \"#utility.yul\":1024:1033   */\n      dup6\n        /* \"#utility.yul\":1020:1042   */\n      add\n        /* \"#utility.yul\":999:1052   */\n      tag_67\n      jump\t// in\n    tag_90:\n        /* \"#utility.yul\":989:1052   */\n      swap2\n      pop\n        /* \"#utility.yul\":945:1062   */\n      pop\n        /* \"#utility.yul\":740:1069   */\n      swap3\n      swap2\n      pop\n      pop\n      jump\t// out\n        /* \"#utility.yul\":1075:1404   */\n    tag_26:\n        /* \"#utility.yul\":1134:1140   */\n      0x00\n        /* \"#utility.yul\":1183:1185   */\n      0x20\n        /* \"#utility.yul\":1171:1180   */\n      dup3\n        /* \"#utility.yul\":1162:1169   */\n      dup5\n        /* \"#utility.yul\":1158:1181   */\n      sub\n        /* \"#utility.yul\":1154:1186   */\n      slt\n        /* \"#utility.yul\":1151:1270   */\n      iszero\n      tag_92\n      jumpi\n        /* \"#utility.yul\":1189:1268   */\n      tag_93\n      tag_89\n      jump\t// in\n    tag_93:\n        /* \"#utility.yul\":1151:1270   */\n    tag_92:\n        /* \"#utility.yul\":1309:1310   */\n      0x00\n        /* \"#utility.yul\":1334:1387   */\n      tag_94\n        /* \"#utility.yul\":1379:1386   */\n      dup5\n        /* \"#utility.yul\":1370:1376   */\n      dup3\n        /* \"#utility.yul\":1359:1368   */\n      dup6\n        /* \"#utility.yul\":1355:1377   */\n      add\n        /* \"#utility.yul\":1334:1387   */\n      tag_75\n      jump\t// in\n    tag_94:\n        /* \"#utility.yul\":1324:1387   */\n      swap2\n      pop\n        /* \"#utility.yul\":1280:1397   */\n      pop\n        /* \"#utility.yul\":1075:1404   */\n      swap3\n      swap2\n      pop\n      pop\n      jump\t// out\n        /* \"#utility.yul\":1410:2381   */\n    tag_63:\n        /* \"#utility.yul\":1513:1519   */\n      0x00\n        /* \"#utility.yul\":1521:1527   */\n      dup1\n        /* \"#utility.yul\":1529:1535   */\n      0x00\n        /* \"#utility.yul\":1537:1543   */\n      dup1\n        /* \"#utility.yul\":1545:1551   */\n      0x00\n        /* \"#utility.yul\":1594:1597   */\n      0xa0\n        /* \"#utility.yul\":1582:1591   */\n      dup7\n        /* \"#utility.yul\":1573:1580   */\n      dup9\n        /* \"#utility.yul\":1569:1592   */\n      sub\n        /* \"#utility.yul\":1565:1598   */\n      slt\n        /* \"#utility.yul\":1562:1682   */\n      iszero\n      tag_96\n      jumpi\n        /* \"#utility.yul\":1601:1680   */\n      tag_97\n      tag_89\n      jump\t// in\n    tag_97:\n        /* \"#utility.yul\":1562:1682   */\n    tag_96:\n        /* \"#utility.yul\":1721:1722   */\n      0x00\n        /* \"#utility.yul\":1746:1809   */\n      tag_98\n        /* \"#utility.yul\":1801:1808   */\n      dup9\n        /* \"#utility.yul\":1792:1798   */\n      dup3\n        /* \"#utility.yul\":1781:1790   */\n      dup10\n        /* \"#utility.yul\":1777:1799   */\n      add\n        /* \"#utility.yul\":1746:1809   */\n      tag_82\n      jump\t// in\n    tag_98:\n        /* \"#utility.yul\":1736:1809   */\n      swap6\n      pop\n        /* \"#utility.yul\":1692:1819   */\n      pop\n        /* \"#utility.yul\":1858:1860   */\n      0x20\n        /* \"#utility.yul\":1884:1947   */\n      tag_99\n        /* \"#utility.yul\":1939:1946   */\n      dup9\n        /* \"#utility.yul\":1930:1936   */\n      dup3\n        /* \"#utility.yul\":1919:1928   */\n      dup10\n        /* \"#utility.yul\":1915:1937   */\n      add\n        /* \"#utility.yul\":1884:1947   */\n      tag_71\n      jump\t// in\n    tag_99:\n        /* \"#utility.yul\":1874:1947   */\n      swap5\n      pop\n        /* \"#utility.yul\":1829:1957   */\n      pop\n        /* \"#utility.yul\":1996:1998   */\n      0x40\n        /* \"#utility.yul\":2022:2086   */\n      tag_100\n        /* \"#utility.yul\":2078:2085   */\n      dup9\n        /* \"#utility.yul\":2069:2075   */\n      dup3\n        /* \"#utility.yul\":2058:2067   */\n      dup10\n        /* \"#utility.yul\":2054:2076   */\n      add\n        /* \"#utility.yul\":2022:2086   */\n      tag_79\n      jump\t// in\n    tag_100:\n        /* \"#utility.yul\":2012:2086   */\n      swap4\n      pop\n        /* \"#utility.yul\":1967:2096   */\n      pop\n        /* \"#utility.yul\":2135:2137   */\n      0x60\n        /* \"#utility.yul\":2161:2225   */\n      tag_101\n        /* \"#utility.yul\":2217:2224   */\n      dup9\n        /* \"#utility.yul\":2208:2214   */\n      dup3\n        /* \"#utility.yul\":2197:2206   */\n      dup10\n        /* \"#utility.yul\":2193:2215   */\n      add\n        /* \"#utility.yul\":2161:2225   */\n      tag_79\n      jump\t// in\n    tag_101:\n        /* \"#utility.yul\":2151:2225   */\n      swap3\n      pop\n        /* \"#utility.yul\":2106:2235   */\n      pop\n        /* \"#utility.yul\":2274:2277   */\n      0x80\n        /* \"#utility.yul\":2301:2364   */\n      tag_102\n        /* \"#utility.yul\":2356:2363   */\n      dup9\n        /* \"#utility.yul\":2347:2353   */\n      dup3\n        /* \"#utility.yul\":2336:2345   */\n      dup10\n        /* \"#utility.yul\":2332:2354   */\n      add\n        /* \"#utility.yul\":2301:2364   */\n      tag_82\n      jump\t// in\n    tag_102:\n        /* \"#utility.yul\":2291:2364   */\n      swap2\n      pop\n        /* \"#utility.yul\":2245:2374   */\n      pop\n        /* \"#utility.yul\":1410:2381   */\n      swap3\n      swap6\n      pop\n      swap3\n      swap6\n      swap1\n      swap4\n      pop\n      jump\t// out\n        /* \"#utility.yul\":2387:2505   */\n    tag_103:\n        /* \"#utility.yul\":2474:2498   */\n      tag_105\n        /* \"#utility.yul\":2492:2497   */\n      dup2\n        /* \"#utility.yul\":2474:2498   */\n      tag_106\n      jump\t// in\n    tag_105:\n        /* \"#utility.yul\":2469:2472   */\n      dup3\n        /* \"#utility.yul\":2462:2499   */\n      mstore\n        /* \"#utility.yul\":2387:2505   */\n      pop\n      pop\n      jump\t// out\n        /* \"#utility.yul\":2511:2877   */\n    tag_107:\n        /* \"#utility.yul\":2653:2656   */\n      0x00\n        /* \"#utility.yul\":2674:2741   */\n      tag_109\n        /* \"#utility.yul\":2738:2740   */\n      0x13\n        /* \"#utility.yul\":2733:2736   */\n      dup4\n        /* \"#utility.yul\":2674:2741   */\n      tag_110\n      jump\t// in\n    tag_109:\n        /* \"#utility.yul\":2667:2741   */\n      swap2\n      pop\n        /* \"#utility.yul\":2750:2843   */\n      tag_111\n        /* \"#utility.yul\":2839:2842   */\n      dup3\n        /* \"#utility.yul\":2750:2843   */\n      tag_112\n      jump\t// in\n    tag_111:\n        /* \"#utility.yul\":2868:2870   */\n      0x20\n        /* \"#utility.yul\":2863:2866   */\n      dup3\n        /* \"#utility.yul\":2859:2871   */\n      add\n        /* \"#utility.yul\":2852:2871   */\n      swap1\n      pop\n        /* \"#utility.yul\":2511:2877   */\n      swap2\n      swap1\n      pop\n      jump\t// out\n        /* \"#utility.yul\":2883:3001   */\n    tag_113:\n        /* \"#utility.yul\":2970:2994   */\n      tag_115\n        /* \"#utility.yul\":2988:2993   */\n      dup2\n        /* \"#utility.yul\":2970:2994   */\n      tag_116\n      jump\t// in\n    tag_115:\n        /* \"#utility.yul\":2965:2968   */\n      dup3\n        /* \"#utility.yul\":2958:2995   */\n      mstore\n        /* \"#utility.yul\":2883:3001   */\n      pop\n      pop\n      jump\t// out\n        /* \"#utility.yul\":3007:3229   */\n    tag_29:\n        /* \"#utility.yul\":3100:3104   */\n      0x00\n        /* \"#utility.yul\":3138:3140   */\n      0x20\n        /* \"#utility.yul\":3127:3136   */\n      dup3\n        /* \"#utility.yul\":3123:3141   */\n      add\n        /* \"#utility.yul\":3115:3141   */\n      swap1\n      pop\n        /* \"#utility.yul\":3151:3222   */\n      tag_118\n        /* \"#utility.yul\":3219:3220   */\n      0x00\n        /* \"#utility.yul\":3208:3217   */\n      dup4\n        /* \"#utility.yul\":3204:3221   */\n      add\n        /* \"#utility.yul\":3195:3201   */\n      dup5\n        /* \"#utility.yul\":3151:3222   */\n      tag_103\n      jump\t// in\n    tag_118:\n        /* \"#utility.yul\":3007:3229   */\n      swap3\n      swap2\n      pop\n      pop\n      jump\t// out\n        /* \"#utility.yul\":3235:3654   */\n    tag_45:\n        /* \"#utility.yul\":3401:3405   */\n      0x00\n        /* \"#utility.yul\":3439:3441   */\n      0x20\n        /* \"#utility.yul\":3428:3437   */\n      dup3\n        /* \"#utility.yul\":3424:3442   */\n      add\n        /* \"#utility.yul\":3416:3442   */\n      swap1\n      pop\n        /* \"#utility.yul\":3488:3497   */\n      dup2\n        /* \"#utility.yul\":3482:3486   */\n      dup2\n        /* \"#utility.yul\":3478:3498   */\n      sub\n        /* \"#utility.yul\":3474:3475   */\n      0x00\n        /* \"#utility.yul\":3463:3472   */\n      dup4\n        /* \"#utility.yul\":3459:3476   */\n      add\n        /* \"#utility.yul\":3452:3499   */\n      mstore\n        /* \"#utility.yul\":3516:3647   */\n      tag_120\n        /* \"#utility.yul\":3642:3646   */\n      dup2\n        /* \"#utility.yul\":3516:3647   */\n      tag_107\n      jump\t// in\n    tag_120:\n        /* \"#utility.yul\":3508:3647   */\n      swap1\n      pop\n        /* \"#utility.yul\":3235:3654   */\n      swap2\n      swap1\n      pop\n      jump\t// out\n        /* \"#utility.yul\":3660:3882   */\n    tag_11:\n        /* \"#utility.yul\":3753:3757   */\n      0x00\n        /* \"#utility.yul\":3791:3793   */\n      0x20\n        /* \"#utility.yul\":3780:3789   */\n      dup3\n        /* \"#utility.yul\":3776:3794   */\n      add\n        /* \"#utility.yul\":3768:3794   */\n      swap1\n      pop\n        /* \"#utility.yul\":3804:3875   */\n      tag_122\n        /* \"#utility.yul\":3872:3873   */\n      0x00\n        /* \"#utility.yul\":3861:3870   */\n      dup4\n        /* \"#utility.yul\":3857:3874   */\n      add\n        /* \"#utility.yul\":3848:3854   */\n      dup5\n        /* \"#utility.yul\":3804:3875   */\n      tag_113\n      jump\t// in\n    tag_122:\n        /* \"#utility.yul\":3660:3882   */\n      swap3\n      swap2\n      pop\n      pop\n      jump\t// out\n        /* \"#utility.yul\":3969:4138   */\n    tag_110:\n        /* \"#utility.yul\":4053:4064   */\n      0x00\n        /* \"#utility.yul\":4087:4093   */\n      dup3\n        /* \"#utility.yul\":4082:4085   */\n      dup3\n        /* \"#utility.yul\":4075:4094   */\n      mstore\n        /* \"#utility.yul\":4127:4131   */\n      0x20\n        /* \"#utility.yul\":4122:4125   */\n      dup3\n        /* \"#utility.yul\":4118:4132   */\n      add\n        /* \"#utility.yul\":4103:4132   */\n      swap1\n      pop\n        /* \"#utility.yul\":3969:4138   */\n      swap3\n      swap2\n      pop\n      pop\n      jump\t// out\n        /* \"#utility.yul\":4144:4449   */\n    tag_48:\n        /* \"#utility.yul\":4184:4187   */\n      0x00\n        /* \"#utility.yul\":4203:4223   */\n      tag_127\n        /* \"#utility.yul\":4221:4222   */\n      dup3\n        /* \"#utility.yul\":4203:4223   */\n      tag_116\n      jump\t// in\n    tag_127:\n        /* \"#utility.yul\":4198:4223   */\n      swap2\n      pop\n        /* \"#utility.yul\":4237:4257   */\n      tag_128\n        /* \"#utility.yul\":4255:4256   */\n      dup4\n        /* \"#utility.yul\":4237:4257   */\n      tag_116\n      jump\t// in\n    tag_128:\n        /* \"#utility.yul\":4232:4257   */\n      swap3\n      pop\n        /* \"#utility.yul\":4391:4392   */\n      dup3\n        /* \"#utility.yul\":4323:4389   */\n      0xffffffffffffffffffffffffffffffffffffffffffffffffffffffffffffffff\n        /* \"#utility.yul\":4319:4393   */\n      sub\n        /* \"#utility.yul\":4316:4317   */\n      dup3\n        /* \"#utility.yul\":4313:4394   */\n      gt\n        /* \"#utility.yul\":4310:4417   */\n      iszero\n      tag_129\n      jumpi\n        /* \"#utility.yul\":4397:4415   */\n      tag_130\n      tag_131\n      jump\t// in\n    tag_130:\n        /* \"#utility.yul\":4310:4417   */\n    tag_129:\n        /* \"#utility.yul\":4441:4442   */\n      dup3\n        /* \"#utility.yul\":4438:4439   */\n      dup3\n        /* \"#utility.yul\":4434:4443   */\n      add\n        /* \"#utility.yul\":4427:4443   */\n      swap1\n      pop\n        /* \"#utility.yul\":4144:4449   */\n      swap3\n      swap2\n      pop\n      pop\n      jump\t// out\n        /* \"#utility.yul\":4455:4640   */\n    tag_57:\n        /* \"#utility.yul\":4495:4496   */\n      0x00\n        /* \"#utility.yul\":4512:4532   */\n      tag_133\n        /* \"#utility.yul\":4530:4531   */\n      dup3\n        /* \"#utility.yul\":4512:4532   */\n      tag_116\n      jump\t// in\n    tag_133:\n        /* \"#utility.yul\":4507:4532   */\n      swap2\n      pop\n        /* \"#utility.yul\":4546:4566   */\n      tag_134\n        /* \"#utility.yul\":4564:4565   */\n      dup4\n        /* \"#utility.yul\":4546:4566   */\n      tag_116\n      jump\t// in\n    tag_134:\n        /* \"#utility.yul\":4541:4566   */\n      swap3\n      pop\n        /* \"#utility.yul\":4585:4586   */\n      dup3\n        /* \"#utility.yul\":4575:4610   */\n      tag_135\n      jumpi\n        /* \"#utility.yul\":4590:4608   */\n      tag_136\n      tag_137\n      jump\t// in\n    tag_136:\n        /* \"#utility.yul\":4575:4610   */\n    tag_135:\n        /* \"#utility.yul\":4632:4633   */\n      dup3\n        /* \"#utility.yul\":4629:4630   */\n      dup3\n        /* \"#utility.yul\":4625:4634   */\n      div\n        /* \"#utility.yul\":4620:4634   */\n      swap1\n      pop\n        /* \"#utility.yul\":4455:4640   */\n      swap3\n      swap2\n      pop\n      pop\n      jump\t// out\n        /* \"#utility.yul\":4646:5637   */\n    tag_65:\n        /* \"#utility.yul\":4685:4692   */\n      0x00\n        /* \"#utility.yul\":4708:4727   */\n      tag_139\n        /* \"#utility.yul\":4725:4726   */\n      dup3\n        /* \"#utility.yul\":4708:4727   */\n      tag_140\n      jump\t// in\n    tag_139:\n        /* \"#utility.yul\":4703:4727   */\n      swap2\n      pop\n        /* \"#utility.yul\":4741:4760   */\n      tag_141\n        /* \"#utility.yul\":4758:4759   */\n      dup4\n        /* \"#utility.yul\":4741:4760   */\n      tag_140\n      jump\t// in\n    tag_141:\n        /* \"#utility.yul\":4736:4760   */\n      swap3\n      pop\n        /* \"#utility.yul\":4942:4943   */\n      dup3\n        /* \"#utility.yul\":4874:4940   */\n      0x7fffffffffffffffffffffffffffffffffffffffffffffffffffffffffffffff\n        /* \"#utility.yul\":4870:4944   */\n      div\n        /* \"#utility.yul\":4867:4868   */\n      dup3\n        /* \"#utility.yul\":4864:4945   */\n      gt\n        /* \"#utility.yul\":4859:4860   */\n      0x00\n        /* \"#utility.yul\":4856:4857   */\n      dup5\n        /* \"#utility.yul\":4852:4861   */\n      sgt\n        /* \"#utility.yul\":4848:4849   */\n      0x00\n        /* \"#utility.yul\":4845:4846   */\n      dup5\n        /* \"#utility.yul\":4841:4850   */\n      sgt\n        /* \"#utility.yul\":4837:4862   */\n      and\n        /* \"#utility.yul\":4833:4946   */\n      and\n        /* \"#utility.yul\":4830:4969   */\n      iszero\n      tag_142\n      jumpi\n        /* \"#utility.yul\":4949:4967   */\n      tag_143\n      tag_131\n      jump\t// in\n    tag_143:\n        /* \"#utility.yul\":4830:4969   */\n    tag_142:\n        /* \"#utility.yul\":5153:5154   */\n      dup2\n        /* \"#utility.yul\":5085:5151   */\n      0x8000000000000000000000000000000000000000000000000000000000000000\n        /* \"#utility.yul\":5080:5155   */\n      sdiv\n        /* \"#utility.yul\":5077:5078   */\n      dup4\n        /* \"#utility.yul\":5073:5156   */\n      slt\n        /* \"#utility.yul\":5068:5069   */\n      0x00\n        /* \"#utility.yul\":5065:5066   */\n      dup5\n        /* \"#utility.yul\":5061:5070   */\n      slt\n        /* \"#utility.yul\":5057:5058   */\n      0x00\n        /* \"#utility.yul\":5054:5055   */\n      dup5\n        /* \"#utility.yul\":5050:5059   */\n      sgt\n        /* \"#utility.yul\":5046:5071   */\n      and\n        /* \"#utility.yul\":5042:5157   */\n      and\n        /* \"#utility.yul\":5039:5180   */\n      iszero\n      tag_144\n      jumpi\n        /* \"#utility.yul\":5160:5178   */\n      tag_145\n      tag_131\n      jump\t// in\n    tag_145:\n        /* \"#utility.yul\":5039:5180   */\n    tag_144:\n        /* \"#utility.yul\":5364:5365   */\n      dup3\n        /* \"#utility.yul\":5296:5362   */\n      0x8000000000000000000000000000000000000000000000000000000000000000\n        /* \"#utility.yul\":5291:5366   */\n      sdiv\n        /* \"#utility.yul\":5288:5289   */\n      dup3\n        /* \"#utility.yul\":5284:5367   */\n      slt\n        /* \"#utility.yul\":5279:5280   */\n      0x00\n        /* \"#utility.yul\":5276:5277   */\n      dup5\n        /* \"#utility.yul\":5272:5281   */\n      sgt\n        /* \"#utility.yul\":5268:5269   */\n      0x00\n        /* \"#utility.yul\":5265:5266   */\n      dup5\n        /* \"#utility.yul\":5261:5270   */\n      slt\n        /* \"#utility.yul\":5257:5282   */\n      and\n        /* \"#utility.yul\":5253:5368   */\n      and\n        /* \"#utility.yul\":5250:5391   */\n      iszero\n      tag_146\n      jumpi\n        /* \"#utility.yul\":5371:5389   */\n      tag_147\n      tag_131\n      jump\t// in\n    tag_147:\n        /* \"#utility.yul\":5250:5391   */\n    tag_146:\n        /* \"#utility.yul\":5574:5575   */\n      dup3\n        /* \"#utility.yul\":5506:5572   */\n      0x7fffffffffffffffffffffffffffffffffffffffffffffffffffffffffffffff\n        /* \"#utility.yul\":5501:5576   */\n      sdiv\n        /* \"#utility.yul\":5498:5499   */\n      dup3\n        /* \"#utility.yul\":5494:5577   */\n      slt\n        /* \"#utility.yul\":5489:5490   */\n      0x00\n        /* \"#utility.yul\":5486:5487   */\n      dup5\n        /* \"#utility.yul\":5482:5491   */\n      slt\n        /* \"#utility.yul\":5478:5479   */\n      0x00\n        /* \"#utility.yul\":5475:5476   */\n      dup5\n        /* \"#utility.yul\":5471:5480   */\n      slt\n        /* \"#utility.yul\":5467:5492   */\n      and\n        /* \"#utility.yul\":5463:5578   */\n      and\n        /* \"#utility.yul\":5460:5601   */\n      iszero\n      tag_148\n      jumpi\n        /* \"#utility.yul\":5581:5599   */\n      tag_149\n      tag_131\n      jump\t// in\n    tag_149:\n        /* \"#utility.yul\":5460:5601   */\n    tag_148:\n        /* \"#utility.yul\":5629:5630   */\n      dup3\n        /* \"#utility.yul\":5626:5627   */\n      dup3\n        /* \"#utility.yul\":5622:5631   */\n      mul\n        /* \"#utility.yul\":5611:5631   */\n      swap1\n      pop\n        /* \"#utility.yul\":4646:5637   */\n      swap3\n      swap2\n      pop\n      pop\n      jump\t// out\n        /* \"#utility.yul\":5643:5991   */\n    tag_55:\n        /* \"#utility.yul\":5683:5690   */\n      0x00\n        /* \"#utility.yul\":5706:5726   */\n      tag_151\n        /* \"#utility.yul\":5724:5725   */\n      dup3\n        /* \"#utility.yul\":5706:5726   */\n      tag_116\n      jump\t// in\n    tag_151:\n        /* \"#utility.yul\":5701:5726   */\n      swap2\n      pop\n        /* \"#utility.yul\":5740:5760   */\n      tag_152\n        /* \"#utility.yul\":5758:5759   */\n      dup4\n        /* \"#utility.yul\":5740:5760   */\n      tag_116\n      jump\t// in\n    tag_152:\n        /* \"#utility.yul\":5735:5760   */\n      swap3\n      pop\n        /* \"#utility.yul\":5928:5929   */\n      dup2\n        /* \"#utility.yul\":5860:5926   */\n      0xffffffffffffffffffffffffffffffffffffffffffffffffffffffffffffffff\n        /* \"#utility.yul\":5856:5930   */\n      div\n        /* \"#utility.yul\":5853:5854   */\n      dup4\n        /* \"#utility.yul\":5850:5931   */\n      gt\n        /* \"#utility.yul\":5845:5846   */\n      dup3\n        /* \"#utility.yul\":5838:5847   */\n      iszero\n        /* \"#utility.yul\":5831:5848   */\n      iszero\n        /* \"#utility.yul\":5827:5932   */\n      and\n        /* \"#utility.yul\":5824:5955   */\n      iszero\n      tag_153\n      jumpi\n        /* \"#utility.yul\":5935:5953   */\n      tag_154\n      tag_131\n      jump\t// in\n    tag_154:\n        /* \"#utility.yul\":5824:5955   */\n    tag_153:\n        /* \"#utility.yul\":5983:5984   */\n      dup3\n        /* \"#utility.yul\":5980:5981   */\n      dup3\n        /* \"#utility.yul\":5976:5985   */\n      mul\n        /* \"#utility.yul\":5965:5985   */\n      swap1\n      pop\n        /* \"#utility.yul\":5643:5991   */\n      swap3\n      swap2\n      pop\n      pop\n      jump\t// out\n        /* \"#utility.yul\":5997:6093   */\n    tag_106:\n        /* \"#utility.yul\":6034:6041   */\n      0x00\n        /* \"#utility.yul\":6063:6087   */\n      tag_156\n        /* \"#utility.yul\":6081:6086   */\n      dup3\n        /* \"#utility.yul\":6063:6087   */\n      tag_157\n      jump\t// in\n    tag_156:\n        /* \"#utility.yul\":6052:6087   */\n      swap1\n      pop\n        /* \"#utility.yul\":5997:6093   */\n      swap2\n      swap1\n      pop\n      jump\t// out\n        /* \"#utility.yul\":6099:6175   */\n    tag_140:\n        /* \"#utility.yul\":6135:6142   */\n      0x00\n        /* \"#utility.yul\":6164:6169   */\n      dup2\n        /* \"#utility.yul\":6153:6169   */\n      swap1\n      pop\n        /* \"#utility.yul\":6099:6175   */\n      swap2\n      swap1\n      pop\n      jump\t// out\n        /* \"#utility.yul\":6181:6307   */\n    tag_157:\n        /* \"#utility.yul\":6218:6225   */\n      0x00\n        /* \"#utility.yul\":6258:6300   */\n      0xffffffffffffffffffffffffffffffffffffffff\n        /* \"#utility.yul\":6251:6256   */\n      dup3\n        /* \"#utility.yul\":6247:6301   */\n      and\n        /* \"#utility.yul\":6236:6301   */\n      swap1\n      pop\n        /* \"#utility.yul\":6181:6307   */\n      swap2\n      swap1\n      pop\n      jump\t// out\n        /* \"#utility.yul\":6313:6390   */\n    tag_116:\n        /* \"#utility.yul\":6350:6357   */\n      0x00\n        /* \"#utility.yul\":6379:6384   */\n      dup2\n        /* \"#utility.yul\":6368:6384   */\n      swap1\n      pop\n        /* \"#utility.yul\":6313:6390   */\n      swap2\n      swap1\n      pop\n      jump\t// out\n        /* \"#utility.yul\":6396:6501   */\n    tag_161:\n        /* \"#utility.yul\":6432:6439   */\n      0x00\n        /* \"#utility.yul\":6472:6494   */\n      0xffffffffffffffffffff\n        /* \"#utility.yul\":6465:6470   */\n      dup3\n        /* \"#utility.yul\":6461:6495   */\n      and\n        /* \"#utility.yul\":6450:6495   */\n      swap1\n      pop\n        /* \"#utility.yul\":6396:6501   */\n      swap2\n      swap1\n      pop\n      jump\t// out\n        /* \"#utility.yul\":6507:6740   */\n    tag_39:\n        /* \"#utility.yul\":6546:6549   */\n      0x00\n        /* \"#utility.yul\":6569:6593   */\n      tag_164\n        /* \"#utility.yul\":6587:6592   */\n      dup3\n        /* \"#utility.yul\":6569:6593   */\n      tag_116\n      jump\t// in\n    tag_164:\n        /* \"#utility.yul\":6560:6593   */\n      swap2\n      pop\n        /* \"#utility.yul\":6615:6681   */\n      0xffffffffffffffffffffffffffffffffffffffffffffffffffffffffffffffff\n        /* \"#utility.yul\":6608:6613   */\n      dup3\n        /* \"#utility.yul\":6605:6682   */\n      eq\n        /* \"#utility.yul\":6602:6705   */\n      iszero\n      tag_165\n      jumpi\n        /* \"#utility.yul\":6685:6703   */\n      tag_166\n      tag_131\n      jump\t// in\n    tag_166:\n        /* \"#utility.yul\":6602:6705   */\n    tag_165:\n        /* \"#utility.yul\":6732:6733   */\n      0x01\n        /* \"#utility.yul\":6725:6730   */\n      dup3\n        /* \"#utility.yul\":6721:6734   */\n      add\n        /* \"#utility.yul\":6714:6734   */\n      swap1\n      pop\n        /* \"#utility.yul\":6507:6740   */\n      swap2\n      swap1\n      pop\n      jump\t// out\n        /* \"#utility.yul\":6746:6926   */\n    tag_131:\n        /* \"#utility.yul\":6794:6871   */\n      0x4e487b7100000000000000000000000000000000000000000000000000000000\n        /* \"#utility.yul\":6791:6792   */\n      0x00\n        /* \"#utility.yul\":6784:6872   */\n      mstore\n        /* \"#utility.yul\":6891:6895   */\n      0x11\n        /* \"#utility.yul\":6888:6889   */\n      0x04\n        /* \"#utility.yul\":6881:6896   */\n      mstore\n        /* \"#utility.yul\":6915:6919   */\n      0x24\n        /* \"#utility.yul\":6912:6913   */\n      0x00\n        /* \"#utility.yul\":6905:6920   */\n      revert\n        /* \"#utility.yul\":6932:7112   */\n    tag_137:\n        /* \"#utility.yul\":6980:7057   */\n      0x4e487b7100000000000000000000000000000000000000000000000000000000\n        /* \"#utility.yul\":6977:6978   */\n      0x00\n        /* \"#utility.yul\":6970:7058   */\n      mstore\n        /* \"#utility.yul\":7077:7081   */\n      0x12\n        /* \"#utility.yul\":7074:7075   */\n      0x04\n        /* \"#utility.yul\":7067:7082   */\n      mstore\n        /* \"#utility.yul\":7101:7105   */\n      0x24\n        /* \"#utility.yul\":7098:7099   */\n      0x00\n        /* \"#utility.yul\":7091:7106   */\n      revert\n        /* \"#utility.yul\":7118:7298   */\n    tag_36:\n        /* \"#utility.yul\":7166:7243   */\n      0x4e487b7100000000000000000000000000000000000000000000000000000000\n        /* \"#utility.yul\":7163:7164   */\n      0x00\n        /* \"#utility.yul\":7156:7244   */\n      mstore\n        /* \"#utility.yul\":7263:7267   */\n      0x32\n        /* \"#utility.yul\":7260:7261   */\n      0x04\n        /* \"#utility.yul\":7253:7268   */\n      mstore\n        /* \"#utility.yul\":7287:7291   */\n      0x24\n        /* \"#utility.yul\":7284:7285   */\n      0x00\n        /* \"#utility.yul\":7277:7292   */\n      revert\n        /* \"#utility.yul\":7427:7544   */\n    tag_89:\n        /* \"#utility.yul\":7536:7537   */\n      0x00\n        /* \"#utility.yul\":7533:7534   */\n      dup1\n        /* \"#utility.yul\":7526:7538   */\n      revert\n        /* \"#utility.yul\":7550:7719   */\n    tag_112:\n        /* \"#utility.yul\":7690:7711   */\n      0x4469646e27742073656e6420656e6f7567682100000000000000000000000000\n        /* \"#utility.yul\":7686:7687   */\n      0x00\n        /* \"#utility.yul\":7678:7684   */\n      dup3\n        /* \"#utility.yul\":7674:7688   */\n      add\n        /* \"#utility.yul\":7667:7712   */\n      mstore\n        /* \"#utility.yul\":7550:7719   */\n      pop\n      jump\t// out\n        /* \"#utility.yul\":7725:7847   */\n    tag_70:\n        /* \"#utility.yul\":7798:7822   */\n      tag_175\n        /* \"#utility.yul\":7816:7821   */\n      dup2\n        /* \"#utility.yul\":7798:7822   */\n      tag_106\n      jump\t// in\n    tag_175:\n        /* \"#utility.yul\":7791:7796   */\n      dup2\n        /* \"#utility.yul\":7788:7823   */\n      eq\n        /* \"#utility.yul\":7778:7841   */\n      tag_176\n      jumpi\n        /* \"#utility.yul\":7837:7838   */\n      0x00\n        /* \"#utility.yul\":7834:7835   */\n      dup1\n        /* \"#utility.yul\":7827:7839   */\n      revert\n        /* \"#utility.yul\":7778:7841   */\n    tag_176:\n        /* \"#utility.yul\":7725:7847   */\n      pop\n      jump\t// out\n        /* \"#utility.yul\":7853:7973   */\n    tag_74:\n        /* \"#utility.yul\":7925:7948   */\n      tag_178\n        /* \"#utility.yul\":7942:7947   */\n      dup2\n        /* \"#utility.yul\":7925:7948   */\n      tag_140\n      jump\t// in\n    tag_178:\n        /* \"#utility.yul\":7918:7923   */\n      dup2\n        /* \"#utility.yul\":7915:7949   */\n      eq\n        /* \"#utility.yul\":7905:7967   */\n      tag_179\n      jumpi\n        /* \"#utility.yul\":7963:7964   */\n      0x00\n        /* \"#utility.yul\":7960:7961   */\n      dup1\n        /* \"#utility.yul\":7953:7965   */\n      revert\n        /* \"#utility.yul\":7905:7967   */\n    tag_179:\n        /* \"#utility.yul\":7853:7973   */\n      pop\n      jump\t// out\n        /* \"#utility.yul\":7979:8101   */\n    tag_78:\n        /* \"#utility.yul\":8052:8076   */\n      tag_181\n        /* \"#utility.yul\":8070:8075   */\n      dup2\n        /* \"#utility.yul\":8052:8076   */\n      tag_116\n      jump\t// in\n    tag_181:\n        /* \"#utility.yul\":8045:8050   */\n      dup2\n        /* \"#utility.yul\":8042:8077   */\n      eq\n        /* \"#utility.yul\":8032:8095   */\n      tag_182\n      jumpi\n        /* \"#utility.yul\":8091:8092   */\n      0x00\n        /* \"#utility.yul\":8088:8089   */\n      dup1\n        /* \"#utility.yul\":8081:8093   */\n      revert\n        /* \"#utility.yul\":8032:8095   */\n    tag_182:\n        /* \"#utility.yul\":7979:8101   */\n      pop\n      jump\t// out\n        /* \"#utility.yul\":8107:8227   */\n    tag_85:\n        /* \"#utility.yul\":8179:8202   */\n      tag_184\n        /* \"#utility.yul\":8196:8201   */\n      dup2\n        /* \"#utility.yul\":8179:8202   */\n      tag_161\n      jump\t// in\n    tag_184:\n        /* \"#utility.yul\":8172:8177   */\n      dup2\n        /* \"#utility.yul\":8169:8203   */\n      eq\n        /* \"#utility.yul\":8159:8221   */\n      tag_185\n      jumpi\n        /* \"#utility.yul\":8217:8218   */\n      0x00\n        /* \"#utility.yul\":8214:8215   */\n      dup1\n        /* \"#utility.yul\":8207:8219   */\n      revert\n        /* \"#utility.yul\":8159:8221   */\n    tag_185:\n        /* \"#utility.yul\":8107:8227   */\n      pop\n      jump\t// out\n\n    auxdata: 0xa2646970667358221220acc8fa203e5f879c366908a84dbc2936b08324e922def7ce780a681358a1075564736f6c63430008070033\n}\n",
				"bytecode": {
					"linkReferences": {},
					"object": "60806040526802b5e3af16b188000060005534801561001d57600080fd5b506109eb8061002d6000396000f3fe60806040526004361061004a5760003560e01c80633430a88c1461004f5780633ccfd60b1461007a5780633e47d6f314610091578063b60d4288146100ce578063dc0d3dff146100d8575b600080fd5b34801561005b57600080fd5b50610064610115565b60405161007191906105d5565b60405180910390f35b34801561008657600080fd5b5061008f61011b565b005b34801561009d57600080fd5b506100b860048036038101906100b39190610484565b6101ca565b6040516100c591906105d5565b60405180910390f35b6100d66101e2565b005b3480156100e457600080fd5b506100ff60048036038101906100fa91906104b1565b6102ea565b60405161010c919061059a565b60405180910390f35b60005481565b60005b6001805490508110156101c757600060018281548110610141576101406108fc565b5b9060005260206000200160009054906101000a900473ffffffffffffffffffffffffffffffffffffffff1690506000600260008373ffffffffffffffffffffffffffffffffffffffff1673ffffffffffffffffffffffffffffffffffffffff168152602001908152602001600020819055505080806101bf90610855565b91505061011e565b50565b60026020528060005260406000206000915090505481565b6000546101ee34610329565b101561022f576040517f08c379a0000000000000000000000000000000000000000000000000000000008152600401610226906105b5565b60405180910390fd5b6001339080600181540180825580915050600190039060005260206000200160009091909190916101000a81548173ffffffffffffffffffffffffffffffffffffffff021916908373ffffffffffffffffffffffffffffffffffffffff16021790555034600260003373ffffffffffffffffffffffffffffffffffffffff1673ffffffffffffffffffffffffffffffffffffffff16815260200190815260200160002060008282546102e19190610601565b92505081905550565b600181815481106102fa57600080fd5b906000526020600020016000915054906101000a900473ffffffffffffffffffffffffffffffffffffffff1681565b600080610334610363565b90506000670de0b6b3a7640000848361034d919061079f565b6103579190610657565b90508092505050919050565b600080738a753747a1fa494ec906ce90e9f37563a8af630e905060008173ffffffffffffffffffffffffffffffffffffffff1663feaf968c6040518163ffffffff1660e01b815260040160a06040518083038186803b1580156103c557600080fd5b505afa1580156103d9573d6000803e3d6000fd5b505050506040513d601f19601f820116820180604052508101906103fd91906104de565b5050509150506402540be400816104149190610688565b9250505090565b60008135905061042a81610959565b92915050565b60008151905061043f81610970565b92915050565b60008135905061045481610987565b92915050565b60008151905061046981610987565b92915050565b60008151905061047e8161099e565b92915050565b60006020828403121561049a5761049961092b565b5b60006104a88482850161041b565b91505092915050565b6000602082840312156104c7576104c661092b565b5b60006104d584828501610445565b91505092915050565b600080600080600060a086880312156104fa576104f961092b565b5b60006105088882890161046f565b955050602061051988828901610430565b945050604061052a8882890161045a565b935050606061053b8882890161045a565b925050608061054c8882890161046f565b9150509295509295909350565b610562816107f9565b82525050565b60006105756013836105f0565b915061058082610930565b602082019050919050565b61059481610835565b82525050565b60006020820190506105af6000830184610559565b92915050565b600060208201905081810360008301526105ce81610568565b9050919050565b60006020820190506105ea600083018461058b565b92915050565b600082825260208201905092915050565b600061060c82610835565b915061061783610835565b9250827fffffffffffffffffffffffffffffffffffffffffffffffffffffffffffffffff0382111561064c5761064b61089e565b5b828201905092915050565b600061066282610835565b915061066d83610835565b92508261067d5761067c6108cd565b5b828204905092915050565b60006106938261080b565b915061069e8361080b565b9250827f7fffffffffffffffffffffffffffffffffffffffffffffffffffffffffffffff04821160008413600084131616156106dd576106dc61089e565b5b817f8000000000000000000000000000000000000000000000000000000000000000058312600084126000841316161561071a5761071961089e565b5b827f800000000000000000000000000000000000000000000000000000000000000005821260008413600084121616156107575761075661089e565b5b827f7fffffffffffffffffffffffffffffffffffffffffffffffffffffffffffffff05821260008412600084121616156107945761079361089e565b5b828202905092915050565b60006107aa82610835565b91506107b583610835565b9250817fffffffffffffffffffffffffffffffffffffffffffffffffffffffffffffffff04831182151516156107ee576107ed61089e565b5b828202905092915050565b600061080482610815565b9050919050565b6000819050919050565b600073ffffffffffffffffffffffffffffffffffffffff82169050919050565b6000819050919050565b600069ffffffffffffffffffff82169050919050565b600061086082610835565b91507fffffffffffffffffffffffffffffffffffffffffffffffffffffffffffffffff8214156108935761089261089e565b5b600182019050919050565b7f4e487b7100000000000000000000000000000000000000000000000000000000600052601160045260246000fd5b7f4e487b7100000000000000000000000000000000000000000000000000000000600052601260045260246000fd5b7f4e487b7100000000000000000000000000000000000000000000000000000000600052603260045260246000fd5b600080fd5b7f4469646e27742073656e6420656e6f7567682100000000000000000000000000600082015250565b610962816107f9565b811461096d57600080fd5b50565b6109798161080b565b811461098457600080fd5b50565b61099081610835565b811461099b57600080fd5b50565b6109a78161083f565b81146109b257600080fd5b5056fea2646970667358221220acc8fa203e5f879c366908a84dbc2936b08324e922def7ce780a681358a1075564736f6c63430008070033",
					"opcodes": "PUSH1 0x80 PUSH1 0x40 MSTORE PUSH9 0x2B5E3AF16B1880000 PUSH1 0x0 SSTORE CALLVALUE DUP1 ISZERO PUSH2 0x1D JUMPI PUSH1 0x0 DUP1 REVERT JUMPDEST POP PUSH2 0x9EB DUP1 PUSH2 0x2D PUSH1 0x0 CODECOPY PUSH1 0x0 RETURN INVALID PUSH1 0x80 PUSH1 0x40 MSTORE PUSH1 0x4 CALLDATASIZE LT PUSH2 0x4A JUMPI PUSH1 0x0 CALLDATALOAD PUSH1 0xE0 SHR DUP1 PUSH4 0x3430A88C EQ PUSH2 0x4F JUMPI DUP1 PUSH4 0x3CCFD60B EQ PUSH2 0x7A JUMPI DUP1 PUSH4 0x3E47D6F3 EQ PUSH2 0x91 JUMPI DUP1 PUSH4 0xB60D4288 EQ PUSH2 0xCE JUMPI DUP1 PUSH4 0xDC0D3DFF EQ PUSH2 0xD8 JUMPI JUMPDEST PUSH1 0x0 DUP1 REVERT JUMPDEST CALLVALUE DUP1 ISZERO PUSH2 0x5B JUMPI PUSH1 0x0 DUP1 REVERT JUMPDEST POP PUSH2 0x64 PUSH2 0x115 JUMP JUMPDEST PUSH1 0x40 MLOAD PUSH2 0x71 SWAP2 SWAP1 PUSH2 0x5D5 JUMP JUMPDEST PUSH1 0x40 MLOAD DUP1 SWAP2 SUB SWAP1 RETURN JUMPDEST CALLVALUE DUP1 ISZERO PUSH2 0x86 JUMPI PUSH1 0x0 DUP1 REVERT JUMPDEST POP PUSH2 0x8F PUSH2 0x11B JUMP JUMPDEST STOP JUMPDEST CALLVALUE DUP1 ISZERO PUSH2 0x9D JUMPI PUSH1 0x0 DUP1 REVERT JUMPDEST POP PUSH2 0xB8 PUSH1 0x4 DUP1 CALLDATASIZE SUB DUP2 ADD SWAP1 PUSH2 0xB3 SWAP2 SWAP1 PUSH2 0x484 JUMP JUMPDEST PUSH2 0x1CA JUMP JUMPDEST PUSH1 0x40 MLOAD PUSH2 0xC5 SWAP2 SWAP1 PUSH2 0x5D5 JUMP JUMPDEST PUSH1 0x40 MLOAD DUP1 SWAP2 SUB SWAP1 RETURN JUMPDEST PUSH2 0xD6 PUSH2 0x1E2 JUMP JUMPDEST STOP JUMPDEST CALLVALUE DUP1 ISZERO PUSH2 0xE4 JUMPI PUSH1 0x0 DUP1 REVERT JUMPDEST POP PUSH2 0xFF PUSH1 0x4 DUP1 CALLDATASIZE SUB DUP2 ADD SWAP1 PUSH2 0xFA SWAP2 SWAP1 PUSH2 0x4B1 JUMP JUMPDEST PUSH2 0x2EA JUMP JUMPDEST PUSH1 0x40 MLOAD PUSH2 0x10C SWAP2 SWAP1 PUSH2 0x59A JUMP JUMPDEST PUSH1 0x40 MLOAD DUP1 SWAP2 SUB SWAP1 RETURN JUMPDEST PUSH1 0x0 SLOAD DUP2 JUMP JUMPDEST PUSH1 0x0 JUMPDEST PUSH1 0x1 DUP1 SLOAD SWAP1 POP DUP2 LT ISZERO PUSH2 0x1C7 JUMPI PUSH1 0x0 PUSH1 0x1 DUP3 DUP2 SLOAD DUP2 LT PUSH2 0x141 JUMPI PUSH2 0x140 PUSH2 0x8FC JUMP JUMPDEST JUMPDEST SWAP1 PUSH1 0x0 MSTORE PUSH1 0x20 PUSH1 0x0 KECCAK256 ADD PUSH1 0x0 SWAP1 SLOAD SWAP1 PUSH2 0x100 EXP SWAP1 DIV PUSH20 0xFFFFFFFFFFFFFFFFFFFFFFFFFFFFFFFFFFFFFFFF AND SWAP1 POP PUSH1 0x0 PUSH1 0x2 PUSH1 0x0 DUP4 PUSH20 0xFFFFFFFFFFFFFFFFFFFFFFFFFFFFFFFFFFFFFFFF AND PUSH20 0xFFFFFFFFFFFFFFFFFFFFFFFFFFFFFFFFFFFFFFFF AND DUP2 MSTORE PUSH1 0x20 ADD SWAP1 DUP2 MSTORE PUSH1 0x20 ADD PUSH1 0x0 KECCAK256 DUP2 SWAP1 SSTORE POP POP DUP1 DUP1 PUSH2 0x1BF SWAP1 PUSH2 0x855 JUMP JUMPDEST SWAP2 POP POP PUSH2 0x11E JUMP JUMPDEST POP JUMP JUMPDEST PUSH1 0x2 PUSH1 0x20 MSTORE DUP1 PUSH1 0x0 MSTORE PUSH1 0x40 PUSH1 0x0 KECCAK256 PUSH1 0x0 SWAP2 POP SWAP1 POP SLOAD DUP2 JUMP JUMPDEST PUSH1 0x0 SLOAD PUSH2 0x1EE CALLVALUE PUSH2 0x329 JUMP JUMPDEST LT ISZERO PUSH2 0x22F JUMPI PUSH1 0x40 MLOAD PUSH32 0x8C379A000000000000000000000000000000000000000000000000000000000 DUP2 MSTORE PUSH1 0x4 ADD PUSH2 0x226 SWAP1 PUSH2 0x5B5 JUMP JUMPDEST PUSH1 0x40 MLOAD DUP1 SWAP2 SUB SWAP1 REVERT JUMPDEST PUSH1 0x1 CALLER SWAP1 DUP1 PUSH1 0x1 DUP2 SLOAD ADD DUP1 DUP3 SSTORE DUP1 SWAP2 POP POP PUSH1 0x1 SWAP1 SUB SWAP1 PUSH1 0x0 MSTORE PUSH1 0x20 PUSH1 0x0 KECCAK256 ADD PUSH1 0x0 SWAP1 SWAP2 SWAP1 SWAP2 SWAP1 SWAP2 PUSH2 0x100 EXP DUP2 SLOAD DUP2 PUSH20 0xFFFFFFFFFFFFFFFFFFFFFFFFFFFFFFFFFFFFFFFF MUL NOT AND SWAP1 DUP4 PUSH20 0xFFFFFFFFFFFFFFFFFFFFFFFFFFFFFFFFFFFFFFFF AND MUL OR SWAP1 SSTORE POP CALLVALUE PUSH1 0x2 PUSH1 0x0 CALLER PUSH20 0xFFFFFFFFFFFFFFFFFFFFFFFFFFFFFFFFFFFFFFFF AND PUSH20 0xFFFFFFFFFFFFFFFFFFFFFFFFFFFFFFFFFFFFFFFF AND DUP2 MSTORE PUSH1 0x20 ADD SWAP1 DUP2 MSTORE PUSH1 0x20 ADD PUSH1 0x0 KECCAK256 PUSH1 0x0 DUP3 DUP3 SLOAD PUSH2 0x2E1 SWAP2 SWAP1 PUSH2 0x601 JUMP JUMPDEST SWAP3 POP POP DUP2 SWAP1 SSTORE POP JUMP JUMPDEST PUSH1 0x1 DUP2 DUP2 SLOAD DUP2 LT PUSH2 0x2FA JUMPI PUSH1 0x0 DUP1 REVERT JUMPDEST SWAP1 PUSH1 0x0 MSTORE PUSH1 0x20 PUSH1 0x0 KECCAK256 ADD PUSH1 0x0 SWAP2 POP SLOAD SWAP1 PUSH2 0x100 EXP SWAP1 DIV PUSH20 0xFFFFFFFFFFFFFFFFFFFFFFFFFFFFFFFFFFFFFFFF AND DUP2 JUMP JUMPDEST PUSH1 0x0 DUP1 PUSH2 0x334 PUSH2 0x363 JUMP JUMPDEST SWAP1 POP PUSH1 0x0 PUSH8 0xDE0B6B3A7640000 DUP5 DUP4 PUSH2 0x34D SWAP2 SWAP1 PUSH2 0x79F JUMP JUMPDEST PUSH2 0x357 SWAP2 SWAP1 PUSH2 0x657 JUMP JUMPDEST SWAP1 POP DUP1 SWAP3 POP POP POP SWAP2 SWAP1 POP JUMP JUMPDEST PUSH1 0x0 DUP1 PUSH20 0x8A753747A1FA494EC906CE90E9F37563A8AF630E SWAP1 POP PUSH1 0x0 DUP2 PUSH20 0xFFFFFFFFFFFFFFFFFFFFFFFFFFFFFFFFFFFFFFFF AND PUSH4 0xFEAF968C PUSH1 0x40 MLOAD DUP2 PUSH4 0xFFFFFFFF AND PUSH1 0xE0 SHL DUP2 MSTORE PUSH1 0x4 ADD PUSH1 0xA0 PUSH1 0x40 MLOAD DUP1 DUP4 SUB DUP2 DUP7 DUP1 EXTCODESIZE ISZERO DUP1 ISZERO PUSH2 0x3C5 JUMPI PUSH1 0x0 DUP1 REVERT JUMPDEST POP GAS STATICCALL ISZERO DUP1 ISZERO PUSH2 0x3D9 JUMPI RETURNDATASIZE PUSH1 0x0 DUP1 RETURNDATACOPY RETURNDATASIZE PUSH1 0x0 REVERT JUMPDEST POP POP POP POP PUSH1 0x40 MLOAD RETURNDATASIZE PUSH1 0x1F NOT PUSH1 0x1F DUP3 ADD AND DUP3 ADD DUP1 PUSH1 0x40 MSTORE POP DUP2 ADD SWAP1 PUSH2 0x3FD SWAP2 SWAP1 PUSH2 0x4DE JUMP JUMPDEST POP POP POP SWAP2 POP POP PUSH5 0x2540BE400 DUP2 PUSH2 0x414 SWAP2 SWAP1 PUSH2 0x688 JUMP JUMPDEST SWAP3 POP POP POP SWAP1 JUMP JUMPDEST PUSH1 0x0 DUP2 CALLDATALOAD SWAP1 POP PUSH2 0x42A DUP2 PUSH2 0x959 JUMP JUMPDEST SWAP3 SWAP2 POP POP JUMP JUMPDEST PUSH1 0x0 DUP2 MLOAD SWAP1 POP PUSH2 0x43F DUP2 PUSH2 0x970 JUMP JUMPDEST SWAP3 SWAP2 POP POP JUMP JUMPDEST PUSH1 0x0 DUP2 CALLDATALOAD SWAP1 POP PUSH2 0x454 DUP2 PUSH2 0x987 JUMP JUMPDEST SWAP3 SWAP2 POP POP JUMP JUMPDEST PUSH1 0x0 DUP2 MLOAD SWAP1 POP PUSH2 0x469 DUP2 PUSH2 0x987 JUMP JUMPDEST SWAP3 SWAP2 POP POP JUMP JUMPDEST PUSH1 0x0 DUP2 MLOAD SWAP1 POP PUSH2 0x47E DUP2 PUSH2 0x99E JUMP JUMPDEST SWAP3 SWAP2 POP POP JUMP JUMPDEST PUSH1 0x0 PUSH1 0x20 DUP3 DUP5 SUB SLT ISZERO PUSH2 0x49A JUMPI PUSH2 0x499 PUSH2 0x92B JUMP JUMPDEST JUMPDEST PUSH1 0x0 PUSH2 0x4A8 DUP5 DUP3 DUP6 ADD PUSH2 0x41B JUMP JUMPDEST SWAP2 POP POP SWAP3 SWAP2 POP POP JUMP JUMPDEST PUSH1 0x0 PUSH1 0x20 DUP3 DUP5 SUB SLT ISZERO PUSH2 0x4C7 JUMPI PUSH2 0x4C6 PUSH2 0x92B JUMP JUMPDEST JUMPDEST PUSH1 0x0 PUSH2 0x4D5 DUP5 DUP3 DUP6 ADD PUSH2 0x445 JUMP JUMPDEST SWAP2 POP POP SWAP3 SWAP2 POP POP JUMP JUMPDEST PUSH1 0x0 DUP1 PUSH1 0x0 DUP1 PUSH1 0x0 PUSH1 0xA0 DUP7 DUP9 SUB SLT ISZERO PUSH2 0x4FA JUMPI PUSH2 0x4F9 PUSH2 0x92B JUMP JUMPDEST JUMPDEST PUSH1 0x0 PUSH2 0x508 DUP9 DUP3 DUP10 ADD PUSH2 0x46F JUMP JUMPDEST SWAP6 POP POP PUSH1 0x20 PUSH2 0x519 DUP9 DUP3 DUP10 ADD PUSH2 0x430 JUMP JUMPDEST SWAP5 POP POP PUSH1 0x40 PUSH2 0x52A DUP9 DUP3 DUP10 ADD PUSH2 0x45A JUMP JUMPDEST SWAP4 POP POP PUSH1 0x60 PUSH2 0x53B DUP9 DUP3 DUP10 ADD PUSH2 0x45A JUMP JUMPDEST SWAP3 POP POP PUSH1 0x80 PUSH2 0x54C DUP9 DUP3 DUP10 ADD PUSH2 0x46F JUMP JUMPDEST SWAP2 POP POP SWAP3 SWAP6 POP SWAP3 SWAP6 SWAP1 SWAP4 POP JUMP JUMPDEST PUSH2 0x562 DUP2 PUSH2 0x7F9 JUMP JUMPDEST DUP3 MSTORE POP POP JUMP JUMPDEST PUSH1 0x0 PUSH2 0x575 PUSH1 0x13 DUP4 PUSH2 0x5F0 JUMP JUMPDEST SWAP2 POP PUSH2 0x580 DUP3 PUSH2 0x930 JUMP JUMPDEST PUSH1 0x20 DUP3 ADD SWAP1 POP SWAP2 SWAP1 POP JUMP JUMPDEST PUSH2 0x594 DUP2 PUSH2 0x835 JUMP JUMPDEST DUP3 MSTORE POP POP JUMP JUMPDEST PUSH1 0x0 PUSH1 0x20 DUP3 ADD SWAP1 POP PUSH2 0x5AF PUSH1 0x0 DUP4 ADD DUP5 PUSH2 0x559 JUMP JUMPDEST SWAP3 SWAP2 POP POP JUMP JUMPDEST PUSH1 0x0 PUSH1 0x20 DUP3 ADD SWAP1 POP DUP2 DUP2 SUB PUSH1 0x0 DUP4 ADD MSTORE PUSH2 0x5CE DUP2 PUSH2 0x568 JUMP JUMPDEST SWAP1 POP SWAP2 SWAP1 POP JUMP JUMPDEST PUSH1 0x0 PUSH1 0x20 DUP3 ADD SWAP1 POP PUSH2 0x5EA PUSH1 0x0 DUP4 ADD DUP5 PUSH2 0x58B JUMP JUMPDEST SWAP3 SWAP2 POP POP JUMP JUMPDEST PUSH1 0x0 DUP3 DUP3 MSTORE PUSH1 0x20 DUP3 ADD SWAP1 POP SWAP3 SWAP2 POP POP JUMP JUMPDEST PUSH1 0x0 PUSH2 0x60C DUP3 PUSH2 0x835 JUMP JUMPDEST SWAP2 POP PUSH2 0x617 DUP4 PUSH2 0x835 JUMP JUMPDEST SWAP3 POP DUP3 PUSH32 0xFFFFFFFFFFFFFFFFFFFFFFFFFFFFFFFFFFFFFFFFFFFFFFFFFFFFFFFFFFFFFFFF SUB DUP3 GT ISZERO PUSH2 0x64C JUMPI PUSH2 0x64B PUSH2 0x89E JUMP JUMPDEST JUMPDEST DUP3 DUP3 ADD SWAP1 POP SWAP3 SWAP2 POP POP JUMP JUMPDEST PUSH1 0x0 PUSH2 0x662 DUP3 PUSH2 0x835 JUMP JUMPDEST SWAP2 POP PUSH2 0x66D DUP4 PUSH2 0x835 JUMP JUMPDEST SWAP3 POP DUP3 PUSH2 0x67D JUMPI PUSH2 0x67C PUSH2 0x8CD JUMP JUMPDEST JUMPDEST DUP3 DUP3 DIV SWAP1 POP SWAP3 SWAP2 POP POP JUMP JUMPDEST PUSH1 0x0 PUSH2 0x693 DUP3 PUSH2 0x80B JUMP JUMPDEST SWAP2 POP PUSH2 0x69E DUP4 PUSH2 0x80B JUMP JUMPDEST SWAP3 POP DUP3 PUSH32 0x7FFFFFFFFFFFFFFFFFFFFFFFFFFFFFFFFFFFFFFFFFFFFFFFFFFFFFFFFFFFFFFF DIV DUP3 GT PUSH1 0x0 DUP5 SGT PUSH1 0x0 DUP5 SGT AND AND ISZERO PUSH2 0x6DD JUMPI PUSH2 0x6DC PUSH2 0x89E JUMP JUMPDEST JUMPDEST DUP2 PUSH32 0x8000000000000000000000000000000000000000000000000000000000000000 SDIV DUP4 SLT PUSH1 0x0 DUP5 SLT PUSH1 0x0 DUP5 SGT AND AND ISZERO PUSH2 0x71A JUMPI PUSH2 0x719 PUSH2 0x89E JUMP JUMPDEST JUMPDEST DUP3 PUSH32 0x8000000000000000000000000000000000000000000000000000000000000000 SDIV DUP3 SLT PUSH1 0x0 DUP5 SGT PUSH1 0x0 DUP5 SLT AND AND ISZERO PUSH2 0x757 JUMPI PUSH2 0x756 PUSH2 0x89E JUMP JUMPDEST JUMPDEST DUP3 PUSH32 0x7FFFFFFFFFFFFFFFFFFFFFFFFFFFFFFFFFFFFFFFFFFFFFFFFFFFFFFFFFFFFFFF SDIV DUP3 SLT PUSH1 0x0 DUP5 SLT PUSH1 0x0 DUP5 SLT AND AND ISZERO PUSH2 0x794 JUMPI PUSH2 0x793 PUSH2 0x89E JUMP JUMPDEST JUMPDEST DUP3 DUP3 MUL SWAP1 POP SWAP3 SWAP2 POP POP JUMP JUMPDEST PUSH1 0x0 PUSH2 0x7AA DUP3 PUSH2 0x835 JUMP JUMPDEST SWAP2 POP PUSH2 0x7B5 DUP4 PUSH2 0x835 JUMP JUMPDEST SWAP3 POP DUP2 PUSH32 0xFFFFFFFFFFFFFFFFFFFFFFFFFFFFFFFFFFFFFFFFFFFFFFFFFFFFFFFFFFFFFFFF DIV DUP4 GT DUP3 ISZERO ISZERO AND ISZERO PUSH2 0x7EE JUMPI PUSH2 0x7ED PUSH2 0x89E JUMP JUMPDEST JUMPDEST DUP3 DUP3 MUL SWAP1 POP SWAP3 SWAP2 POP POP JUMP JUMPDEST PUSH1 0x0 PUSH2 0x804 DUP3 PUSH2 0x815 JUMP JUMPDEST SWAP1 POP SWAP2 SWAP1 POP JUMP JUMPDEST PUSH1 0x0 DUP2 SWAP1 POP SWAP2 SWAP1 POP JUMP JUMPDEST PUSH1 0x0 PUSH20 0xFFFFFFFFFFFFFFFFFFFFFFFFFFFFFFFFFFFFFFFF DUP3 AND SWAP1 POP SWAP2 SWAP1 POP JUMP JUMPDEST PUSH1 0x0 DUP2 SWAP1 POP SWAP2 SWAP1 POP JUMP JUMPDEST PUSH1 0x0 PUSH10 0xFFFFFFFFFFFFFFFFFFFF DUP3 AND SWAP1 POP SWAP2 SWAP1 POP JUMP JUMPDEST PUSH1 0x0 PUSH2 0x860 DUP3 PUSH2 0x835 JUMP JUMPDEST SWAP2 POP PUSH32 0xFFFFFFFFFFFFFFFFFFFFFFFFFFFFFFFFFFFFFFFFFFFFFFFFFFFFFFFFFFFFFFFF DUP3 EQ ISZERO PUSH2 0x893 JUMPI PUSH2 0x892 PUSH2 0x89E JUMP JUMPDEST JUMPDEST PUSH1 0x1 DUP3 ADD SWAP1 POP SWAP2 SWAP1 POP JUMP JUMPDEST PUSH32 0x4E487B7100000000000000000000000000000000000000000000000000000000 PUSH1 0x0 MSTORE PUSH1 0x11 PUSH1 0x4 MSTORE PUSH1 0x24 PUSH1 0x0 REVERT JUMPDEST PUSH32 0x4E487B7100000000000000000000000000000000000000000000000000000000 PUSH1 0x0 MSTORE PUSH1 0x12 PUSH1 0x4 MSTORE PUSH1 0x24 PUSH1 0x0 REVERT JUMPDEST PUSH32 0x4E487B7100000000000000000000000000000000000000000000000000000000 PUSH1 0x0 MSTORE PUSH1 0x32 PUSH1 0x4 MSTORE PUSH1 0x24 PUSH1 0x0 REVERT JUMPDEST PUSH1 0x0 DUP1 REVERT JUMPDEST PUSH32 0x4469646E27742073656E6420656E6F7567682100000000000000000000000000 PUSH1 0x0 DUP3 ADD MSTORE POP JUMP JUMPDEST PUSH2 0x962 DUP2 PUSH2 0x7F9 JUMP JUMPDEST DUP2 EQ PUSH2 0x96D JUMPI PUSH1 0x0 DUP1 REVERT JUMPDEST POP JUMP JUMPDEST PUSH2 0x979 DUP2 PUSH2 0x80B JUMP JUMPDEST DUP2 EQ PUSH2 0x984 JUMPI PUSH1 0x0 DUP1 REVERT JUMPDEST POP JUMP JUMPDEST PUSH2 0x990 DUP2 PUSH2 0x835 JUMP JUMPDEST DUP2 EQ PUSH2 0x99B JUMPI PUSH1 0x0 DUP1 REVERT JUMPDEST POP JUMP JUMPDEST PUSH2 0x9A7 DUP2 PUSH2 0x83F JUMP JUMPDEST DUP2 EQ PUSH2 0x9B2 JUMPI PUSH1 0x0 DUP1 REVERT JUMPDEST POP JUMP INVALID LOG2 PUSH5 0x6970667358 0x22 SLT KECCAK256 0xAC 0xC8 STATICCALL KECCAK256 RETURNDATACOPY 0x5F DUP8 SWAP13 CALLDATASIZE PUSH10 0x8A84DBC2936B08324E9 0x22 0xDE 0xF7 0xCE PUSH25 0xA681358A1075564736F6C6343000807003300000000000000 "
				},
				"gasEstimates": {
					"creation": {
						"codeDepositCost": "507800",
						"executionCost": "22649",
						"totalCost": "530449"
					},
					"external": {
						"addressToAmountFunded(address)": "2836",
						"fund()": "infinite",
						"funders(uint256)": "5022",
						"minimumUSD()": "2407",
						"withdraw()": "infinite"
					}
				},
				"methodIdentifiers": {
					"addressToAmountFunded(address)": "3e47d6f3",
					"fund()": "b60d4288",
					"funders(uint256)": "dc0d3dff",
					"minimumUSD()": "3430a88c",
					"withdraw()": "3ccfd60b"
				}
			},
			"storageLayout": {
				"storage": [
					{
						"astId": 56,
						"contract": "FundMe.sol:FundMe",
						"label": "minimumUSD",
						"offset": 0,
						"slot": "0",
						"type": "t_uint256"
					},
					{
						"astId": 59,
						"contract": "FundMe.sol:FundMe",
						"label": "funders",
						"offset": 0,
						"slot": "1",
						"type": "t_array(t_address)dyn_storage"
					},
					{
						"astId": 63,
						"contract": "FundMe.sol:FundMe",
						"label": "addressToAmountFunded",
						"offset": 0,
						"slot": "2",
						"type": "t_mapping(t_address,t_uint256)"
					}
				],
				"types": {
					"t_address": {
						"encoding": "inplace",
						"label": "address",
						"numberOfBytes": "20"
					},
					"t_array(t_address)dyn_storage": {
						"base": "t_address",
						"encoding": "dynamic_array",
						"label": "address[]",
						"numberOfBytes": "32"
					},
					"t_mapping(t_address,t_uint256)": {
						"encoding": "mapping",
						"key": "t_address",
						"label": "mapping(address => uint256)",
						"numberOfBytes": "32",
						"value": "t_uint256"
					},
					"t_uint256": {
						"encoding": "inplace",
						"label": "uint256",
						"numberOfBytes": "32"
					}
				}
			},
			"userdoc": {
				"kind": "user",
				"methods": {},
				"version": 1
			}
		}
	}
}